:020000040800F2
:1000000048070020910100086B0A00087D060008DF
:10001000670A0008210500081F1200080000000000
:10002000000000000000000000000000090E0008B1
:1000300025050008000000006D0A0008F50E000804
:10004000AB010008AB010008AB010008E10D00089E
:10005000AB010008AB010008AB010008AB010008D0
:10006000AB010008AB010008AB010008AB010008C0
:10007000AB010008AB010008AB010008AB010008B0
:10008000AB010008AB010008AB010008AB010008A0
:10009000AB010008AB010008AB010008AB01000890
:1000A000AB010008AB010008AB010008AB01000880
:1000B000AB010008AB010008AB010008AB01000870
:1000C000AB010008AB010008AB010008AB01000860
:1000D000AB0100082D110008AB010008AB010008BE
:1000E000AB010008990D0008AB01000800F002F810
:1000F00000F03FF80AA090E8000C82448344AAF183
:100100000107DA4501D100F034F8AFF2090EBAE880
:100110000F0013F0010F18BFFB1A43F0010318473B
:100120005812000078120000103A24BF78C878C135
:10013000FAD8520724BF30C830C144BF04680C60ED
:10014000704700000023002400250026103A28BF35
:1001500078C1FBD8520728BF30C148BF0B60704739
:10016000632900F08981002070471FB51FBD10B5BD
:1001700010BD00F0A3F91146FFF7F7FF01F08EF86C
:1001800000F0C1F903B4FFF7F2FF03BC01F050F82F
:100190000948804709480047FEE7FEE7FEE7FEE71B
:1001A000FEE7FEE7FEE7FEE7FEE7FEE70448054957
:1001B000054A064B70470000F90E0008ED000008E4
:1001C0004801002048070020480300204803002081
:1001D000704700000FB4044910B503AA029800F05C
:1001E00057F910BC5DF814FB1400002070B50C46E4
:1001F0000546012A05D02878800600D5EA69002343
:1002000002E0012305E05B1C934202D2E05C00287F
:10021000F9D1A869E618C01AA861286A18442862AA
:100220002846AFF3008004E0D5E9012114F8010B62
:100230009047B442F8D32846AFF3008070BD000069
:100240002DE9F05F894604464FF0000ADFF874B1EB
:10025000FB44C0F820A02046E1688847002874D0FD
:10026000252806D0D4E901219047206A401C20624D
:10027000F1E700265F462046E168884720280546CA
:1002800007DB312D05D2781910F8200C08B1064390
:10029000F1E7B00701D526F00406C4F81CA000273A
:1002A000C4F818A02A2D09D0284600F0BAFF38B3A8
:1002B00004EB8708303DC8F8185019E059F8041BC2
:1002C000204604EB87029161E1688847012F0546CB
:1002D00018D1E069002820DA26F020061DE0D8F8C1
:1002E000180000EB800005EB40003038C8F818001B
:1002F0002046E1688847054600F093FF0028EED1CC
:10030000012F0AD02E2D08D12046E16888477F1C96
:100310000546022F46F02006C4DBA069002803DA58
:10032000404246F00106A061F00701D026F0100619
:100330006C2D0BD0682D09D04C2D39D06A2D35D0BD
:10034000742D35D07A2D33D016E038E0E1682F4691
:1003500020468847B842054609D16C2F26D04FF475
:100360008060E168064320468847054604E06C2F1C
:100370001AD04FF4807006430DB3A5F1410019283F
:1003800002D8203546F400664A46294620462660B3
:100390004E46FFF7E5FE80B101280BD0F61D26F092
:1003A000070000F1080956E74020E4E78020D8E77D
:1003B0000020D6E706F104094DE7284652E7206AF7
:1003C000BDE8F09F1011000010B5203AC0F00B807E
:1003D000B1E81850203AA0E81850B1E81850A0E849
:1003E0001850BFF4F5AF5FEA027C24BFB1E81850A3
:1003F000A0E8185044BF18C918C0BDE810405FEA13
:10040000827C24BF51F8043B40F8043B08BF70478E
:10041000D20728BF31F8023B48BF11F8012B28BF93
:1004200020F8023B48BF00F8012B70477047704727
:100430007047704701694A1C02610878704700B52F
:100440008FB0CDE901310021059105497944CDE90D
:10045000031011466846FFF7F3FE0FB000BD000021
:10046000E5FFFFFF10B5436913B1AFF3008001E072
:10047000FFF7BCFE012010BD127800F124010A70C4
:1004800000224A700122EDE711684FF0FF32E9E7E0
:10049000074B70B50D467B44FFF7D1FF0446284655
:1004A00000F008F810B14FF0FF3070BD204670BD6D
:1004B000E70D0000007B00F080007047754600F0FB
:1004C0002BF8AE4605006946534620F007008546E6
:1004D00018B020B5FFF76AFEBDE820404FF00006D7
:1004E0004FF000074FF000084FF0000B21F007011C
:1004F000AC46ACE8C009ACE8C009ACE8C009ACE85F
:10050000C0098D46704710B50446AFF30080204601
:10051000BDE81040FFF736BE00487047E4000020F9
:1005200000BFFEE7704700000549096821F010018F
:10053000034A1160114609680143116070470000C9
:100540000020024001460020034A106800F03800F5
:100550000843106070470000002002402DE9F04180
:10056000024600250026002000230024002791F8E1
:1005700003C00CF00F0591F803C00CF0100CBCF197
:10058000000F03D091F802C04CEA050591F800C0B5
:10059000BCF1000F31D0146800202BE04FF0010CAB
:1005A0000CFA00F3B1F800C00CEA03069E4220D119
:1005B00083004FF00F0C0CFA03F7BC4305FA03FC61
:1005C0004CEA040491F803C0BCF1280F06D14FF0A7
:1005D000010C0CFA00FCC2F814C00AE091F803C048
:1005E000BCF1480F05D14FF0010C0CFA00FCC2F829
:1005F00010C0401C0828D1D31460B1F800C0BCF171
:10060000FF0F34DD546800202EE000F1080C4FF09D
:10061000010808FA0CF3B1F800C00CEA03069E4288
:1006200021D183004FF00F0C0CFA03F7BC4305FAFD
:1006300003FC4CEA040491F803C0BCF1280F05D177
:1006400000F1080C08FA0CF8C2F8148091F803C005
:10065000BCF1480F07D100F1080C4FF0010808FA6F
:100660000CF8C2F81080401C0828CED35460BDE8B6
:10067000F0810AB1016100E04161704700BFFEE70F
:1006800021B1028842F48062028004E002884FF6C1
:10069000FF331A400280704770B5024600240025DF
:1006A00000230020958A138B1B0445EA030626F0DD
:1006B0007F4404EA01068E4201D1012000E00020BF
:1006C00070BD21B1028842F00102028004E002887C
:1006D0004FF6FE731A400280704700001FB500F00D
:1006E00021F80020ADF804004BF6FF70ADF80600CD
:1006F000C020ADF808004FF48060ADF80A0000019A
:10070000ADF80C00054800906946054800F05AF81D
:1007100001210348FFF7D5FF1FBD0000400D030076
:100720000054004008B501211C2000F0B1F901215E
:10073000480500F09DF9C020ADF800001C208DF8A0
:10074000030003208DF8020069460248FFF706FF08
:1007500008BD0000000C014021B1028842F4807203
:10076000028004E002884FF6FF631A40028070475F
:1007700021B1028842F40072028004E002884FF640
:10078000FF531A40028070470CB502460020002338
:100790000193009300920B0F019321F07F41019B85
:1007A0001BB1009B1433009303E0090C009B18332A
:1007B0000093009B1B680B400BB1012000E0002060
:1007C0000CBD00002DE9F04385B004460D4600261F
:1007D000B1460427DFF8CC80A6884FF6C0700640EB
:1007E000684600F0C3F9DDF808802F48B8FBF0F048
:1007F0001FFA80F946EA0906A68020884FF6FE71A6
:100800000840208000262949286888420CD828689A
:100810004000B8FBF0F087B2042F00DA04273E4313
:1008200009F10100208427E0E8884BF6FF71884237
:1008300006D1286800EB4000B8FBF0F087B209E071
:10084000286800EBC00101EB0010B8FBF0F087B2A4
:1008500047F48047C7F30B0008B947F0010747F496
:10086000004006434FF4967009FB00F04FF47A7194
:1008700090FBF1F0401C2084A683208840F001000A
:10088000208026884FF6F5300640A88869890843FD
:1008900006432680A88929890843208105B0BDE840
:1008A000F083000000127A0040420F00A086010091
:1008B0002DE9F04106460F4615461C4600BF4FF491
:1008C00000313248FFF760FF0028F8D101212F489E
:1008D000FFF742FF00BF2E492C48FFF7DDFE00283E
:1008E000F9D000223146294800F05AF800BF2949C2
:1008F0002648FFF7D1FE0028F9D001212348FFF751
:10090000E0FE3946214800F054F800BF2149891C17
:100910001E48FFF7C1FE0028F8D001211B48FFF751
:100920001BFF00BF1A491948FFF7B6FE0028F9D08F
:1009300001223146154800F033F800BF1449491C24
:100940001248FFF7A9FE0028F8D016E0012C07D1C5
:1009500000210E48FFF794FE01210C48FFF708FF25
:100960000B493F310948FFF797FE30B1074800F0C7
:1009700013F828706D1C601E84B2002CE6D1012192
:100980000248FFF77DFEBDE8F08100000054004002
:1009900001000300820007000146088AC0B27047C8
:1009A00012B141F0010102E04FF6FE7319400182DD
:1009B000704701827047F8B50646002400250223DF
:1009C0006A4600219E20FFF773FF9DF8004000203B
:1009D000307004F0800028B101203070E043C4B2D0
:1009E000601CC4B204F0010008B1681CC5B204F078
:1009F000020008B1A81CC5B204F0040008B1281D0B
:100A0000C5B204F0080010B105F10800C5B204F049
:100A1000100010B105F11000C5B204F0200010B1B3
:100A200005F12000C5B204F0400010B105F140000E
:100A3000C5B2761C357000259DF8014004F02000F9
:100A400010B105F10C00C5B204F0400010B105F181
:100A50001900C5B204F0800010B105F13200C5B232
:100A6000761C3570F8BD00BFFEE770477047000088
:100A700029B1064AD2690243044BDA6104E0034A11
:100A8000D2698243014BDA617047000000100240D6
:100A900029B1064A92690243044B9A6104E0034A71
:100AA00092698243014B9A61704700000010024036
:100AB00010B500F035F84FF4803000F0F3F800F096
:100AC0004FF90446012C24D14FF4E011000400F04A
:100AD0002DF9002000F0DAF8A00200F009F900205A
:100AE00000F012F90220FFF72DFD1020FFF71CFD8A
:100AF000012000F015F900BF392000F0A1F800280E
:100B0000FAD0022000F020F900BF00F0B7F8082862
:100B1000FBD1012144F27C00FFF7BAFF10BD0000B9
:100B20000F48006840F001000D4908600846406821
:100B30000C4908400A494860084600680A490840CC
:100B4000074908600846006820F4802008600846CD
:100B5000406820F4FE0048604FF41F008860704732
:100B6000001002400000FFF8FFFFF6FE30B5002144
:100B70000022002400232D4D6D6805F00C0121B1E9
:100B8000042905D0082923D105E0294D056022E07C
:100B9000274D05601FE0254D6D6805F47012234D4B
:100BA0006D6805F48034022505EB92421CB9214D95
:100BB000554305600BE01D4D6D6805F400351DB112
:100BC0001C4D5543056002E0194D5543056002E098
:100BD000174D056000BF00BF144D6D6805F0F001B2
:100BE0000909154D6B5C0568DD4045600F4D6D686A
:100BF00005F4E061090A104D6B5C4568DD408560D5
:100C00000A4D6D6805F46051C90A0B4D6B5C45686F
:100C1000DD40C560054D6D6805F44041890B074D09
:100C20006B5CC568B5FBF3F5056130BD0010024093
:100C300000127A0000093D00000000201000002092
:100C400010B501460022002300204A11012A02D1DA
:100C5000094C236806E0022A02D1074C236A01E00E
:100C6000054C636A01F01F02012494401C400CB142
:100C7000012000E0002010BD001002400248406842
:100C800000F00C00704700000010024001460020F8
:100C9000034A506820F0F00008435060704700009D
:100CA000001002401149096821F480310F4A116097
:100CB0001146096821F480211160B0F5803F03D00E
:100CC000B0F5802F0ED106E00849096841F4803163
:100CD000064A116007E00549096841F4A021034A6A
:100CE000116000E000BF00BF70470000001002402C
:100CF00001460020034A506820F4E0600843506039
:100D0000704700000010024001460020034A50686E
:100D100020F4605040EAC10050607047001002406B
:100D20000149086670470000000042420246002068
:100D3000044B586820F47C1042EA01031843014B2D
:100D4000586070470010024001460020034A506876
:100D500020F003000843506070470000001002407C
:100D600038B5002000900024002500BF3120FFF797
:100D700067FF05460098401C00900098B0F5A06FF2
:100D800001D0002DF2D03120FFF75AFF08B1012425
:100D900000E00024204638BD10B5022000F00EF817
:100DA000022000F003F800F025F810BD0249098880
:100DB0008143014A11807047042800400146002009
:100DC000064A12880A40D0B2044A121F12880A400A
:100DD00012B108B1012000E0002070470428004053
:100DE00010B50120FFF7EAFF0120FFF7DFFF00F059
:100DF00001F810BD00BF0348008800F02000002863
:100E0000F9D0704704280040704710B500F002F890
:100E100010BD00000CB50020019000903348006820
:100E200040F480303149086000BF3048006800F469
:100E3000003000900198401C0190009818B901986A
:100E4000B0F5A06FF1D12948006800F4003010B16E
:100E50000120009001E0002000900098012843D17B
:100E60002348006840F010002149086008460068E7
:100E700020F0030008600846006840F002000860A7
:100E80001A48406819494860084640684860084662
:100E9000406840F4806048600846406820F47C1058
:100EA00048600846406840F4E8104860084600681A
:100EB00040F08070086000BF0C48006800F00070CF
:100EC0000028F9D00948406820F00300074948602D
:100ED0000846406840F00200486000BF0348406890
:100EE00000F00C000828F9D10CBD000000100240F1
:100EF000002002407047000010B51348006840F021
:100F000001001149086008464068104908400E4930
:100F10004860084600680E4908400B4908600846CA
:100F2000006820F4802008600846406820F4FE0035
:100F300048604FF41F008860FFF767FF4FF00060C4
:100F40000449086010BD0000001002400000FFF8D6
:100F5000FFFFF6FE08ED00E008B501211C20FFF7B9
:100F600097FD4FF4C050ADF8000010208DF803003D
:100F700003208DF8020069460D48FFF7EFFA0122C1
:100F800011030B48FFF775FB0122D1020848FFF758
:100F900070FB00F041F8442000F07CF800F060F8AD
:100FA00000F03AF88C2000F075F800F059F808BD10
:100FB0000008014030B587B004460D46182209A14B
:100FC00001A8FFF701FA00F027F804F1C001C8B248
:100FD00000F060F801A9485D00F05CF800F040F80E
:100FE00007B030BD3F065B4F666D7D077F6FBF86E4
:100FF000DBCFE6EDFD87FFEF0000000010B50446F3
:1010000000F00AF8C82000F045F8204600F042F849
:1010100000F026F810BD000010B5012211030F48A2
:10102000FFF727FB0122D1020C48FFF722FB01202A
:1010300000F00EF900224FF480510848FFF719FB29
:10104000012000F005F900224FF400610348FFF78A
:1010500010FB012000F0FCF810BD0000000801406A
:1010600010B500224FF480510948FFF702FB01221E
:10107000D1020748FFF7FDFA012000F0E9F801224C
:1010800011030348FFF7F5FA012000F0E1F810BD65
:101090000008014070B50446254600224FF48051F7
:1010A0002148FFF7E6FA00224FF400611E48FFF7DF
:1010B000E0FA002628E000224FF400611A48FFF70A
:1010C000D8FA012000F0C4F805F0010040B1012277
:1010D00011031548FFF7CDFA012000F0B9F808E038
:1010E00000224FF480511048FFF7C3FA012000F0AE
:1010F000AFF80122D1020C48FFF7BBFA012000F043
:10110000A7F86D10701CC6B2082ED4DB00224FF475
:1011100080510548FFF7ADFA00224FF40061024804
:10112000FFF7A7FA70BD00000008014010B540F2BB
:1011300025511F4800F044F8002838D01C4800F022
:1011400069F8C4B221461BA0FFF744F81A4800888A
:1011500000F4004058BB1848008800F4804060B19B
:101160000A2C03D000201449088020E0124800888F
:1011700040F400401049088019E00D2C06D10E48BB
:10118000008840F480400C49088010E00A4800883C
:10119000C0F30D0009490C5407480088401C06495B
:1011A000088008460088C72801DD0020088010BD9F
:1011B0000038014025630000180000201C000020BA
:1011C00070B50246002400230025002040F66A1670
:1011D000B14200D100BFC1F3421501F01F03012647
:1011E00006FA03F3012D02D19689334006E0022D61
:1011F00002D1168A334001E0968A33400C12012650
:1012000006FA04F41688344013B10CB1012000E052
:10121000002070BD01468888C0F30800704700BFF9
:10122000FEE730380A2801D20120704700207047BD
:10123000014600BF704700B5034603E04FF47A70E3
:1012400000F006F8181EA3F101018BB2F6D100BD23
:1012500000EBC001C9004FF0E02251610021916113
:101260000521116100BF4FF0E021096901F48031CF
:101270000029F8D004214FF0E022116170470000EE
:1012800000BF054A128802F04002002AF9D0C2B21B
:10129000014B1B1D1A8070470038014008B501241E
:1012A000FFF706FCFFF71AFAFFF756FE142100209D
:1012B000FFF780FE14210120FFF77CFE142102209D
:1012C000FFF778FE14210320FFF774FE1421042099
:1012D000FFF770FE14210520FFF76CFE1421062095
:1012E000FFF768FE14210720FFF764FE39E0684627
:1012F000FFF761FB9DF801000A2190FBF1F0C5B2F8
:1013000029460020FFF756FE9DF801000A2190FBB8
:10131000F1F201FB12000A30C5B229460120FFF7A5
:1013200049FE9DF802000A2190FBF1F0C5B2294662
:101330000220FFF73FFE9DF802000A2190FBF1F228
:1013400001FB1200C5B229460320FFF733FE2046F9
:10135000FFF754FE6006040E04B901249620FFF73F
:101360006AFFC4E70400000800000000000000025B
:101370000001000010000000981300080000002089
:101380001C00000028010008B41300081C00002005
:101390002C070000440100080000000001020304C3
:1013A0000102030406070809020406080000000001
:0413B0000000000039
:04000005080000ED02
:00000001FF
