:020000040800F2
:10000000300700209101000861050008090500087B
:100010005D0500089D0300084B0A00080000000071
:1000200000000000000000000000000009080008B7
:10003000A10300080000000063050008F50800089F
:10004000AB010008AB010008AB010008E1070008A4
:10005000AB010008AB010008AB010008AB010008D0
:10006000AB010008AB010008AB010008AB010008C0
:10007000AB010008AB010008AB010008AB010008B0
:10008000AB010008AB010008AB010008AB010008A0
:10009000AB010008AB010008AB010008AB01000890
:1000A000AB010008AB010008AB010008AB01000880
:1000B000AB010008AB010008AB010008AB01000870
:1000C000AB010008AB010008AB010008AB01000860
:1000D000AB01000859090008AB010008AB0100089A
:1000E000AB01000899070008AB01000800F002F816
:1000F00000F03FF80AA090E8000C82448344AAF183
:100100000107DA4501D100F034F8AFF2090EBAE880
:100110000F0013F0010F18BFFB1A43F0010318473B
:1001200084090000A4090000103A24BF78C878C1EF
:10013000FAD8520724BF30C830C144BF04680C60ED
:10014000704700000023002400250026103A28BF35
:1001500078C1FBD8520728BF30C148BF0B60704739
:10016000632900F0AE80002070471FB51FBD10B599
:1001700010BD00F0E1F81146FFF7F7FF00F078FC42
:1001800000F0FFF803B4FFF7F2FF03BC00F05FFCE0
:100190000948804709480047FEE7FEE7FEE7FEE71B
:1001A000FEE7FEE7FEE7FEE7FEE7FEE70448054957
:1001B000054A064B70470000F9080008ED000008EA
:1001C00030010020300700203003002030030020E1
:1001D000704700000FB4044910B503AA029800F05C
:1001E0007DF810BC5DF814FB000000202DE9F04103
:1001F0000E460446002020622046E168884730B35E
:10020000252805D0D4E901219047206A401CF2E757
:10021000E168204600278847050018D0A5F1410075
:10022000192802D820354FF4006732462946204667
:100230002760FFF795FF40B1012804D0F61D26F096
:1002400007060836D8E7361DD6E72846DAE7206ADB
:10025000BDE8F08170B50C460546012A05D0287826
:10026000800600D5EA69002302E0012305E05B1C5B
:10027000934202D2E05C0028F9D1A869E618C01ABE
:10028000A861286A184428622846AFF3008004E079
:10029000D5E9012114F8010B9047B442F8D3284660
:1002A000AFF3008070BD704770477047704710B55E
:1002B000436913B1AFF3008001E0FFF7CBFF0120EA
:1002C00010BD127800F124010A7000224A70012248
:1002D000EDE711684FF0FF32E9E70000074B70B51A
:1002E0000D467B4400F011F80446284600F020F843
:1002F00010B14FF0FF3070BD204670BD6F07000099
:1003000001694A1C02610878704700B58FB0CDE9D9
:1003100001310021059105497944CDE903101146C9
:100320006846FFF763FF0FB000BD0000E5FFFFFF69
:10033000007B00F080007047754600F02BF8AE4659
:1003400005006946534620F00700854618B020B5E1
:10035000FFF72CFFBDE820404FF000064FF00007EC
:100360004FF000084FF0000B21F00701AC46ACE85D
:10037000C009ACE8C009ACE8C009ACE8C0098D46CA
:10038000704710B50446AFF300802046BDE810402A
:10039000FFF7F8BE00487047D000002000BFFEE71E
:1003A000704700000549096821F01001034A1160F7
:1003B00011460968014311607047000000200240A7
:1003C00001460020034A106800F03800084310601E
:1003D00070470000002002402DE9F0410246002550
:1003E0000026002000230024002791F803C00CF011
:1003F0000F0591F803C00CF0100CBCF1000F03D0F6
:1004000091F802C04CEA050591F800C0BCF1000F5C
:1004100031D0146800202BE04FF0010C0CFA00F3EF
:10042000B1F800C00CEA03069E4220D183004FF0D1
:100430000F0C0CFA03F7BC4305FA03FC4CEA040466
:1004400091F803C0BCF1280F06D14FF0010C0CFA53
:1004500000FCC2F814C00AE091F803C0BCF1480FD8
:1004600005D14FF0010C0CFA00FCC2F810C0401C82
:100470000828D1D31460B1F800C0BCF1FF0F34DDFF
:10048000546800202EE000F1080C4FF0010808FA33
:100490000CF3B1F800C00CEA03069E4221D18300A0
:1004A0004FF00F0C0CFA03F7BC4305FA03FC4CEABF
:1004B000040491F803C0BCF1280F05D100F1080C29
:1004C00008FA0CF8C2F8148091F803C0BCF1480F88
:1004D00007D100F1080C4FF0010808FA0CF8C2F837
:1004E0001080401C0828CED35460BDE8F08102463D
:1004F000002093680B400BB1012000E00020704702
:10050000416170470161704700BFFEE708B50121F6
:10051000042000F027F80320ADF8000048208DF8F3
:10052000030069460148FFF757FF08BD0008014076
:1005300008B501211C2000F015F80320ADF80000DB
:1005400010208DF8030003208DF802006946024850
:10055000FFF742FF08BD0000000C014000BFFEE7AE
:100560007047704729B1064A92690243044B9A6169
:1005700004E0034A92698243014B9A61704700008C
:100580000010024010B500F035F84FF4803000F054
:1005900089F800F0E5F80446012C24D14FF4E0116D
:1005A000000400F0C3F8002000F070F8A00200F092
:1005B0009FF8002000F0A8F80220FFF701FF1020AC
:1005C000FFF7F0FE012000F0ABF800BF392000F08B
:1005D00037F80028FAD0022000F0B6F800BF00F08B
:1005E0004DF80828FBD1012144F27C00FFF7BAFF47
:1005F00010BD00000F48006840F001000D49086080
:10060000084640680C4908400A49486008460068A6
:100610000A490840074908600846006820F480201D
:1006200008600846406820F4FE0048604FF41F0050
:1006300088607047001002400000FFF8FFFFF6FEE0
:1006400010B501460022002300204A11012A02D1E0
:10065000094C236806E0022A02D1074C236A01E014
:10066000054C636A01F01F02012494401C400CB148
:10067000012000E0002010BD001002400248406848
:1006800000F00C00704700000010024001460020FE
:10069000034A506820F0F0000843506070470000A3
:1006A000001002401149096821F480310F4A11609D
:1006B0001146096821F480211160B0F5803F03D014
:1006C000B0F5802F0ED106E00849096841F4803169
:1006D000064A116007E00549096841F4A021034A70
:1006E000116000E000BF00BF704700000010024032
:1006F00001460020034A506820F4E060084350603F
:10070000704700000010024001460020034A506874
:1007100020F4605040EAC100506070470010024071
:10072000014908667047000000004242024600206E
:10073000044B586820F47C1042EA01031843014B33
:10074000586070470010024001460020034A50687C
:1007500020F0030008435060704700000010024082
:1007600038B5002000900024002500BF3120FFF79D
:1007700067FF05460098401C00900098B0F5A06FF8
:1007800001D0002DF2D03120FFF75AFF08B101242B
:1007900000E00024204638BD10B5022000F00EF81D
:1007A000022000F003F800F025F810BD0249098886
:1007B0008143014A1180704704280040014600200F
:1007C000064A12880A40D0B2044A121F12880A4010
:1007D00012B108B1012000E0002070470428004059
:1007E00010B50120FFF7EAFF0120FFF7DFFF00F05F
:1007F00001F810BD00BF0348008800F02000002869
:10080000F9D0704704280040704710B500F002F896
:1008100010BD00000CB50020019000903348006826
:1008200040F480303149086000BF3048006800F46F
:10083000003000900198401C0190009818B9019870
:10084000B0F5A06FF1D12948006800F4003010B174
:100850000120009001E0002000900098012843D181
:100860002348006840F010002149086008460068ED
:1008700020F0030008600846006840F002000860AD
:100880001A48406819494860084640684860084668
:10089000406840F4806048600846406820F47C105E
:1008A00048600846406840F4E81048600846006820
:1008B00040F08070086000BF0C48006800F00070D5
:1008C0000028F9D00948406820F003000749486033
:1008D0000846406840F00200486000BF0348406896
:1008E00000F00C000828F9D10CBD000000100240F7
:1008F000002002407047000010B51348006840F027
:1009000001001149086008464068104908400E4936
:100910004860084600680E4908400B4908600846D0
:10092000006820F4802008600846406820F4FE003B
:1009300048604FF41F008860FFF767FF4FF00060CA
:100940000449086010BD0000001002400000FFF8DC
:10095000FFFFF6FE08ED00E010B540F225511F48FC
:1009600000F044F8002838D01C4800F069F8C4B200
:1009700021461BA0FFF72EFC1A48008800F4004017
:1009800058BB1848008800F4804060B10A2C03D09E
:1009900000201449088020E01248008840F40040FC
:1009A0001049088019E00D2C06D10E48008840F44B
:1009B00080400C49088010E00A480088C0F30D0010
:1009C00009490C5407480088401C0649088008461D
:1009D0000088C72801DD0020088010BD00380140D4
:1009E00025630000040000200800002070B50246C6
:1009F000002400230025002040F66A16B14200D1F1
:100A000000BFC1F3421501F01F03012606FA03F3EC
:100A1000012D02D19689334006E0022D02D1168ABB
:100A2000334001E0968A33400C12012606FA04F4A2
:100A30001688344013B10CB1012000E0002070BDD5
:100A400001468888C0F30800704700BFFEE70146F2
:100A500000BF704700BF054A128802F04002002A1A
:100A6000F9D0C2B2014B1B1D1A80704700380140FB
:100A7000FFF788FDFFF75CFDFFF748FD0DE0012162
:100A80000648FFF734FD20B101210548FFF738FD86
:100A900003E001210248FFF735FDF0E700080140BF
:100AA000000C0140C40A00080000002008000000FB
:100AB00028010008CC0A00080800002028070000D0
:0C0AC000440100080000000000000000DD
:04000005080000ED02
:00000001FF
