:020000040800F2
:100000006806002089010008330500082B05000858
:100010002F0500084302000809090008000000003D
:100020000000000000000000000000004106000881
:100030004702000800000000FD0500082D07000829
:10004000A3010008A3010008A3010008A301000800
:10005000A3010008A30100089102000801030008A1
:10006000A3010008A3010008A3010008A3010008E0
:10007000A3010008A3010008A3010008A3010008D0
:10008000A3010008A3010008A3010008A3010008C0
:10009000A3010008A3010008A3010008A3010008B0
:1000A000A3010008A3010008A3010008A3010008A0
:1000B000A3010008A3010008A3010008A301000890
:1000C000A3010008A3010008A3010008A301000880
:1000D000A3010008A3010008A3010008A301000870
:1000E000CD020008A3010008A301000800F002F8F7
:1000F00000F03AF80AA090E8000C82448344AAF188
:100100000107DA4501D100F02FF8AFF2090EBAE885
:100110000F0013F0010F18BFFB1A43F0010318473B
:100120005408000074080000103A24BF78C878C151
:10013000FAD8520724BF30C830C144BF04680C60ED
:10014000704700000023002400250026103A28BF35
:1001500078C1FBD8520728BF30C148BF0B60704739
:100160001FB51FBD10B510BD00F031F81146FFF7E7
:10017000F7FF00F0CBFB00F04FF803B4FFF7F2FFFE
:1001800003BC00F057F800000948804709480047C1
:10019000FEE7FEE7FEE7FEE7FEE7FEE7FEE7FEE737
:1001A000FEE7FEE704480549054A064B7047000094
:1001B00031070008ED0000086800002068060020F4
:1001C000680200206802002070477047704775463B
:1001D00000F02CF8AE4605006946534620F00700B3
:1001E000854618B020B5FFF7DDFFBDE820404FF091
:1001F00000064FF000074FF000084FF0000B21F011
:100200000701AC46ACE8C009ACE8C009ACE8C009DD
:10021000ACE8C0098D46704710B50446AFF30080C6
:100220002046BDE81040FFF7A8BF00000048704717
:100230000800002001491820ABBEFEE7260002009E
:10024000704700BFFEE7704700B5034603E04FF478
:100250007A7000F005F8181EA3F10103F7D100BD74
:1002600000EBC001C9004FF0E02251610021916113
:100270000521116100BF4FF0E021096901F48031CF
:100280000029F8D004214FF0E022116170470000EE
:1002900010B5012000F058F8012812D101210948B9
:1002A00000F03AF950B90221064800F035F928B9B2
:1002B00005480088401E00B203490880012000F074
:1002C0003DF810BD000C01400400002010B54FF4B3
:1002D000804000F039F801280DD18103064800F074
:1002E0001BF920B905480088401C044908804FF4D8
:1002F000804000F023F810BD000C014002000020F7
:1003000010B5022000F020F8012812D1022109487E
:1003100000F002F950B90121064800F0FDF828B9B3
:1003200005480088401C00B203490880022000F004
:1003300005F810BD000C01400400002001490860D0
:100340007047000014040140014600200022074BC2
:100350001B6803EA0102054B14331B680B4013B101
:100360000AB1012000E000207047000000040140B5
:100370002DE9F0410246002500260020002300243C
:10038000002791F803C00CF00F0591F803C00CF0A2
:10039000100CBCF1000F03D091F802C04CEA050527
:1003A00091F800C0BCF1000F31D0146800202BE0A0
:1003B0004FF0010C0CFA00F3B1F800C00CEA030690
:1003C0009E4220D183004FF00F0C0CFA03F7BC4380
:1003D00005FA03FC4CEA040491F803C0BCF1280FB1
:1003E00006D14FF0010C0CFA00FCC2F814C00AE070
:1003F00091F803C0BCF1480F05D14FF0010C0CFA85
:1004000000FCC2F810C0401C0828D1D31460B1F819
:1004100000C0BCF1FF0F34DD546800202EE000F175
:10042000080C4FF0010808FA0CF3B1F800C00CEA10
:1004300003069E4221D183004FF00F0C0CFA03F704
:10044000BC4305FA03FC4CEA040491F803C0BCF178
:10045000280F05D100F1080C08FA0CF8C2F8148036
:1004600091F803C0BCF1480F07D100F1080C4FF020
:10047000010808FA0CF8C2F81080401C0828CED3F6
:100480005460BDE8F0810000F0B50A460023002466
:100490000021002500F00046B6F1004F02D11D4EAC
:1004A000F16901E01B4E7168C0F3034583B200F4AB
:1004B0004016B6F5401F08D121F07061154E7668E0
:1004C00026F07066134F7E6012E000F48016B6F5D9
:1004D000801F06D1032606FA05F4A14341F070619E
:1004E00006E0460D360103FA06F6B14341F07061AD
:1004F00022B1460D360103FA06F6314300F00046FC
:10050000B6F1004F02D1034EF16101E0014E71607E
:10051000F0BD0000000001400246002093680B403F
:100520000BB1012000E00020704700BFFEE700BFD4
:10053000FEE7704700B589B00121084600F060F879
:100540000121042000F06CF80121084600F068F851
:1005500001212348FFF798FF01212248FFF794FF6C
:1005600018208DF823004FF40040ADF82000032040
:100570008DF8220008A91C48FFF7FAFE4FF08040D2
:1005800000F012F90020ADF81A00ADF81600632053
:10059000ADF8180040F2CF20ADF8140000208DF81F
:1005A0001C0005A94FF0804000F05CF901A800F0A4
:1005B0004DF96020ADF804000020ADF80C000120DA
:1005C000ADF806003220ADF80A0001A9400700F09E
:1005D000F1F80121880700F0DBF809B000BD000048
:1005E00000011800000230000008014010B5044668
:1005F00021464FF0804000F033F910BD70470000F5
:1006000029B1064AD2690243044BDA6104E0034A85
:10061000D2698243014BDA6170470000001002404A
:1006200029B1064A92690243044B9A6104E0034AE5
:1006300092698243014B9A617047000000100240AA
:10064000704710B500F002F810BD00000CB5002096
:10065000019000903348006840F4803031490860D0
:1006600000BF3048006800F4003000900198401C42
:100670000190009818B90198B0F5A06FF1D1294800
:10068000006800F4003010B10120009001E000206B
:1006900000900098012843D12348006840F01000E2
:1006A000214908600846006820F0030008600846F9
:1006B000006840F0020008601A4840681949486024
:1006C0000846406848600846406840F480604860DA
:1006D0000846406820F47C1048600846406840F4B2
:1006E000E81048600846006840F08070086000BF6D
:1006F0000C48006800F000700028F9D009484068F4
:1007000020F00300074948600846406840F00200B6
:10071000486000BF0348406800F00C000828F9D189
:100720000CBD000000100240002002407047000095
:1007300010B51348006840F00100114908600846F0
:100740004068104908400E494860084600680E4954
:1007500008400B4908600846006820F480200860C3
:100760000846406820F4FE0048604FF41F0088608F
:10077000FFF767FF4FF000600449086010BD0000FC
:10078000001002400000FFF8FFFFF6FE08ED00E059
:1007900021B1028842F00102028004E002884FF693
:1007A000FE731A400280704701894FF6F8721140BB
:1007B0000181704770B5002400220023058C4FF69C
:1007C000FE7635400584028C8388048B4FF68F7546
:1007D0002C40B51E2C400D882C43751E2A400D89D7
:1007E0002A434D882A43144DA8420BD0134DA842EA
:1007F00008D0134DA84205D0124DA84202D0124D88
:10080000A84213D14FF6F7752A404D892A434FF677
:10081000FB752A408D882A434FF6FF652B404FF623
:10082000FF552B408D892B43CD892B438380048337
:10083000CD888586028470BD002C014000340140C3
:100840000040014000440140004801400021018077
:1008500041808180C180018141818181C181704756
:1008600081867047002202881D4B98420ED01D4B96
:1008700098420BD0B0F1804F08D01B4B984205D066
:100880001A4B984202D01A4B984204D14FF68F73FC
:100890001A404B881A43174B984207D0164B984280
:1008A00004D04FF6FF431A40CB881A4302808B884E
:1008B00083850B8803850A4B98420BD0094B9842DD
:1008C00008D00E4B984205D00D4B984202D00D4BEC
:1008D000984201D10B7A038601238382704700007E
:1008E000002C01400034014000040040000800409A
:1008F000000C004000100040001400400040014087
:10090000004401400048014000BFFEE7FFF712FE2F
:100910000020FFF76BFE2AE00020154908700BE06D
:1009200013480078FFF762FE0F20FFF78DFC104898
:100930000078401C0E4908700D4800786428EFDDEF
:1009400000200B4908700EE009490978C1F16401E3
:1009500088B2FFF74BFE0F20FFF776FC04480078C3
:10096000401C03490870024800786428ECDDD3E796
:10097000000000209409000800000020080000008A
:10098000280100089C0900080800002060060000FB
:0C0990004401000800000000000000000E
:04000005080000ED02
:00000001FF
