:020000040800F2
:10000000600600206D01000865040008290400084E
:1000100061040008A7020008ED08000800000000C5
:10002000000000000000000000000000A106000821
:10003000AB020008000000007F06000889080008E5
:100040008701000887010008870100088701000870
:100050008701000887010008870100088701000860
:100060008701000887010008870100088701000850
:100070008701000887010008870100088701000840
:100080008701000887010008870100088701000830
:100090008701000887010008870100088701000820
:1000A0008701000887010008870100088701000810
:1000B0008701000887010008870100088701000800
:1000C00087010008870100088701000887010008F0
:1000D00087010008870100088701000887010008E0
:1000E00087010008870100088701000800F002F876
:1000F00000F02CF80AA090E8000C82448344AAF196
:100100000107DA4501D100F021F8AFF2090EBAE893
:100110000F0013F0010F18BFFB1A43F0010318473B
:100120008411000094110000002300240025002603
:10013000103A28BF78C1FBD8520728BF30C148BF4A
:100140000B6070471FB51FBD10B510BD00F071F8F2
:100150001146FFF7F7FF00F0CBFB00F08FF803B478
:10016000FFF7F2FF03BC00F097F800000948804752
:1001700009480047FEE7FEE7FEE7FEE7FEE7FEE789
:10018000FEE7FEE7FEE7FEE704480549054A064BA1
:10019000704700008D080008ED0000086000002096
:1001A0006006002060020020600200204FF0013C49
:1001B00050F8042B51F8043B9A4221D1A2EB0C03D6
:1001C000934313EACC1317D150F8042B51F8043B96
:1001D0009A4215D1A2EB0C03934313EACC130BD133
:1001E00050F8042B51F8043B9A4209D1A2EB0C03BE
:1001F000934313EACC13DBD04FF00000704700BFED
:10020000D01A01BAB1FA81F101F0180122FA01F015
:10021000CB40C1F12001DBB2C0B2C01A2CFA01F30D
:10022000D11A914311EAC311E6D170477047704764
:100230007047754600F02CF8AE46050069465346F7
:1002400020F00700854618B020B5FFF79DFFBDE8F8
:1002500020404FF000064FF000074FF000084FF02D
:10026000000B21F00701AC46ACE8C009ACE8C009BE
:10027000ACE8C009ACE8C0098D46704710B504462B
:10028000AFF300802046BDE81040FFF768BF0000D4
:10029000004870470000002001491820ABBEFEE76F
:1002A00026000200704700BFFEE7704700B5034616
:1002B00003E04FF47A7000F005F8181EA3F1010373
:1002C000F7D100BD00EBC001C9004FF0E022516141
:1002D000002191610521116100BF4FF0E021096902
:1002E00001F480310029F8D004214FF0E02211619F
:1002F00070472DE9F041024600250026002000232A
:100300000024002791F803C00CF00F0591F803C0FA
:100310000CF0100CBCF1000F03D091F802C04CEAB5
:10032000050591F800C0BCF1000F31D01468002021
:100330002BE04FF0010C0CFA00F3B1F800C00CEA0E
:1003400003069E4220D183004FF00F0C0CFA03F7F6
:10035000BC4305FA03FC4CEA040491F803C0BCF169
:10036000280F06D14FF0010C0CFA00FCC2F814C0A3
:100370000AE091F803C0BCF1480F05D14FF0010C21
:100380000CFA00FCC2F810C0401C0828D1D314603D
:10039000B1F800C0BCF1FF0F34DD546800202EE03E
:1003A00000F1080C4FF0010808FA0CF3B1F800C096
:1003B0000CEA03069E4221D183004FF00F0C0CFA89
:1003C00003F7BC4305FA03FC4CEA040491F803C0AC
:1003D000BCF1280F05D100F1080C08FA0CF8C2F89E
:1003E000148091F803C0BCF1480F07D100F1080C4C
:1003F0004FF0010808FA0CF8C2F81080401C0828D9
:10040000CED35460BDE8F0810246002093680B40D3
:100410000BB1012000E000207047016170470AB174
:10042000016100E04161704700BFFEE708B50121AE
:10043000042000F025F914208DF803000620ADF803
:10044000000003208DF8020069460448FFF751FFC1
:1004500006210248FFF7E1FF08BD00000008014047
:1004600000BFFEE7704770B500240EE02146002073
:1004700000F059F8002504E0002000F0EAF8681CBC
:10048000C5B2802DF8DB601CC4B2082CEEDB70BD59
:1004900010B500F07BF96420FFF708FFAE2000F0F4
:1004A000C2F8D52000F0BFF8802000F0BCF8D320BF
:1004B00000F0B9F8002000F0B6F8402000F0B3F8E2
:1004C000A12000F0B0F8C82000F0ADF8DA2000F06C
:1004D000AAF8122000F0A7F8812000F0A4F8CF209D
:1004E00000F0A1F8D92000F09EF8F12000F09BF870
:1004F000DB2000F098F8302000F095F8A42000F000
:1005000092F8A62000F08FF88D2000F08CF81420CF
:1005100000F089F8AF2000F086F86420FFF7C6FEEF
:10052000FFF7A1FF10BD70B504460D4604F00F00A3
:1005300000F079F8102141EA141000F074F845F049
:10054000B00000F070F870BD2DE9FC478046894688
:10055000164600200190002700253AE0705D01A9B1
:10056000C855781CC7B2022F31DB002700240CE0ED
:10057000C4EBC40101EB8101184A881801A9FFF7F7
:1005800015FE00B90CE0601CC4B2C4EBC40101EB61
:100590008101124A881812A1FFF708FE0028E7D14E
:1005A00000BFC4EBC40000EB80000C490844C01C31
:1005B00005F1010A0AEBDA714910491E08EB011135
:1005C0000090C8B202231022494600F00BF8681CC4
:1005D000C5B2705D0028C1D1BDE8FC874611000896
:1005E000000000002DE9F04781460F461546984669
:1005F000DDF820A0002412E03819C1B24846FFF708
:1006000092FF002607E005FB04611AF8010000F0E4
:1006100020F8701CC6B2AE42F5DB601CC4B2444583
:10062000EADBBDE8F08710B5044600F0FBF878205F
:1006300000F0E3F800F0D2F8002000F0DEF800F05F
:10064000CDF8204600F0D9F800F0C8F800F0F8F82E
:1006500010BD10B5044600F0E5F8782000F0CDF8A4
:1006600000F0BCF8402000F0C8F800F0B7F82046D1
:1006700000F0C3F800F0B2F800F0E2F810BD7047E7
:1006800029B1064A92690243044B9A6104E0034A85
:1006900092698243014B9A6170470000001002404A
:1006A000704710B500F002F810BD00000CB5002036
:1006B000019000903348006840F480303149086070
:1006C00000BF3048006800F4003000900198401CE2
:1006D0000190009818B90198B0F5A06FF1D12948A0
:1006E000006800F4003010B10120009001E000200B
:1006F00000900098012843D12348006840F0100082
:10070000214908600846006820F003000860084698
:10071000006840F0020008601A48406819494860C3
:100720000846406848600846406840F48060486079
:100730000846406820F47C1048600846406840F451
:10074000E81048600846006840F08070086000BF0C
:100750000C48006800F000700028F9D00948406893
:1007600020F00300074948600846406840F0020056
:10077000486000BF0348406800F00C000828F9D129
:100780000CBD0000001002400020024008B501210D
:100790000820FFF775FF14208DF803004FF4407018
:1007A000ADF8000003208DF8020069460448FFF709
:1007B000A0FD012000F05CF8012000F04DF808BD1C
:1007C000000C014010B54FF400710348FFF71CFE08
:1007D0000446204610BD0000000C014010B5012069
:1007E00000F046F8012000F037F8FFF7EBFF044671
:1007F000002000F031F8204610BD70B505460024F9
:100800000DE005FA04F1C1F3C01000F031F8012049
:1008100000F022F8002000F01FF8601CC4B2082C81
:10082000EFDB70BD10B5012000F022F8012000F0D0
:1008300013F8002000F01CF8002000F00DF810BDA7
:1008400010B5002000F014F8012000F005F8012098
:1008500000F00EF810BD000010B5044622464FF41B
:1008600080710248FFF7DBFD10BD0000000C014065
:1008700010B5044622464FF400710248FFF7CFFD41
:1008800010BD0000000C01407047000010B5134877
:10089000006840F0010011490860084640681049AE
:1008A00008400E494860084600680E4908400B4958
:1008B00008600846006820F4802008600846406808
:1008C00020F4FE0048604FF41F008860FFF7E9FE47
:1008D0004FF000600449086010BD000000100240A5
:1008E0000000FFF8FFFFF6FE08ED00E000BFFEE7A6
:1008F000FFF79CFDFFF7CCFD03A200210846FFF7A0
:1009000023FE00BFFEE70000C4E3BAC3A3ACD5C515
:10091000E6C3E6C3A3ACB0A10000000000000000E5
:10092000000000000000000000000000000000F8CF
:1009300000000000000000333000000000160E0030
:10094000160E0000000000000000000040C07840CB
:10095000C0784000043F04043F040400007088FC99
:1009600008300000001820FF211E0000F008F000F1
:10097000E018000000211C031E211E0000F0088862
:10098000700000001E2123241927211000000016EA
:100990000E0000000000000000000000000000E069
:1009A000180402000000000718204000000204188C
:1009B000E00000000040201807000000404080F0E8
:1009C000804040000202010F01020200000000F01E
:1009D000000000000101011F0101010000000000F2
:1009E0000000000000B070000000000000000000E7
:1009F00000000000000101010101010100000000F0
:100A00000000000000303000000000000000000086
:100A100080601804006018060100000000E0100863
:100A20000810E000000F102020100F00001010F838
:100A3000000000000020203F202000000070080877
:100A400008887000003028242221300000300888F7
:100A5000884830000018202020110E000000C0201F
:100A600010F8000000070424243F240000F8088840
:100A7000880808000019212020110E0000E01088CD
:100A800088180000000F112020110E0000380808FF
:100A9000C83808000000003F00000000007088080F
:100AA00008887000001C222121221C0000E0100890
:100AB0000810E0000000312222110F00000000C0E9
:100AC000C00000000000003030000000000000C046
:100AD000C0000000000080B07000000000008040F6
:100AE000201008000001020408102000404040408F
:100AF00040404000040404040404040000081020E2
:100B00004080000000201008040201000070480826
:100B10000808F0000000003036010000C030C8288E
:100B2000E810E0000718272423140B000000C03849
:100B3000E0000000203C23020227382008F88888C3
:100B400088700000203F202020110E00C0300808CF
:100B500008083800071820202010080008F80808A6
:100B60000810E000203F202020100F0008F888889F
:100B7000E8081000203F20202320180008F888886B
:100B8000E8081000203F200003000000C0300808E3
:100B90000838000007182020221E020008F808006C
:100BA0000008F808203F210101213F20000808F833
:100BB000080800000020203F202000000000080856
:100BC000F8080800C08080807F00000008F888C016
:100BD00028180800203F20012638200008F80800C7
:100BE00000000000203F20202020300008F8F800FE
:100BF000F8F80800203F003F003F200008F830C010
:100C00000008F808203F200007183F00E0100808FF
:100C10000810E0000F10202020100F0008F808082E
:100C20000808F000203F210101010000E010080841
:100C30000810E0000F18242438504F0008F8888866
:100C400088887000203F2000030C30200070880846
:100C5000080838000038202121221C00180808F854
:100C6000080818000000203F2000000008F80800D5
:100C70000008F808001F202020201F0008788800A6
:100C800000C83808000007380E010000F80800F816
:100C90000008F800033C0700073C030008186880C0
:100CA0008068180820302C03032C30200838C80036
:100CB000C83808000000203F200000001008080885
:100CC000C83808002038262120201800000000FE27
:100CD000020202000000007F40404000000C30C0D3
:100CE00000000000000000010638C00000020202FF
:100CF000FE000000004040407F000000002010087F
:100D000004081020000000000000000000000000A7
:100D100000000000808080808080808000020408C5
:100D200000000000000000000000000000008080C3
:100D3000808000000019242222223F2008F8008031
:100D400080000000003F112020110E0000000080F4
:100D500080800000000E1120202011000000008083
:100D60008088F800000E112020103F2000008080B5
:100D700080800000001F222222221300008080F0C9
:100D8000888888180020203F2020000000008080F4
:100D900080808000006B94949493600008F8008039
:100DA00080800000203F210000203F200080989894
:100DB000000000000020203F2020000000000080F4
:100DC0009898000000C08080807F000008F8000034
:100DD00080808000203F24022D302000000808F889
:100DE000000000000020203F202000008080808044
:100DF00080808000203F20003F20003F0080800056
:100E00008080000000203F2100203F2000008080E3
:100E100080800000001F202020201F008080008094
:100E20008000000080FFA12020110E000000008043
:100E300080808000000E112020A0FF808080800034
:100E40008080800020203F21200001000000808061
:100E5000808080000033242424241900008080E056
:100E6000808000000000001F202000008080000023
:100E700000808000001F202020103F208080800004
:100E80000080808000010E30080601008080008014
:100E9000008080800F300C030C300F000080800039
:100EA000808080000020312E0E3120008080800064
:100EB0000080808080818E70180601000080808014
:100EC000808080000021302C2221300000000000B2
:100ED000807C020200000000003F40400000000053
:100EE000FF00000000000000FF0000000002027C84
:100EF000800000000040403F0000000000804040B3
:100F000080000080000000000001010000000000DF
:100F100000000000002F0000000007000700001480
:100F20007F147F1400242A7F2A120023130864628E
:100F300000364955225000000007000000001C2226
:100F40004100000041221C000014083E0814000863
:100F5000083E0808000000A0600000080808080813
:100F6000000060600000002010080402003E5149AB
:100F7000453E0000427F4000004261514946002149
:100F800041454B31001814127F1000274545453963
:100F9000003C4A49493000017109050300364949BE
:100FA000493600064949291E000036360000000077
:100FB00056360000000814224100001414141414C2
:100FC000000041221408000201510906003E495563
:100FD000592E007C1211127C007F49494936003E8F
:100FE00041414122007F4141221C007F4949494142
:100FF000007F09090901003E4149497A007F08083C
:10100000087F0000417F4100002040413F01007FF8
:1010100008142241007F40404040007F020C027FC4
:10102000007F0408107F003E4141413E007F0909D6
:101030000906003E4151215E007F091929460046FC
:10104000494949310001017F0101003F4040403FD3
:10105000001F2040201F003F4038403F006314081D
:1010600014630007087008070061514945430000F8
:101070007F414100000204081020000041417F0030
:101080000004020102040040404040400000010210
:101090000400002054545478007F484444380038F9
:1010A0004444442000384444487F00385454541881
:1010B00000087E0901020018A4A4A47C007F080493
:1010C00004780000447D4000004080847D00007F63
:1010D000102844000000417F4000007C0418047880
:1010E000007C0804047800384444443800FC24247C
:1010F00024180018242418FC007C08040408004864
:101100005454542000043F444020003C4040207C84
:10111000001C2040201C003C4030403C0044281073
:101120002844001CA0A0A07C004464544C4400004F
:10113000087F41000000007F00000000417F0800A0
:10114000000804081008A3AC000000000000000024
:1011500000000000000000000000005838000000FF
:10116000000000000000000000A1A300000000003B
:101170000000000000000000000000000000182433
:10118000241800000000000000000000C4E300007C
:101190008060F8074020180F08C8080828180001C8
:1011A0000000FF00100C0340807F0001061800BA09
:1011B000C3001010F01F10F000808282E2928A8635
:1011C0008000402215081661000040807F0000006A
:1011D0000000CAC000202020FE2020FF202020FF89
:1011E00020202020000000007F4040474444444726
:1011F0004040400000BDE700000000FE929292FED9
:10120000929292FE0000000008080484621E010011
:1012100001FE020404080800D5C50002E222223EB5
:101220008080FF80A0908886808000004382423EBC
:101230000000FF4021060810204000E6C300101007
:10124000F01F10F004745455565454740400402296
:1012500015081661030545857D0505050300000099
:1012600000FF010101310909090989710101010129
:10127000FFFF808080808080968180808080808059
:10128000FFFF01818181FD8991A1C1FD81818101E2
:10129000FFFF808080809F888482819F8080808003
:1012A000FF000000B41200080000002060060000EB
:0412B0002801000809
:04000005080000ED02
:00000001FF
