:020000040800F2
:10000000600A00206D010008E5030008A90300084C
:10001000E10300082702000885090008000000002D
:100020000000000000000000000000003907000888
:100030002B02000800000000170700082109000833
:100040008701000887010008870100088701000870
:100050008701000887010008870100088701000860
:100060008701000887010008870100088701000850
:100070008701000887010008870100088701000840
:100080008701000887010008870100088701000830
:100090008701000887010008870100088701000820
:1000A0008701000887010008870100088701000810
:1000B0008701000887010008870100088701000800
:1000C00087010008870100088701000887010008F0
:1000D00087010008870100088701000887010008E0
:1000E00087010008870100088701000800F002F876
:1000F00000F02CF80AA090E8000C82448344AAF196
:100100000107DA4501D100F021F8AFF2090EBAE893
:100110000F0013F0010F18BFFB1A43F0010318473B
:1001200034120000441200000023002400250026A1
:10013000103A28BF78C1FBD8520728BF30C148BF4A
:100140000B6070471FB51FBD10B510BD00F031F832
:100150001146FFF7F7FF00F017FC00F04FF803B46B
:10016000FFF7F2FF03BC00F057F800000948804792
:1001700009480047FEE7FEE7FEE7FEE7FEE7FEE789
:10018000FEE7FEE7FEE7FEE704480549054A064BA1
:100190007047000025090008ED00000860040020F9
:1001A000600A00206006002060060020704770474B
:1001B0007047754600F02CF8AE4605006946534678
:1001C00020F00700854618B020B5FFF7DDFFBDE839
:1001D00020404FF000064FF000074FF000084FF0AE
:1001E000000B21F00701AC46ACE8C009ACE8C0093F
:1001F000ACE8C009ACE8C0098D46704710B50446AC
:10020000AFF300802046BDE81040FFF7A8BF000014
:10021000004870470004002001491820ABBEFEE7EB
:1002200026000200704700BFFEE7704700B5034696
:1002300003E04FF47A7000F005F8181EA3F10103F3
:10024000F7D100BD00EBC001C9004FF0E0225161C1
:10025000002191610521116100BF4FF0E021096982
:1002600001F480310029F8D004214FF0E02211611F
:1002700070472DE9F04102460025002600200023AA
:100280000024002791F803C00CF00F0591F803C07B
:100290000CF0100CBCF1000F03D091F802C04CEA36
:1002A000050591F800C0BCF1000F31D014680020A2
:1002B0002BE04FF0010C0CFA00F3B1F800C00CEA8F
:1002C00003069E4220D183004FF00F0C0CFA03F777
:1002D000BC4305FA03FC4CEA040491F803C0BCF1EA
:1002E000280F06D14FF0010C0CFA00FCC2F814C024
:1002F0000AE091F803C0BCF1480F05D14FF0010CA2
:100300000CFA00FCC2F810C0401C0828D1D31460BD
:10031000B1F800C0BCF1FF0F34DD546800202EE0BE
:1003200000F1080C4FF0010808FA0CF3B1F800C016
:100330000CEA03069E4221D183004FF00F0C0CFA09
:1003400003F7BC4305FA03FC4CEA040491F803C02C
:10035000BCF1280F05D100F1080C08FA0CF8C2F81E
:10036000148091F803C0BCF1480F07D100F1080CCC
:100370004FF0010808FA0CF8C2F81080401C082859
:10038000CED35460BDE8F0810246002093680B4054
:100390000BB1012000E000207047016170470AB1F5
:1003A000016100E04161704700BFFEE708B501212F
:1003B000042000F0B1F914208DF803000620ADF8F8
:1003C000000003208DF8020069460448FFF751FF42
:1003D00006210248FFF7E1FF08BD000000080140C8
:1003E00000BFFEE77047000000200CE0002106E09F
:1003F0000022064B03EBC0135A544A1CD1B2802989
:10040000F6DB411CC8B20828F0DB70470000002072
:100410002DE9F04304460D4616461F46284630E0B7
:10042000234629E04FEAE07C00EB5C7C4FEAEC0CD1
:10043000DFF8588008EBCC1C1CF803C002464FEADA
:10044000E07800EB58784FEAE808A0EBC8094FF0D5
:10045000010808FA09F82CEA080C01464FEAE0788E
:1004600000EB58784FEAE808DFF8209009EBC8184D
:1004700008F803C0591CCBB2A1199942D2DC411C27
:10048000C8B2E9198142CBDCBDE8F083000000204E
:1004900010B500F0C7F96420FFF7C8FEAE2000F0E9
:1004A00007F9D52000F004F9802000F001F9D320ED
:1004B00000F0FEF8002000F0FBF8402000F0F8F813
:1004C000A12000F0F5F8C82000F0F2F8DA2000F0E2
:1004D000EFF8122000F0ECF8812000F0E9F8CF20CE
:1004E00000F0E6F8D92000F0E3F8F12000F0E0F8A1
:1004F000DB2000F0DDF8302000F0DAF8A42000F076
:10050000D7F8A62000F0D4F88D2000F0D1F8142000
:1005100000F0CEF8AF2000F0CBF86420FFF786FEA5
:10052000FFF762FF10BD70B504460D4604F00F00E2
:1005300000F0BEF8102141EA141000F0B9F845F0BF
:10054000B00000F0B5F870BDF8B506460F46144689
:100550001D46082D0CD1A4F120000E4901EB00101E
:100560001023082239460090304600F017F80FE0BB
:10057000062D0DD1A4F1200000EB4000064901EB4F
:1005800040000823062239460090304600F006F865
:10059000F8BD0000B0090008A00F00082DE9F047E1
:1005A00007460C4690469946DDF820A04B46424649
:1005B00021463846FFF72CFF002657E0002551E082
:1005C0002046E21704EB527206EBE2022D4B03EBDE
:1005D000C2127B19D25C2146E31704EB5373DB1084
:1005E000A4EBC30306FB085C1AF80CC00CFA03FC6E
:1005F00042EA0C02E31704EB537306EBE303DFF864
:1006000084C00CEBC31307EB050C03F80C20E217B6
:1006100004EB527206EBE202521C1A4B03EBC212BD
:100620007B19D25CE31704EB5373DB10A4EBC30319
:10063000C3F1080306FB085C1AF80CC04CFA03FC73
:1006400042EA0C02E31704EB537306EBE3035B1C73
:10065000DFF830C00CEBC31307EB050C03F80C20DC
:10066000681CC5B24545ABDB701CC6B2A9F10100E0
:10067000C11700EB5171012202EBE101B1429DDC97
:10068000BDE8F0870000002010B500240BE02146F3
:100690000020FFF748FF054901EBC410802100F05E
:1006A0001DF8601CC4B2082CF1DB10BD0000002056
:1006B00010B5044600F002F9782000F0EAF800F0E6
:1006C000D9F8002000F0E5F800F0D4F8204600F05A
:1006D000E0F800F0CFF800F0FFF810BD70B5054667
:1006E0000E4600F0EBF8782000F0D3F800F0C2F8E6
:1006F000402000F0CEF800F0BDF8002406E0285DB0
:1007000000F0C7F800F0B6F8601CC4B2B442F6DBE3
:1007100000F0E2F870BD704729B1064A92690243C1
:10072000044B9A6104E0034A92698243014B9A6147
:100730007047000000100240704710B500F002F84A
:1007400010BD00000CB500200190009033480068F7
:1007500040F480303149086000BF3048006800F440
:10076000003000900198401C0190009818B9019841
:10077000B0F5A06FF1D12948006800F4003010B145
:100780000120009001E0002000900098012843D152
:100790002348006840F010002149086008460068BE
:1007A00020F0030008600846006840F0020008607E
:1007B0001A48406819494860084640684860084639
:1007C000406840F4806048600846406820F47C102F
:1007D00048600846406840F4E810486008460068F1
:1007E00040F08070086000BF0C48006800F00070A6
:1007F0000028F9D00948406820F003000749486004
:100800000846406840F00200486000BF0348406866
:1008100000F00C000828F9D10CBD000000100240C7
:100820000020024008B501210820FFF775FF1420C1
:100830008DF803004FF44070ADF8000003208DF8F0
:10084000020069460448FFF714FD012000F05CF83F
:10085000012000F04DF808BD000C014010B54FF428
:1008600000710348FFF790FD0446204610BD0000CC
:10087000000C014010B5012000F046F8012000F006
:1008800037F8FFF7EBFF0446002000F031F8204670
:1008900010BD70B5054600240DE005FA04F1C1F362
:1008A000C01000F031F8012000F022F8002000F024
:1008B0001FF8601CC4B2082CEFDB70BD10B501201E
:1008C00000F022F8012000F013F8002000F01CF8DE
:1008D000002000F00DF810BD10B5002000F014F855
:1008E000012000F005F8012000F00EF810BD000016
:1008F00010B5044622464FF480710248FFF74FFDC1
:1009000010BD0000000C014010B5044622464FF413
:1009100000710248FFF743FD10BD0000000C0140CC
:100920007047000010B51348006840F001001149FD
:10093000086008464068104908400E49486008466B
:1009400000680E4908400B4908600846006820F41A
:10095000802008600846406820F4FE0048604FF49C
:100960001F008860FFF7E9FE4FF00060044908604F
:1009700010BD0000001002400000FFF8FFFFF6FE6F
:1009800008ED00E000BFFEE7FFF710FDFFF780FD78
:100990000823412207210846FFF7D6FD08234222FB
:1009A00007210846FFF7D0FDFFF76EFE00BFFEE708
:1009B0000000000000000000000000000000000037
:1009C000000000F8000000000000003330000000CC
:1009D00000160E00160E00000000000000000000CF
:1009E00040C07840C0784000043F04043F04040045
:1009F000007088FC08300000001820FF211E000055
:100A0000F008F000E018000000211C031E211E0069
:100A100000F00888700000001E21232419272110EF
:100A2000000000160E0000000000000000000000A2
:100A3000000000E018040200000000071820400039
:100A400000020418E0000000004020180700000029
:100A5000404080F0804040000202010F010202008D
:100A6000000000F0000000000101011F0101010071
:100A7000000000000000000000B070000000000056
:100A8000000000000000000000010101010101015F
:100A900000000000000000000030300000000000F6
:100AA00000000000806018040060180601000000CB
:100AB00000E010080810E000000F102020100F00C8
:100AC000001010F8000000000020203F202000004F
:100AD00000700808088870000030282422213000A7
:100AE00000300888884830000018202020110E00AF
:100AF0000000C02010F8000000070424243F240058
:100B000000F80888880808000019212020110E002C
:100B100000E0108888180000000F112020110E003E
:100B200000380808C83808000000003F0000000036
:100B30000070880808887000001C222121221C00F7
:100B400000E010080810E0000000312222110F0020
:100B5000000000C0C00000000000003030000000B5
:100B6000000000C0C0000000000080B07000000065
:100B7000000080402010080000010204081020003E
:100B80004040404040404000040404040404040089
:100B9000000810204080000000201008040201001E
:100BA000007048080808F00000000030360100001E
:100BB000C030C828E810E0000718272423140B00D1
:100BC0000000C038E0000000203C2302022738204B
:100BD00008F8888888700000203F202020110E002F
:100BE000C030080808083800071820202010080026
:100BF00008F808080810E000203F202020100F000F
:100C000008F88888E8081000203F202023201800DA
:100C100008F88888E8081000203F20000300000042
:100C2000C03008080838000007182020221E0200E3
:100C300008F808000008F808203F210101213F20A2
:100C4000000808F8080800000020203F20200000CD
:100C500000000808F8080800C08080807F000000BD
:100C600008F888C028180800203F200126382000F6
:100C700008F8080000000000203F2020202030005D
:100C800008F8F800F8F80800203F003F003F200077
:100C900008F830C00008F808203F200007183F007F
:100CA000E01008080810E0000F10202020100F00AE
:100CB00008F808080808F000203F210101010000A1
:100CC000E01008080810E0000F18242438504F00E6
:100CD00008F8888888887000203F2000030C3020A6
:100CE00000708808080838000038202121221C00E4
:100CF000180808F8080818000000203F200000002D
:100D000008F808000008F808001F202020201F0015
:100D10000878880000C83808000007380E01000075
:100D2000F80800F80008F800033C0700073C03003F
:100D3000081868808068180820302C03032C3020A5
:100D40000838C800C83808000000203F2000000014
:100D500010080808C838080020382621202018006C
:100D6000000000FE020202000000007F4040400040
:100D7000000C30C000000000000000010638C00078
:100D800000020202FE000000004040407F00000020
:100D900000201008040810200000000000000000DF
:100DA0000000000000000000808080808080808043
:100DB0000002040800000000000000000000000025
:100DC00000008080808000000019242222223F2021
:100DD00008F8008080000000003F112020110E0064
:100DE0000000008080800000000E112020201100F3
:100DF000000000808088F800000E112020103F20A5
:100E00000000808080800000001F22222222130028
:100E1000008080F0888888180020203F2020000073
:100E20000000808080808000006B94949493600028
:100E300008F8008080800000203F210000203F2033
:100E400000809898000000000020203F2020000033
:100E5000000000809898000000C08080807F000023
:100E600008F8000080808000203F24022D30200000
:100E7000000808F8000000000020203F20200000AB
:100E80008080808080808000203F20003F20003FC5
:100E9000008080008080000000203F2100203F2053
:100EA0000000808080800000001F202020201F0084
:100EB000808000808000000080FFA12020110E00B3
:100EC0000000008080808000000E112020A0FF80A4
:100ED000808080008080800020203F212000010051
:100EE00000008080808080000033242424241900A6
:100EF000008080E0808000000000001F20200000B3
:100F00008080000000808000001F202020103F20F3
:100F1000808080000080808000010E300806010083
:100F200080800080008080800F300C030C300F0028
:100F300000808000808080000020312E0E31200053
:100F4000808080000080808080818E701806010083
:100F500000808080808080000021302C22213000A1
:100F600000000000807C020200000000003F4040C2
:100F700000000000FF00000000000000FF00000073
:100F80000002027C800000000040403F00000000A2
:100F9000008040408000008000000000000101004F
:100FA0000000000000000000002F0000000007000B
:100FB000070000147F147F1400242A7F2A120023C4
:100FC00013086462003649552250000000070000F3
:100FD00000001C224100000041221C000014083EB9
:100FE00008140008083E0808000000A0600000087F
:100FF00008080808000060600000002010080402D3
:10100000003E5149453E0000427F40000042615190
:101010004946002141454B31001814127F1000272A
:1010200045454539003C4A494930000171090503ED
:1010300000364949493600064949291E000036361E
:101040000000000056360000000814224100001481
:10105000141414140000412214080002015109065E
:10106000003E4955592E007C1211127C007F4949DF
:101070004936003E41414122007F4141221C007F10
:1010800049494941007F09090901003E4149497A1E
:10109000007F0808087F0000417F41000020404198
:1010A0003F01007F08142241007F40404040007F04
:1010B000020C027F007F0408107F003E4141413E48
:1010C000007F09090906003E4151215E007F091990
:1010D00029460046494949310001017F0101003F8D
:1010E0004040403F001F2040201F003F4038403F0D
:1010F0000063140814630007087008070061514971
:10110000454300007F414100000204081020000018
:1011100041417F0000040201020400404040404081
:10112000000001020400002054545478007F484419
:10113000443800384444442000384444487F003850
:101140005454541800087E0901020018A4A4A47C79
:10115000007F080404780000447D40000040808443
:101160007D00007F102844000000417F4000007C8B
:1011700004180478007C0804047800384444443897
:1011800000FC242424180018242418FC007C0804E3
:10119000040800485454542000043F444020003CBC
:1011A0004040207C001C2040201C003C4030403C43
:1011B000004428102844001CA0A0A07C00446454D3
:1011C0004C440000087F41000000007F0000000048
:1011D000417F0800000804081008A3AC00000000CC
:1011E00000000000000000000000000000000058A7
:1011F00038000000000000000000000000A1A30073
:1012000000000000000000000000000000000000DE
:101210000000182424180000000000000000000056
:10122000C4E300008060F8074020180F08C80808D1
:10123000281800010000FF00100C0340807F00010F
:10124000061800BAC3001010F01F10F00080828250
:10125000E2928A86800040221508166100004080D4
:101260007F0000000000CAC000202020FE2020FFD8
:10127000202020FF20202020000000007F40404749
:10128000444444474040400000BDE700000000FEE9
:10129000929292FE929292FE00000000080804844E
:1012A000621E010001FE020404080800D5C5000208
:1012B000E222223E8080FF80A0908886808000000D
:1012C0004382423E0000FF4021060810204000E615
:1012D000C3001010F01F10F0047454555654547489
:1012E0000400402215081661030545857D050505A6
:1012F0000300000000FF010101310909090989719A
:1013000001010101FFFF80808080808096818080C4
:1013100080808080FFFF01818181FD8991A1C1FDD5
:1013200081818101FFFF808080809F888482819FEE
:1013300080808080FFFF01E1114925450545254951
:1013400011E101FF7F4043444851525252514844F9
:1013500043407F006413000800000020600A000082
:041360002801000858
:04000005080000ED02
:00000001FF
