:020000040800F2
:10000000600600206D010008C3040008D703000843
:10001000C10400082702000859060008000000007B
:10002000000000000000000000000000590500086A
:1000300029020008000000003D0500080506000830
:100040008701000887010008870100088701000870
:100050008701000887010008870100085502000891
:100060008701000887010008870100088701000850
:100070008701000887010008870100088701000840
:100080008701000887010008870100088701000830
:100090008701000887010008870100088701000820
:1000A0008701000887010008870100088701000810
:1000B0008701000887010008870100088701000800
:1000C00087010008870100088701000887010008F0
:1000D00087010008870100088701000887010008E0
:1000E0002D020008870100088701000800F002F8CF
:1000F00000F02CF80AA090E8000C82448344AAF196
:100100000107DA4501D100F021F8AFF2090EBAE893
:100110000F0013F0010F18BFFB1A43F0010318473B
:10012000440500005405000000230024002500269B
:10013000103A28BF78C1FBD8520728BF30C148BF4A
:100140000B6070471FB51FBD10B510BD00F031F832
:100150001146FFF7F7FF00F080FA00F04FF803B404
:10016000FFF7F2FF03BC00F057F800000948804792
:1001700009480047FEE7FEE7FEE7FEE7FEE7FEE789
:10018000FEE7FEE7FEE7FEE704480549054A064BA1
:100190007047000009060008ED000008600000201C
:1001A0006006002060020020600200207047704757
:1001B0007047754600F02CF8AE4605006946534678
:1001C00020F00700854618B020B5FFF7DDFFBDE839
:1001D00020404FF000064FF000074FF000084FF0AE
:1001E000000B21F00701AC46ACE8C009ACE8C0093F
:1001F000ACE8C009ACE8C0098D46704710B50446AC
:10020000AFF300802046BDE81040FFF7A8BF000014
:10021000004870470000002001491820ABBEFEE7EF
:10022000260002007047FEE77047000010B54FF44B
:100230000064204600F026F8012804D14103012281
:10024000034800F0C3F82046BDE8104000F014B8A1
:100250000010014010B5022000F014F8012804D16C
:1002600041030022034800F0B1F8BDE8104002202D
:1002700000F002B80010014001490860704700001A
:1002800014040140034A0146002012680A4200D0CB
:10029000012070471404014030B51A4A837901687F
:1002A00053B313688B431360111D0B680468A34399
:1002B0000B60017911440B68046823430B60114BF8
:1002C000083319680468A14319601C1D216805687A
:1002D000A94321604179102905D011440A680068BA
:1002E00002430A6030BD1968026811431960216831
:1002F00000680143216030BD0079104402688A43E0
:10030000026030BD0004014010B58A0721F00304EB
:100310000649120F21440F238C6893409C438C6044
:100320008B68904003438B6010BD000000000140CB
:10033000F0B5CC78002204F00F03E40601D58C78E8
:1003400023430C784FF00F0C14F0FF0F4FF0010E09
:100350001BD005680E880EFA02F42640A64210D182
:1003600096000CFA06F725EA070703FA06F5CE7899
:100370003D43282E02D0482E02D002E0446100E026
:100380000461521C082AE5D305600A88FF2A1CD99B
:100390004468002202F108060EFA06F50E882E4087
:1003A000AE420ED196000CFA06F7BC4303FA06F7EC
:1003B000CE783C43282E00D14561CE78482E00D11E
:1003C0000561521C082AE5D34460F0BD0AB1016101
:1003D000704741617047FEE72DE9FF410121082088
:1003E00000F0AEF80121084600F0AAF848208DF888
:1003F0000F0040F60200ADF80C0002278DF80E70D9
:1004000003A92048FFF794FF0B210120FFF77CFF91
:1004100001210846FFF778FF0125B8028DF8065044
:10042000002400908DF8044008268DF80560684689
:10043000FFF732FF8DF806508DF8044000978DF8D5
:1004400005606846FFF728FF4FF4A06000F06CF8E5
:1004500028208DF808008DF80B508DF809408DF894
:100460000A4002A800F02EF807208DF808008DF849
:100470000B508DF809408DF80A4002A800F022F8D0
:10048000BDE8FF81000C014038B50121102000F0CB
:1004900057F814208DF803004FF40054ADF80040D5
:1004A0000220064D8DF8020069462846FFF740FFFE
:1004B000012221462846FFF789FF38BD0010014080
:1004C000FEE7704730B50F23C27801780125F2B1FD
:1004D000144A126801F1E02102F4E062C2F5E06220
:1004E000120AC2F10404D3404278A24084781C402E
:1004F0001443220181F80024007800F01F018D4090
:100500004009800000F1E020C0F8005130BD01F04A
:100510001F0085404809800000F1E020C0F88051AC
:1005200030BD00000CED00E00249084302490860BC
:10053000704700000000FA050CED00E07047000075
:10054000044A0029916901D0014300E0814391618F
:100550007047000000100240704700000CB50022F8
:10056000264800920192016841F4803101604FF405
:10057000A063016801F4003101910099491C0091C8
:10058000019911B900999942F3D10168890333D5D2
:10059000012101911A490A6842F010020A600A68B2
:1005A00022F003020A600A6842F002020A6041680F
:1005B000416041684160416841F480614160416847
:1005C00021F47C114160416841F4E8114160016807
:1005D00041F08071016001688901FCD5416821F01A
:1005E00003014160416841F0020141604168C1F38B
:1005F00081010229FAD10CBD01920CBD001002400C
:1006000000200240704700000F4810B5016841F01B
:100610000101016041680D4A1140416001680C4AC6
:1006200011400160016821F480210160416821F4DA
:10063000FE0141604FF41F018160FFF78FFF054904
:100640004FF00060086010BD001002400000FFF88D
:10065000FFFFF6FE08ED00E0FEE7FFF715FFFFF7EE
:10066000BBFEFEE7740600080000002060060000E4
:040670002801000855
:04000005080000ED02
:00000001FF
