:020000040800F2
:10000000E00B002035020008192E0008152B00080F
:100010005B2D0008F9280008D94400080000000002
:100020000000000000000000000000001136000881
:10003000FB2800080000000029350008E937000807
:100040004F0200084F0200084F0200084F0200084C
:100050004F0200084F0200084F0200084F0200083C
:100060004F0200084F0200084F0200084F0200082C
:100070004F0200084F0200084F0200084F0200081C
:100080004F0200084F0200084F0200084F0200080C
:100090004F0200084F0200084F0200084F020008FC
:1000A0004F020008253900084F0200084F020008DF
:1000B0004F0200084F0200084F0200084F020008DC
:1000C0004F0200084F0200084F0200084F020008CC
:1000D0004F020008E9420008214300084F020008CF
:1000E0004F0200084F0200084F02000800F002F81B
:1000F00000F090F80AA090E8000C82448344AAF132
:100100000107DA4501D100F085F8AFF2090EBAE82F
:100110000F0013F0010F18BFFB1A43F0010318473B
:10012000C46D0000E46D0000103A24BF78C878C1A7
:10013000FAD8520724BF30C830C144BF04680C60ED
:10014000704700000023002400250026103A28BF35
:1001500078C1FBD8520728BF30C148BF0B60704739
:100160006E2900F09F81702900F0E182662906F077
:100170009F80652906F09C80672906F09980612997
:1001800006F0988003681B0A28BF41F080016929A6
:1001900000F04C81642900F04981752900F0468106
:1001A0006F2900F06E82782900F0AD82E92900F015
:1001B0000982E42900F00682F52900F00382EF2984
:1001C00000F06B82F82900F0AC820368DB0928BFDD
:1001D00041F08001632901F06F80732901F0748080
:1001E000E32901F07F80F32901F08480002070472B
:1001F0001FB501F055F904000020002105F01AF8A0
:10020000401C60600020002104F0FEFFE0601FBD84
:1002100010B510BD01F01FF91146FFF7E9FF04F01A
:100220009DFC01F07DFC03B4FFF7F2FF03BC01F07D
:10023000ABFE00000948804709480047FEE7FEE79B
:10024000FEE7FEE7FEE7FEE7FEE7FEE7FEE7FEE786
:1002500004480549054A064B70470000ED37000881
:10026000ED000008E0050020E00B0020E007002082
:10027000E00700201CB50C46064B7B446946009005
:10028000204600F028F904460020694600F036F9BF
:1002900020461CBD7F02000070B5064600F054F8F1
:1002A0000468054630460A22002100F061FB2C60FC
:1002B00070BD0000014A00F093BB0000180100204F
:1002C0004FF0013C50F8042B51F8043B9A4221D1E5
:1002D000A2EB0C03934313EACC1317D150F8042B71
:1002E00051F8043B9A4215D1A2EB0C03934313EA55
:1002F000CC130BD150F8042B51F8043B9A4209D18E
:10030000A2EB0C03934313EACC13DBD04FF00000B5
:10031000704700BFD01A01BAB1FA81F101F018019B
:1003200022FA01F0CB40C1F12001DBB2C0B2C01A09
:100330002CFA01F3D11A914311EAC311E6D17047A7
:1003400070477047704700000048704780050020E4
:1003500010B5FFF7F9FF006810BD10B50446FFF7B0
:10036000F3FF046010BD70B5044685690068C106DE
:1003700001D5302600E02026C00707D070BDD4E9A3
:10038000012130469047206A401C20626D1EF6D540
:1003900070BD70B5044685690078C00707D170BD8F
:1003A000D4E9012120209047206A401C20626D1E64
:1003B000F6D570BD09684A0501D540B27047C90538
:1003C000FCD500B2704709684A0501D5C0B2704734
:1003D000C905FCD580B2704770B50C460546012AA8
:1003E00005D02878800600D5EA69002302E00123C1
:1003F00005E05B1C934202D2E05C0028F9D1A869B9
:10040000E618C01AA861286A184428622846FFF72F
:10041000AAFF04E0D5E9012114F8010B9047B4428A
:10042000F8D32846FFF7B5FF70BD00002DE9F04175
:100430000646002410687529314616A510D0FFF72E
:10044000B9FF002802DA404213A507E031688A07A5
:1004500001D512A502E0490704D511A5012401E048
:10046000FFF7B1FF00210A2206F1240709E0B0FBE3
:10047000F2FCB0FBF2F302FB1C003030785418465B
:10048000491C0028F3D123462A463046BDE8F041F6
:1004900000F022BB000000002D0000002B00000037
:1004A0002000000011680268006A530501D5087039
:1004B0000AE0D30501D5088006E0130603D5C2176C
:1004C000C1E9000200E008600120704701694A1C90
:1004D00002610878704700B58FB0CDE90131002185
:1004E000059105497944CDE903101146684600F0AD
:1004F00029F90FB000BD0000E5FFFFFF0A6802F810
:10050000010B0A60704700002DE9FF5F15468A461F
:100510000446DFF8AC80F8440027D8E900103E46D6
:10052000CDE9001010E03AF816106A4602A800F073
:1005300054FF411C07D02178890603D5E269391898
:1005400091420DD80744761C2078800602D5E069D8
:10055000B84205DDAE42E6DB3AF816000028E2D1EB
:10056000A069C01BA0612046FFF7FDFED8E900107E
:10057000CDE90010002017E03AF818106A4602A8EA
:1005800000F02BFFB0F1FF3F81460BD000250DF1AD
:10059000080B05E0D4E901211BF8050090476D1C0C
:1005A0004D45F7D308F10100B0428046E4DB206AF4
:1005B000384420622046FFF7ECFEBDE8FF9F0000B4
:1005C000266800002DE9F0418046D21D22F0070286
:1005D0000025D2E90002F52915A614D0011E72F1FA
:1005E000000106DA0023D0EB030063EB020211A640
:1005F00008E0D8F800108B0701D50FA602E04907E4
:1006000001D50EA601251146002408F1240704E0B7
:1006100000F014FA30323A55641C50EA0102F7D166
:100620002B46324621464046BDE8F04100F054BA20
:10063000000000002D0000002B0000002000000042
:1006400030B4002100F1240408E002F00705D208CC
:10065000303542EA4372DB086554491C52EA03050F
:10066000F3D10468002310A2250707D5A40600D4FF
:1006700021B1C46901230DA2641EC46130BC00F025
:100680002BBA10B5044621461068FFF79CFE0246BF
:100690002046BDE810400023D2E7D21D22F007011A
:1006A000D1E90023CCE7000000000000300000008A
:1006B000F0B40D460188090502D5214C7C4402E0C6
:1006C0001F4C7C440E34002100F1240608E002F0A7
:1006D0000F071209E75D42EA03721B097754491CB0
:1006E00052EA0307F3D102780023120704D5702DD4
:1006F00006D009B1022311342246F0BC00F0ECB957
:1007000001231034F8E770B504460D462146106801
:10071000FFF759FE024629462046BDE870400023F7
:10072000C6E7D21D22F00703D3E90023C0E7036820
:10073000126843F0200303600823C3610023B7E776
:10074000886600002DE9F05F894604464FF0000AF4
:10075000DFF874B1FB44C0F820A02046E168884768
:10076000002874D0252806D0D4E901219047206ABA
:10077000401C2062F1E700265F462046E16888477A
:100780002028054607DB312D05D2781910F8200CFA
:1007900008B10643F1E7B00701D526F00406C4F816
:1007A0001CA00027C4F818A02A2D09D0284603F061
:1007B00082FF38B304EB8708303DC8F8185019E0C1
:1007C00059F8041B204604EB87029161E1688847D1
:1007D000012F054618D1E069002820DA26F020060E
:1007E0001DE0D8F8180000EB800005EB4000303821
:1007F000C8F818002046E1688847054603F05BFF0B
:100800000028EED1012F0AD02E2D08D12046E16814
:1008100088477F1C0546022F46F02006C4DBA069EE
:10082000002803DA404246F00106A061F00701D03B
:1008300026F010066C2D0BD0682D09D04C2D39D028
:100840006A2D35D0742D35D07A2D33D016E038E0AE
:10085000E1682F4620468847B842054609D16C2FEB
:1008600026D04FF48060E16806432046884705465D
:1008700004E06C2F1AD04FF4807006430DB3A5F13D
:100880004100192802D8203546F400664A46294618
:10089000204626604E46FFF763FC80B101280BD04E
:1008A000F61D26F0070000F1080956E74020E4E7AE
:1008B0008020D8E70020D6E706F104094DE7284656
:1008C00052E7206ABDE8F09F186600000FB40023CD
:1008D00000B589B00CA900910B99CB60214B7B44EA
:1008E0000693214B7B44079304236FF00042CDE92C
:1008F00001321E4A7A446B4608920246002005F0F7
:1009000061FD09B05DF814FB70B506464FF0FF308D
:1009100015460C46324686B00091CDE90101694684
:100920000020049004A8FFF7D1FF02460498211884
:1009300025B108B1084600E0204628600498002848
:100940000DD0002A02DD0098884208D03246081BEC
:1009500069460094CDE9010404A8FFF7B7FF06B08B
:1009600070BD00001B0A0000330A0000CF01000028
:100970002DE9F04791460F4680460446002614F8BC
:10098000015B2DB100F052F80068405DC007F6D160
:100990002B2D02D02D2D18D0641E4A4639462046F4
:1009A00000F0CCFC27B13968A14201D1C7F8008022
:1009B0004FF0020471050BD54042002803DDFFF71C
:1009C000C3FC0460A007BDE8F08746F48066E4E756
:1009D0000028F8DAFFF7B8FC04606FF00040F2E797
:1009E0002DE9F04115460E46040002D12C6804B9E9
:1009F0000BA4204600F021FD0444207870B1274666
:100A00003146384600F009FD0444207810B100203A
:100A100004F8010B38462C60BDE8F0810027F9E7A7
:100A200000000000004870478005002010B500F06D
:100A300037FD001D10BD00BFFD47000030B5B0F10F
:100A40000A024FEA900E71F100034EEA817EB0EB8C
:100A50000E0061EB91014FEA101E4EEA017E10EB91
:100A60000E0041EB11114FEA102E4EEA016E10EB11
:100A70000E0041EB11214FEA104E4EEA014E10EBF1
:100A80000E0041EB1141401841F100014FEAD00046
:100A900040EA41704FEAD10110EB80054FEA810432
:100AA00044EA907444EB01046D1944EB0404521BB6
:100AB000A3414FF0000348BF0A3200D530BD401CAF
:100AC00041F1000130BD10B50446FFF7AFFF0068EB
:100AD000005D00F0010010BD2DE9F0470D4699467C
:100AE0009246044600F124080168880604D5E069AE
:100AF00021F01001216000E00120A84201DD471B28
:100B000000E00027A1697A1902EB0900081AA06128
:100B10002078C00602D42046FFF725FC002608E016
:100B2000D4E901211AF806009047206A401C761C7F
:100B300020624E45F4DB2078C0060AD52046FFF738
:100B400012FC06E0D4E9012130209047206A401CC5
:100B50002062381EA7F10107F4DC07E0D4E9012187
:100B600018F805009047206A401C2062281EA5F155
:100B70000105F3DC2046FFF70CFC2078000602D5C7
:100B80000220BDE8F0870120FBE770472DE9FF4F09
:100B90000C461E464FF0FF378BB0D2E90001DDF85E
:100BA00060800A908A46C1F30A5505B93D46002186
:100BB00008464FF00000BAF1000F00F4400005DADB
:100BC00000EB80004FF4400101EA50004FEA9059D9
:100BD000B9F1010F00DDB9460A9850EA4A000ED07B
:100BE00044F61050A5F2FF3545432F14B8F1000F1D
:100BF0001ED07542291E1EDDC9F100021CE0B8F1AD
:100C0000010F4FF0000001D0302103E0F24305E076
:100C10002154401CB042FBDB30460022002121540D
:100C20000B99C1F80880C1E900200FB0BDE8F08F32
:100C3000BD1B6D1CDEE74A4600DA694206A800F0DB
:100C4000FDFE06AB93E8070003AB83E807005046C0
:100C50000A9901F0B3F98DE80700A0F500501F389C
:100C600000900398002D0ADD42F21F014A46084415
:100C7000002303A90390684601F05EFC09E0A0F59B
:100C800000504A461F38002303A90390684601F02C
:100C90007DFC8DE807000004000C03D04FF0FF300E
:100CA000410800E01046B8F1000F03D00022009286
:100CB00015461EE0751E05D4FFF7C0FE30326255A2
:100CC0006D1EF9D5B3460122084302D000227F1CD5
:100CD00004E02078302801D100227F1E002A0997E5
:100CE00084D01DE0112D07DAFFF7A8FE30326255DF
:100CF0006D1C50EA0102F5D1084302D00098C8B13A
:100D00000EE00021681E05E0235C625C63542254FF
:100D1000401E491C8142F7DBAB46A81B401E0990D0
:100D2000002004F80B000B98099AC0F80880C0E96D
:100D3000002B7AE711264FF0000857E72DE9F04F16
:100D400088460446D21D22F0070191B0D1E9000186
:100D5000CDE90A0103F0C1FB02460B98C00F01D098
:100D60002D2007E02068810701D52B2002E02021FB
:100D700001EAC000032A099001D0072A05DB0346D7
:100D80004146204600F090FB0BE12078800601D51B
:100D9000E06900E00620B8F1650F814606D0B8F1A1
:100DA000660F18D0B8F1670F70D131E00020B9F1AB
:100DB000110F009001DB112301E009F101030AAAE0
:100DC00001A90CA8FFF7E2FEDDE90C70002609F18D
:100DD0000105834647E001204B4600904FF0004755
:100DE0000AAA01A90CA8FFF7D1FEDDE90DB00C9904
:100DF0005D46002610B909F101000D18B9EB050098
:100E000003D4C0F1FF3609F10105A5EB09002BE081
:100E1000B9F1010F01DA4FF001090020B9F1110F0A
:100E20000090484601DD112300E003460AAA01A90B
:100E30000CA8FFF7ABFEDDE90C704D46002683469B
:100E4000207800070AD4AB4500DA5D4601A8012DE1
:100E500004DD411911F8011C302907D04F4502DA91
:100E600017F1040F04DA012082460FE06D1EEEE751
:100E7000002F02DCED1B3E4403E0781CA84200DD9D
:100E80007D1CB81B00F1010A4FF0004720780007D5
:100E900003D4AA4501DB4FF0FF3A0021B7F1004F20
:100EA0000DF143088DF8431024D002202B23002F8E
:100EB00001DA7F422D230A21021EA0F1010000DC8D
:100EC0005FB197FBF1FC97FBF1F201FB1C7C17462D
:100ED0000CF1300C08F801CDEEE7A8F10100037029
:100EE0002188090501D5452100E06521A0F101080F
:100EF00000F8011C09980FA9A1EB0807FF1D00B11C
:100F00000120411901EBEA70A1693844081A401E1A
:100F1000A0612078C00602D42046FFF724FA099881
:100F200028B1D4E901219047206A401C2062207832
:100F3000C00622D52046FFF716FA1EE0002E04DB7D
:100F4000B34502DD01A8805D00E03020D4E9012135
:100F50009047206A401C2062761CAAF101005FEADB
:100F6000000A0AD100F09CFAC0680168405CD4E92C
:100F700001219047206A401C2062281EA5F101052E
:100F8000DCDC07E0D4E9012118F8010B9047206A66
:100F9000401C2062381EA7F10107F3DC2046FFF752
:100FA000F8F9032011B041E62DE9F04F04460D4653
:100FB000D21D22F0070089B0D0E900974846394693
:100FC00003F08BFA0246F80F01D02D2307E02068CA
:100FD000810701D52B2302E0202101EAC0038DF80F
:100FE00020300BB1012000E00020032A824601D00E
:100FF000072A04DB2946204600F056FA3FE1207814
:10100000800601D40D2500E0E569C7F30A560D2DD1
:1010100049DA00214FEA175B08464FF00000002F25
:1010200000F4400007DA00EB80004FF4400100EBD1
:10103000D07001EA60008115012901DD4FF0FF3118
:1010400000224FEA850CBCF1180F06D31346ACF111
:1010500018004FF08052C24003E04FF4801323FA8F
:101060000CF30CF10C0CBCF1200F04D3ACF1200CF0
:1010700009FA0CF001E007FA0CF000294FF00048E3
:1010800001DD18B90FE00ED140450CD319EB020970
:101090005F4121B9404502D19F4329EA0209BBEBD8
:1010A000175F00D0761C2088000502D57B48784465
:1010B00002E07A487844193808AA302302F80A3046
:1010C000037C0AF10101002E0AF1020A53546A4618
:1010D00002DC4FF0300101E04FF031014FF0010828
:1010E0008DF8001002D0A6F2FF3603E059EA47015E
:1010F00000D06B4E002D02DC2178090704D54FF09B
:1011000002082E218DF80110C44600210BE0C7F320
:1011100003433F01C35C491C6D1E02F808300529DA
:1011200008F1010801DA002DF1DC00210CE000EBF0
:101130001973491C1B786D1E082902F808304FEA04
:10114000091908F1010801DA002DF0DC21688B068D
:1011500002D516E0A8F10108E04505DD02EB080321
:1011600013F8013C302BF5D0B8F1000F09DD02EB8C
:10117000080313F8013C2E2B03D1090701D4A8F171
:101180000108002D05DD3E2102F808106D1E08F152
:101190000108407C002E02F8080008F1010804DA7A
:1011A0002D20764202F8080002E02B2002F8080009
:1011B0000A214FF47A70864208F101080BDB96FB96
:1011C000F0F3303302F8083096FBF0F308F1010831
:1011D00000FB136601E0642E0CDB642096FBF0F349
:1011E000303302F8083096FBF0F308F1010800FBF9
:1011F000136601E00A2E06DB96FBF1F0303002F8B0
:10120000080008F1010896FBF1F001FB1060303096
:1012100002F80800A16908F1010808EB050202EBD9
:101220000A00081AA0612078C00602D42046FFF701
:101230009AF8216A08AE01EB0A00206204E0D4E9C2
:10124000012116F8010B9047BAF1010AF7D2207874
:10125000C00602D52046FFF786F86E4609E016F86C
:10126000010B3E280FD0D4E901219047206A401C91
:101270002062B8F10108F2D22046FFF78AF809B0DF
:101280000320BDE8F08F206A2844206203E0D4E9FF
:101290000121302090476D1EEBD3F8E7895D0000F7
:1012A00002FCFFFF10B5436913B1AFF3008001E00A
:1012B000FFF792F8012010BD127800F124010A70A6
:1012C00000224A700122EDE711684FF0FF32E9E792
:1012D00010B5436913B1AFF3008001E0FFF714F9D3
:1012E000012010BD128800F1240182840022C284F2
:1012F0000122EDE711684FF0FF32E9E7426842B1A1
:10130000016811F8013B23B1521EC0E900121846D2
:1013100070470121C160881E704742685AB1C36896
:10132000016843B983688B4205D0491E521CC0E94D
:101330000012002070474FF0FF3070472DE9F05F3A
:10134000824615468B4600270AF10104B94600780B
:10135000302801D09DB113E014F8010B0127782843
:1013600003D0582801D045B10AE00DB1102D07D1A6
:10137000002714F8010B102502E0082500E00A25DB
:101380000026B0460EE005FB080005FB06F101272C
:101390001FFA80F801EB1046B6F5803F00D3B9463E
:1013A00014F8010B294600F0BFF80028EBDABBF176
:1013B000000F05D00FB1641E00E05446CBF800408A
:1013C000B9F1000F06D0FEF7BFFF02210160C81E71
:1013D000BDE8F09F48EA0640FAE770B516460C46AD
:1013E0000546FFF723FB036893F80101012806D0A7
:1013F000FF2C0FD8185D68B101202C7070BDD3F898
:1014000007013246214603F2071303442846BDE88C
:10141000704018474FF0FF3070BD30B503461D785F
:101420001DB10A4603E0AC4201D1181A30BD12F8D2
:10143000014B002CF7D15B1CF1E730B503461D785A
:101440003DB10A4612F8014B1CB1AC42FAD15B1C0B
:10145000F5E7181A30BD7546FFF7E4FAAE46050009
:101460006946534620F00700854618B020B5FEF7C0
:10147000EFFEBDE820404FF000064FF000074FF0B0
:1014800000084FF0000B21F00701AC46ACE8C009A2
:10149000ACE8C009ACE8C009ACE8C0098D467047AB
:1014A00000487047A00500202DE9F0411F46044682
:1014B00003260168072A01F4006004DB08B116A5C1
:1014C00005E016A503E008B115A500E015A521F07B
:1014D00010002060A069C01EA0610FB1401EA06175
:1014E0002046FEF740FF4FB1D4E90121384690472E
:1014F000206A401C2062C01C206206E0206AFAE7D5
:10150000D4E9012115F8010B9047761EF8D2204648
:10151000FEF73FFFBDE8F0814E414E006E616E0068
:10152000494E4600696E66003A2800D2303820F0F5
:101530002002412A01D3A2F13700884201D34FF0A3
:10154000FF3070472DE9FF4F06468BB00878FF2823
:1015500006D0491C2D2805D000244FF0000908E0D2
:1015600000200CE00124F8E709EB8903491C00EB9B
:1015700043090878FF28F7D114B1C9F1000081466A
:10158000107800252C46AA4629462D2801D02B2864
:1015900004D1521C2D2813D0002082468B4610788F
:1015A000FF280FD04FF0000C0A21521CA5FB017838
:1015B00004FB018105FB0C11C5194BEB0104EEE79F
:1015C0000120EAE7002108464FF00000BAF1000FC1
:1015D00002D000EB80004008C0F38157012F01DDED
:1015E0004FF0FF370E9955EA040009EB01080BD0C4
:1015F0004FF0020918F5FA7F16DA4FEACA70002F89
:10160000706008DD012007E04FEACA70C6E900B04B
:101610000FB0BDE8F08F00203060FEF795FEC0F8F7
:1016200000901821084616E0B8F5FA7F18DD002F63
:1016300002DAF748784401E0F6487844D0E900102F
:10164000C6E9001040EACA707060FEF77DFEC0F87F
:101650000090142108460FB0BDE8F04F04F025BEFD
:10166000002108464FF00000B8F10001099002DAAD
:10167000C7F1000200E03A4601DAC8F1000106A80D
:1016800000F0DCF906AB93E8070003AB83E8070042
:1016900044F23E005BEA04010090584604D144F253
:1016A0001E012C465D460091210C0904014306D120
:1016B0000099240444EA15442D041039009104F0E3
:1016C0007F41014306D10099240244EA15642D02AA
:1016D0000839009104F07041014306D100992401BA
:1016E00044EA15742D01091F009104F040410143A3
:1016F00006D10099A40044EA9574AD00891E0091BA
:1017000004F00041084304D100986D196441401E63
:1017100000904FF001033A466846B8F1000FCDE95A
:10172000014503A902DD00F046FF01E000F019FFCA
:10173000BAF1000F04460D4601D084F000440021A8
:1017400008464FF00000099940F2FF77484010F03A
:101750000C0F07D124F00040284303D0C4F30A50F3
:10176000B84212D1FEF7F0FDC0F80090C4F30A5061
:10177000B8420AD1A8487844D0E90010C6E9001060
:1017800004F000410843706042E7C6E900543FE7B7
:101790002DE9FF4F1F464FF0000A4FF0FF38454636
:1017A00091B0D7E90146CDF83CA0FFF779FEC068BB
:1017B0000168405C1090B96912986D1C8847396ABD
:1017C000814688470028F6D1B9F1FF3F0AD0002EA4
:1017D00024F4D06411DDB9F12B0F08D0B9F12D0F2D
:1017E0000BD102E0404615B013E744F48064B969B8
:1017F00012986D1C8847761E8146600504A901D5A4
:101800002D2000E02B20002E01F1010B0DF13008FE
:101810008DF810003FDDB9F1690F08D0B9F1490F1B
:1018200005D0B9F16E0F02D0B9F14E0F1CD13B4675
:1018300001A8009580E85002DDE912126FF0020065
:1018400004F0C4FDC11CCED10EE0B96912986D1C24
:10185000884781461398761E44F4007405600F98FB
:10186000401C002E0F9016DDB9F1300FEDD0B9F10C
:10187000780F02D0B9F1580F0DD10F9801280AD175
:101880003B46CDE90054DDE91212001F029604F038
:101890009BFDC11CA7D1109989453ED144F080041D
:1018A00006E01399681CAAF1010A44F40074086068
:1018B000B9696D1C1298761E884730288146F0D091
:1018C0002BE01099894505D1200603D4761E44F0FB
:1018D000800418E0484602F0EEFE08B3761E0DF1D3
:1018E00023018B4544F4007408D2A9F130000BF8B1
:1018F000010B200607D5AAF1010003E0200602D45F
:101900000AF101008246A00502D51399681C0860FF
:10191000B96912986D1C88478146002ED1DC53E0CE
:10192000002E51DDB9F1650F02D0B9F1450F4BD151
:10193000A00549D5B9696D1C1298761E24F440742F
:101940008847002E81460CDD2B2804D0B9F12D0FDD
:1019500007D144F48074B96912986D1C8847761ECB
:101960008146E00501D52D2100E02B2108F8011B5F
:10197000CDF8008021E0761E0DF13901884544F450
:1019800000740CD2A9F1300010F0FF0088F80000BC
:1019900002D10099884509D908F1010806E0E0055F
:1019A00001D51E4801E042F20F708246B9691298D3
:1019B0006D1C8847814613980560002E04DD48465B
:1019C00002F079FE0028D6D1F96912988847FF20E5
:1019D00053468BF8000088F8000000200A900B9016
:1019E00004AA0CA90AA8FFF7ADFDA00502D46FF068
:1019F0000100F8E614F0240F12D0E0071CD138687B
:101A0000DDE90A12031D3B600068C0E9001213E023
:101A1000D4580000C65800008A570000F1D8FFFFD4
:101A20000AA9684602F0D6FDE00705D13868009A99
:101A3000011D3960006802602846D4E62DE9F047B0
:101A4000814616468AB0354878440DC88DE80D00A9
:101A500032487844801C03AC0DC884E80D0041F680
:101A60009B300844372190FBF1F290FBF1F5A5F192
:101A7000800501FB12041B3C02D56442012000E0FA
:101A80000020DFF898A080460027FA44AAF1BE0A99
:101A90000EE0E0070AD03246684607EB4701012313
:101AA0000AEB810100F072FD8DE8070064107F1CD5
:101AB000002CEED1194F7F44AE3F19E0E80715D056
:101AC00007EB04100DF1180A90E80E008AE80E00EA
:101AD000C068F04201D1981908903246012306A946
:101AE00003A800F053FD03AB83E807006D10641CEE
:101AF000002DE3D14FF0010332466946B8F1000FE3
:101B000003A802D000F018FD01E000F03FFDC9E994
:101B10000001C9F808200AB0BDE8F0878054000031
:101B200010B50446AFF300802046BDE81040FEF734
:101B30007ABB00002DE9FF4F1F464FF03C0987B0EC
:101B40004FF00042DDE9141001F10108DDF858A062
:101B500002EA405003900020059083460546044663
:101B60000490B969461E08988847AAF1010A0290B4
:101B7000BAF1000F3BDD02982E2815D01021FFF797
:101B8000D3FC00282EDB4FF0010B0599014317D041
:101B9000B9F1000F0BDB4A46C11700F0FBF9054312
:101BA0000C43A9F1040905E0012004900BE008B101
:101BB00045F0010501200590049820B9361D02E08A
:101BC000049800B1361FB969089808F101088847E0
:101BD000BBF1000FAAF1010A0290C9D00999C1F81E
:101BE0000080C5E70298702808D0502806D0F9690F
:101BF00008988847BBF1000F14D04FE000200290F6
:101C00000120BBF1000F049009D0B969089808F1D0
:101C100001088847AAF10109B9F1000F07DCF96949
:101C2000089888476FF001000BB0BDE8F08F2B28B3
:101C300004D02D280CD14FF0FF300490B9690898DA
:101C400008F101088847A9F10109B9F1000FE6DDA3
:101C5000411CE4D00A21FFF767FC0028DFDB029972
:101C600008F1010801EB810100EB41000290B96924
:101C7000089888470A21FFF757FC099AA9F101093A
:101C8000B9F1000FC2F8008001DD0028E7DAF96938
:101C9000089888470499029800FB016655EA0400F9
:101CA00004D004F04041090002D006E0039898E017
:101CB000A40044EA9574AD00B61E04F0004108008B
:101CC00002D16D196441761E159810F0240F03D0CF
:101CD0004FF00B095C4803E04FF028096FF07D00DE
:101CE0008246564507DAAAEB06018944B9F1410F4D
:101CF00001DD4FF0410901200021A9F1010200F0AE
:101D000049F9024628400B462140084301D00121F1
:101D100000E00021501E029143F1FF312840214094
:101D2000084301D0012000E000200299834651EAD7
:101D30000B014FD0002108464FF00000039900F43A
:101D4000400039B100EB80004FF4400100EBD0704F
:101D500001EA60008015012802DD4FF0FF3000E04D
:101D600013D0401C36D0029860B3BBF1000F0CD1E9
:101D70004A460120002100F00DF928402140084387
:101D800001D0012000E00020E0B101204A460021FE
:101D900000F000F9034640190A4661412D1A8C41B2
:101DA00011D3B9F1400F09DD159810F0240F02D0BE
:101DB000AAF1340603E0AAF1170600E0761C00251C
:101DC0004FF0004406E05B1E42F1FF3220EA0305BB
:101DD00021EA0204CAF10100B04206DA1B49039865
:101DE00008430190002000900EE0039AC4F3D32131
:101DF000E80A0A43164940EA44500A433146CDE90D
:101E00000002684602F04CFC159810F0240F0BD02D
:101E10001598C00715D13868DDE90012031D3B6035
:101E20000068C0E900120CE002A8694602F0D2FB8B
:101E30001598C00705D13868029A011D39600068FD
:101E400002604046F0E6000002FCFFFF0000F07F69
:101E50000000F03F2DE9FF4F92461D4685B04FF040
:101E60000041DDE9124BDDE914727F1E01EA4B509F
:101E7000414940F0FF4940EA0108002122F02000DA
:101E80004928049102D04E2828D04CE03BA00126DE
:101E900007C88DE80700A9690698641C88477F1E5B
:101EA000014606D41DF8060018B121F02001814238
:101EB0000BD0E96906988847032E34D0082E32D01B
:101EC0006FF0010009B0BDE8F08F761C032E01D041
:101ED000082EE0D1601CCAF80000DCE7A96906986A
:101EE000641C88477F1E2AD420F02000412826D178
:101EF000A9690698641C88477F1E20D420F0200022
:101F00004E281CD1A9690698641C88477F1E48F496
:101F1000002849F48009CAF8004001D4282806D0D6
:101F2000E969069888475FEACB7012D022E0A96978
:101F30000698641C88477F1E01D4002803DAE969EB
:101F400006988847BCE72928F1D1641CCAF80040EC
:101F5000E9E71BF0240F07D028680499031D2B60C4
:101F60000068C0E9001805E02868021D2A600068C2
:101F7000C0F800902046A5E70000F07F494E464992
:101F80004E4954590000000001491820ABBEFEE73D
:101F900026000200B2F120030AD5C2F1200301FAA3
:101FA00002F120FA03F300FA02F041EA030170475C
:101FB00000FA03F14FF00000704770475FEA400CF1
:101FC00008BF91F0000F4FEA8C234FEAC12243EA89
:101FD00051514FEA1C5018BF00F5F0404FEA300055
:101FE00018BF41F000415FEA6C5C00F02980BCF151
:101FF000FF3F08BF40F080407047130C06BF12043B
:102000004FF0100C4FF0000C130E04BF12020CF135
:10201000080C130F04BF12010CF1040C930F04BF42
:1020200092000CF1020CD30F04BF52000CF1010C12
:1020300011464FF00002A0F11F00A0EB0C0070470A
:1020400011F0004F08BF704731F000413FF4D5AFA9
:102050000B0C06BF09044FF0100C4FF0000C0B0ED8
:1020600004BF09020CF1080C0B0F04BF09010CF1AD
:10207000040C8B0F04BF89000CF1020CCB0F04BFC2
:1020800049000CF1010CCCF12003A0EB0C0022FA6A
:1020900003F302FA0CF241EA030100F10100704778
:1020A00020F07F4C80EA030023F07F47ACEB07036E
:1020B00003F57C5300F0004003F1FF032DE9804954
:1020C0004FEA154B09B44FEA144325EA0B4E24EAB4
:1020D00003480FF2042606EB132749083E785FEA0F
:1020E000320203FB0667C7F5000707FB06F64FEA57
:1020F00054374FEAD64606F1020607FB066CCCF1D0
:10210000005C4FEA1C472CEA074C07FB06F40CFB6B
:1021100006F504EB15464FEA961634BF00204FF043
:1021200000404FEAD13706FB07FC4FEA1C4C0CFB82
:102130000BF7D21B03FB0CF761EB07010CFB0EF74F
:10214000B0EB074072EB17420CFB08F734BFA2EB71
:102150000742B2EB074261EB17414FEA0C444FEAEA
:10216000910706FB07FC4FEA1C4C0CFB0BF7B0EB8E
:10217000C74072EB573203FB0CF734BFA2EBC742E8
:10218000B2EBC74261EB57310CFB0EF7B0EBC70067
:1021900072EB57720CFB08F734BFA2EBC702B2EB2D
:1021A000C70261EB5771039F4FEA816141EA9211C7
:1021B00004EBCC044FEAD1374FEA826206FB07FCFE
:1021C00042EA90124FEA80604FEA1C4C0CFB0BF77E
:1021D000D21B03FB0CF761EB07010CFB0EF7B0EB16
:1021E000074072EB17420CFB08F734BFA2EB074223
:1021F000B2EB074261EB17414FEA8C554FEA91076A
:1022000004EB9C2406FB07FC4FEA1C4C0CFB0BF771
:10221000B0EBC74072EB573203FB0CF734BFA2EBB5
:10222000C742B2EBC74261EB57310CFB0EF7B0EB84
:10223000C70072EB57720CFB08F734BFA2EBC70262
:10224000B2EBC70261EB577115EB4C254FEA816188
:1022500041EA92114FEA82624FEAD13742EA901284
:1022600006FB07FC44F100044FEA80604FEA1C4C77
:102270000CFB0BF7D21B03FB0CF761EB07010CFB0C
:102280000EF7B0EB074072EB17420CFB08F734BFB8
:10229000A2EB0742B2EB074261EB174115EB1C15AD
:1022A0004FEA813141EA92414FEA823242EA90425A
:1022B0004FEA80304FEA0C7644F1000448EA0343C9
:1022C0004EEA0B484FF0000EB2EB080C71EB03071F
:1022D00024BF624639464EEB0E0E4FF0000B00183D
:1022E000524149414BEB0B0BB2EB080C71EB03076E
:1022F0007BF1000B24BF624639464EEB0E0E4FF0C9
:10230000000B0018524149414BEB0B0BB2EB080C90
:1023100071EB03077BF1000B24BF624639464EEB9D
:102320000E0E51EA020718BF46F0010616EB0E76B4
:1023300055F1000254F1000103D5BDE88901BDE863
:102340000088BDE88901BDE80048B619524141EB5B
:102350000101A3F10103704780807F7E7D7C7B7A41
:102360007978777676757473727171706F6E6E6D41
:102370006C6C6B6A6A6968686766666564646363E7
:1023800062616160605F5F5E5E5D5D5C5C5B5B5A6D
:102390005A595958585757565655555554545353DA
:1023A00052525251515050504F4F4F4E4E4D4D4D35
:1023B0004C4C4C4B4B4B4A4A4A4949494848484780
:1023C00047474746464645454544444444434343BE
:1023D000434242424241414146EA0646A3F5705318
:1023E0004FEA164646EA42564FEAD22242EA4152A4
:1023F00010B54FEAD121A3F1010300F02FF820F02E
:10240000004000F1020C00F0004701EB00501146C3
:10241000BCF5006F40EA070000D210BDBAF1000F12
:102420000AD01CB503B44FF004004FF004014FF084
:1024300000000FBCBDE810404FF00001BBF1010FE0
:10244000B9BF04484FF0FF310348002140EA0700BC
:1024500010BD00BFFFFFEF7F0000F07F002B9C4608
:1024600030D477002BD01CB54FEA370703B44FF0B8
:1024700010004FF01001BAF1000F06D0BCF1000FB0
:10248000DCBF40F0080040F008014FF000000FBC36
:10249000BDE810400BF1010BBBF1010F08BF5FEA73
:1024A000170722BF12F1010211F101014FF00041A3
:1024B00043F1000300F0004043EA00007047F9D305
:1024C0005708D0E746EA064613F1400F4FEA164692
:1024D0001FDD13F1200FDFBF16430A460021203312
:1024E0005B42BED0C3F1200746EA064602FA07F770
:1024F0004FEA164646EA0706C3F1200722FA03F21E
:1025000001FA07F721FA03F14FF0000342EA07024C
:10251000A7E746EA020646EA06464FEA164646EAB4
:102520000106BCBF46EA0646360C4FF000034FF0EA
:1025300000024FF0000194E72DE9804C9A46934643
:1025400070B491E8380007C831EA400C48BF34EA5B
:10255000430C03D5FFF7A4FDFFF780FFF0BCBDE8F7
:10256000008C2DE9804C9A46934670B491E838006F
:1025700007C831EA400C48BF34EA430C03D5FFF7E3
:102580008FFDFFF729FFF0BCBDE8008C2DE9804CE2
:102590009A46934670B491E8380007C810F0804F0F
:1025A00008BF13F0804F03D100F01AF8FFF756FF71
:1025B000F0BCBDE8008C2DE9804C9A46934670B47F
:1025C00091E8380007C810F0804F08BF13F0804F23
:1025D00003D100F005F8FFF7FFFEF0BCBDE8008C6A
:1025E00020F07F4780EA030023F07F4C07EB0C03C9
:1025F000A3F57C5300F00040A3F1FE0392F0000F1E
:1026000000F0B38095F0000F00F077802DE90149CC
:102610004FEA11404FEA144621EA004800FB06FC4D
:1026200024EA064708FB06F607FB08F800FB07F755
:1026300018EB06484CEB164C4FEA124B18EB0748C8
:102640004FEA15464CEB174022EA0B4E0BFB06FCFB
:1026500025EA06470EFB06F607FB0EFE0BFB07F707
:102660001EEB064E4CEB164C4FF000061EEB074ED1
:102670004CEB174B18EB0B0840F1000018EB0E0B5E
:1026800058EB000840F100008F1A4FF000013CBFEA
:10269000C943661B14BFB5EB040C00213CBFC94302
:1026A000F61B4FEA17444EEA8E0E27EA04454FEA1E
:1026B0001C4704FB07622CEA074C05FB07F70CFBE1
:1026C00005F604FB0CFC16EB074642EB174216EB33
:1026D0000C4642EB1C421BEB060658EB0202414142
:1026E00046EA9E0601D5BDE80189B619524141EB83
:1026F0000101A3F10103BDE801894FEA14454FEA46
:10270000114724EA054621EA074C05FB07F406FBBE
:1027100007F70CFB06F105FB0CFC11EB074144EB42
:1027200017444FEA124711EB0C4144EB1C4422EAD8
:10273000074C05FB07F206FB07F70CFB06F605FB4B
:102740000CFC16EB074642EB174216EB0C4642EB2D
:102750001C456A1854F1000148BF7047B619524130
:1027600041EB0101A3F10103704795F0000F37D051
:102770004FEA11424FEA144721EA024624EA074C85
:1027800002FB07F106FB07F70CFB06F402FB0CFC4F
:1027900014EB074441EB17414FEA154714EB0C4487
:1027A00041EB1C4125EA074C02FB07F506FB07F746
:1027B0000CFB06F602FB0CFC16EB074645EB174537
:1027C00016EB0C4645EB1C42121951F1000148BFB3
:1027D0007047B619524141EB0101A3F10103704763
:1027E0004FEA14454FEA114724EA054621EA074C0F
:1027F00005FB07F106FB07F70CFB06F24FF000069E
:1028000005FB0CFC12EB074241EB174112EB0C42AB
:1028100051EB1C4148BF7047921841EB0101A3F1F5
:1028200001037047034A118821F46071014311804C
:10283000704700002C6C00400149086070470000A0
:1028400000860D4230B5012187B0480400F06EFECD
:102850000121042000F076FE18208DF813000420DA
:10286000ADF81000224D03248DF8124004A928462B
:1028700000F0F2F848218DF813100820ADF8100090
:102880008DF8124004A9284600F0E6F84FF41650DF
:10289000009000200C21ADF80A10ADF80600154C90
:1028A000ADF80C00ADF80800ADF80400694620460C
:1028B00001F0B8FD012240F22551204601F099FDBA
:1028C0004FF4A06000F0DCFA26208DF814000121FE
:1028D0008DF817108DF815108DF8161005A800F05A
:1028E0009DFA0121204601F05BFD07B030BD0000DC
:1028F0000008014000440040FEE7704770B5012821
:1029000003D0022803D0002070BD064D00E0064D24
:10291000284601F024FA04B20021284601F068FBA1
:10292000204670BD00040040000800402DE9F04F33
:1029300087B00121022000F0F9FD0121042000F000
:1029400001FE48268DF81B60C027ADF818704FF0C7
:1029500003098DF81A9006A93B4800F07DF8002481
:10296000DFF8E8B0ADF81240ADF80E404FF6FF7A50
:10297000ADF810A0ADF80C408DF8144003A95846EE
:1029800001F060FB684601F08FFA0F25ADF80040BA
:10299000ADF808506946584601F0F0F94FF00408C8
:1029A000ADF80080ADF808506946584601F0E6F9E8
:1029B00000231A460321584601F0B8F90121584670
:1029C00001F0AAF90121042000F0B0FD0121082046
:1029D00000F0B8FD8DF81B60ADF818708DF81A90F6
:1029E00006A91B4800F038F81A4EADF81240ADF8B1
:1029F0000E40ADF810A0ADF80C408DF8144003A9BE
:102A0000304601F01FFB684601F04EFAADF8004079
:102A1000ADF808506946304601F0B0F9ADF80080D5
:102A2000ADF808506946304601F0A8F900230222AB
:102A30000321304601F07AF90121304601F06CF9AA
:102A400007B0BDE8F08F000000080140000400401E
:102A5000000C014000080040F0B5CC78002204F0E2
:102A60000F03E40601D58C7823430C784FF00F0C4C
:102A700014F0FF0F4FF0010E1BD005680E880EFA00
:102A800002F42640A64210D196000CFA06F725EA79
:102A9000070703FA06F5CE783D43282E02D0482ECC
:102AA00002D002E0446100E00461521C082AE5D330
:102AB00005600A88FF2A1CD94468002202F1080632
:102AC0000EFA06F50E882E40AE420ED196000CFA94
:102AD00006F7BC4303FA06F7CE783C43282E00D114
:102AE0004561CE78482E00D10561521C082AE5D3F5
:102AF0004460F0BD0246002092680A4200D00120E6
:102B0000704741617047016170470AB101617047C8
:102B100041617047FEE7000002490022C878CA7090
:102B2000704700000C01002010B5104C0221204617
:102B3000FFF7E0FF88B101212046FFF7DBFF70B10E
:102B40000B4C20212046FFF7D5FF50B11021204625
:102B5000FFF7D0FF38B1002010BD012010BD0220CA
:102B600010BD032010BD042010BD0000000C01406A
:102B70000008014038B50121042000F0E3FC0121E8
:102B8000082000F0DFFC48258DF803500324ADF841
:102B900000408DF8024069460748FFF75DFF8DF859
:102BA00003503020ADF800008DF80240694603481C
:102BB000FFF752FF38BD0000000C01400008014043
:102BC00010B50A4C2078401CC0B2207014280CD3D9
:102BD000002020706078A070FFF7A6FF60700028CA
:102BE00003D1A078002800D0E07010BD0C010020B7
:102BF0004FF400510148FFF786BF0000001001406C
:102C00004FF400510148FFF77CBF00000010014065
:102C100038B50121102000F095FC10208DF803003C
:102C20004402ADF800400320054D8DF802006946CE
:102C30002846FFF711FF21462846FFF764FF38BDFD
:102C4000001001402DE9FF471546DDE90C890E46CD
:102C500007461C460E2269463B2000F039F8BDF8B5
:102C6000000040BA3880BDF8020040BA3080BDF89C
:102C7000040040BA2880BDF8080040BA2080BDF8A2
:102C80000A0040BAA8F80000BDF80C0040BAA9F844
:102C90000000BDE8FF8710B500F010FD01216B209A
:102CA00000F043F800216C2000F03FF807211920C4
:102CB00000F03BF800211A2000F037F818211B2003
:102CC00000F033F81821BDE810401C2000F02DB8AA
:102CD0002DE9F04115460F46044600F05AFDD0207C
:102CE00000F043FD00F00EFD204600F03EFD00F038
:102CF00009FD00F04EFDD12000F037FD00F002FD8F
:102D000000246E1E0BE000F00CFD3855B44201DAD1
:102D1000002000E0012000F01DFD641CE4B2AC4284
:102D2000F1D3BDE8F04100F043BD70B50D46044657
:102D300000F02FFDD02000F018FD00F0E3FC20464D
:102D400000F013FD00F0DEFC284600F00EFD00F060
:102D5000D9FCBDE8704000F02BBDFEE708B50121AD
:102D6000082000F0EFFB10208DF803004FF47040B6
:102D7000ADF8000003208DF8020069460248FFF715
:102D80006BFE00F077FB08BD000C01402DE9F0411F
:102D90000C4601461F48654201290FD0022936D151
:102DA0008E034F03002C25DB31460546FFF7ABFEB3
:102DB00039462846FFF7A5FEA0B224E04FF480561E
:102DC0007700002C09DB31460546FFF79CFE3946AB
:102DD0002846FFF796FEA0B208E039460446FFF702
:102DE00092FE31462046FFF78CFEA8B2BDE8F041C6
:102DF00000F08ABB39460446FFF785FE314620467F
:102E0000FFF77FFEA8B2BDE8F04100F082BBBDE84D
:102E1000F0810000000C01407047000030B50F2326
:102E2000C27801780125F2B1144A126801F1E0215B
:102E300002F4E062C2F5E062120AC2F10404D34077
:102E40004278A24084781C401443220181F8002477
:102E5000007800F01F018D404009800000F1E02063
:102E6000C0F8005130BD01F01F00854048098000C6
:102E700000F1E020C0F8805130BD00000CED00E012
:102E80000249084302490860704700000000FA0543
:102E90000CED00E010B50021074C0A46002004EBC1
:102EA000C1131A54401CC0B28028FAD3491CC9B2BD
:102EB0000829F3D310BD00001C010020F0B501EB80
:102EC000030C20E00446871819E07F2C15D8002950
:102ED00013DB3F2911DCCB1701EB5376F5100B4BBD
:102EE00026F0070603EBC5132344A1EB060E1D785D
:102EF000012606FA0EF6B5431D70641C24B2A742E3
:102F0000E3DC491C09B28C45DCDCF0BD1C0100206F
:102F100038B500214FF47A720020401C9042FCD357
:102F2000491C9142F8D30121082000F00BFB14202A
:102F30008DF8030003208DF802004FF480700A4CD6
:102F4000ADF8000069462046FFF786FD6115ADF833
:102F5000001069462046FFF77FFD012000F0ECF9E4
:102F6000012000F0F1F938BD000C014070B50024DB
:102F70000546802626FA04F0284000D0012000F003
:102F8000E3F9012000F0D8F9002000F0D5F9641C25
:102F9000E4B2082CEED3012000F0CEF9BDE8704079
:102FA000002000F0C9B910B5012000F0CDF90120D2
:102FB00000F0C2F9002000F0C7F9BDE81040002081
:102FC00000F0BAB910B5002000F0BEF9012000F001
:102FD000B3F9BDE81040012000F0B6B910B5FFF715
:102FE00097FFAE2000F0B8F9D52000F0B5F98020A9
:102FF00000F0B2F9A82000F0AFF93F2000F0ACF9E2
:10300000D32000F0A9F9002000F0A6F9402000F03C
:10301000A3F9A12000F0A0F9C82000F09DF9DA2062
:1030200000F09AF9122000F097F9812000F094F94D
:10303000CF2000F091F9D92000F08EF9F12000F0B6
:103040008BF9DB2000F088F9302000F085F9A4200E
:1030500000F082F9A62000F07FF98D2000F07CF9C5
:10306000142000F079F9AF2000F076F9FFF712FF95
:10307000BDE8104000F04CB90FB470B5C0B01446B4
:103080000D46064648AA68464799FDF7F3F82346D9
:103090006A462946304600F08DF840B070BC5DF8B5
:1030A00014FB10B50C4640F0B00000F055F91020AC
:1030B00040EA141000F050F904F00F00BDE8104091
:1030C00000F04AB908B5082B0DD0062B0AD10A4BDF
:1030D00002EB420203EB4202C03A009208230622AE
:1030E00000F00EF808BD054B03EB0212A2F50072CA
:1030F000102300920822F3E7F0690008006400083A
:103100002DE9FF4F1F4616460D460024DDF834A07A
:103110000098FFF7D3FE7F1EF81707EB50700121D0
:10312000DFF88CB001EBE00E3DE0002037E00099C5
:103130000B187F2B31D8E91705EB5171CA1021F01C
:103140000701691A002D03DA521E083112B209B2C2
:103150002244072A0ED804FB06F70AEB00080BEB03
:10316000C21917F8087019F803C08F404CEA070C11
:1031700009F803C0571C072F0FD80BEBC21204FB32
:1031800006F70AEB000C1A4417F80C7012F8803F8F
:10319000C1F10801CF403B431370401CC0B2B042A4
:1031A000C5D3641CE4B2A645BFDCBDE8FF8F0000B8
:1031B0001C0100202DE9FF4F002483B099461646DC
:1031C00082462546A34698E0100610D48DF80420C8
:1031D000641C0AEB0500A4B28DF805B000B24B46A2
:1031E0000499FFF76FFF05EB090085B285E0062023
:1031F000B0EB521F0DD1641CA0B28DF80420315CDD
:1032000000297ED08DF80510401C84B28DF806B0E0
:1032100037E00E20B0EB121F14D1641CA0B28DF861
:103220000420315C00296CD0401C80B28DF8051060
:10323000315C002965D08DF80610401C84B28DF8F1
:1032400007B01EE01E20B0EBD20F1CD1641CA0B250
:103250008DF80420315C002953D0401C80B28DF8D9
:103260000510315C00294CD0401C80B28DF806104E
:10327000315C002945D0401C8DF8071084B28DF8D0
:1032800008B0002709E0641CA4B236E0404601A95A
:10329000FDF716F868B17F1CBFB207EB870000EBA3
:1032A000471119480844804618A1FDF709F800287D
:1032B000ECD1B9F1080F03D0B9F1060F1DD112E01E
:1032C00007EB870000EB47110F4810230844401D0F
:1032D00000900AEB050000B21A460499FFF710FFB0
:1032E000103509E00DE00AEB050000B206233F228D
:1032F0000499FFF7E7FEAD1DADB2325D002A7FF401
:1033000063AF07B0BDE8F08F2A6C00080000000032
:1033100070B5084D002400212046FFF7C2FE05EBE2
:10332000C410802100F029F8641CE4B2082CF2D308
:1033300070BD00001C01002002464FF4807101485E
:10334000FFF7E3BB000C014002464FF40071014857
:10335000FFF7DBBB000C014010B50446FFF723FE6E
:103360007820FFF703FE0020FFF700FE2046FFF75E
:10337000FDFDBDE81040FFF725BE70B50D460646C1
:10338000FFF711FE7820FFF7F1FD4020FFF7EEFD7B
:10339000002404E0305DFFF7E9FD641CE4B2AC42B8
:1033A000F8D3BDE87040FFF70DBE002101638160D6
:1033B0000162C161816101604160704770B504467E
:1033C0008069E061D4E9000102F0FAFEA0612069A1
:1033D000274920F0004002F0C1FE47D2A169206ACF
:1033E00002F06AFC2062616B02F0B8FE01D2606BF1
:1033F0002062A16B206A02F0B1FD01D2A06B2062B5
:10340000216B606802F0DCFE616902F0DBFD0546BD
:10341000216A206902F0D6FD0646A169E06802F043
:10342000D1FD314602F048FC294602F0C9FEA060F9
:10343000B0F5000F03DBE16A02F03EFCA06010F182
:10344000FF4F03D3E16A02F0BBFEA060616A02F0A5
:1034500085FE01D2606AA060A16AA06802F07EFDCC
:1034600001D2A06AA0606068206370BD0020C6E73A
:1034700017B7D13830B5012189B0084600F056F8A9
:103480000121042000F05EF818208DF81F000320B1
:10349000ADF81C008DF81E0007A91A48FFF7DCFAEA
:1034A0004FF08045284600F00FFD0024ADF816408F
:1034B0006320ADF81400ADF812402320ADF81000E1
:1034C0008DF8184004A9284600F0BCFD684600F0BD
:1034D00081FD6020ADF800000120ADF80200ADF8DC
:1034E0000840ADF806406946284600F0F3FC6946FE
:1034F000284600F02FFD0121284600F00DFC09B000
:1035000030BD00000008014001464FF0804000F04F
:103510006BBD01464FF0804000F068BD0149086274
:103520007047000000000E4270470000044A002966
:10353000D16901D0014300E08143D16170470000AF
:1035400000100240044A0029916901D0014300E0C3
:1035500081439161704700000010024030B5204A5D
:103560005168204B11F00C0103D0042901D0082927
:1035700001D0036012E05168536801F470114FF0FC
:10358000020413F4803F04EB914102D053689B0383
:1035900001D5154B00E0134B5943016051680F23CF
:1035A00003EA1111114B5C5C0168E1404160546811
:1035B000072505EA14241C5D21FA04F4846054688C
:1035C00005EAD4241B5DD940C1605268032303EA95
:1035D0009232064B1B1F9A5CB1FBF2F1016130BDC8
:1035E0000010024000127A0000093D000400002093
:1035F0000649002281F8202081F82020012802D0ED
:10360000042802D1052081F82000704700100240F4
:10361000704700000CB50022264800920192016814
:1036200041F4803101604FF4A063016801F400317E
:1036300001910099491C0091019911B90099994291
:10364000F3D10168890333D5012101911A490A6830
:1036500042F010020A600A6822F003020A600A6857
:1036600042F002020A60416841604168416041687D
:1036700041F480614160416821F47C1141604168FE
:1036800041F4E8114160016841F080710160016816
:103690008901FCD5416821F003014160416841F096
:1036A000020141604168C1F381010229FAD10CBDD8
:1036B00001920CBD001002400020024008B501211B
:1036C0000820FFF73FFF14208DF803004FF44060FF
:1036D000ADF8000003208DF8020069460448FFF7AA
:1036E000BBF9012000F078F8012000F06DF808BD6A
:1036F000000C01404FF400610148FFF7FBB90000E6
:10370000000C014010B5012000F066F8012000F027
:103710005BF8FFF7EFFF0446002000F055F8204665
:1037200010BD70B50025012000F056F80024802659
:10373000012000F049F8FFF7DDFF10B126FA04F090
:103740000543002000F040F8641CE4B2082CEFD3DD
:10375000284670BD10B500F03FF8012000F034F8A5
:10376000BDE81040002000F02FB870B505460024D9
:1037700005FA04F0C0F3C01000F02EF8012000F0AC
:1037800023F8002000F020F8641CE4B2082CEFD3EA
:1037900070BD10B5012000F01FF8012000F014F8F2
:1037A000002000F019F8BDE81040002000F00CB82F
:1037B00010B5002000F010F8012000F005F8BDE879
:1037C0001040012000F008B802464FF48061014823
:1037D000FFF79BB9000C014002464FF4006101481D
:1037E000FFF793B9000C0140704700000F4810B577
:1037F000016841F00101016041680D4A11404160DA
:1038000001680C4A11400160016821F480210160C7
:10381000416821F4FE0141604FF41F018160FFF710
:10382000F9FE05494FF00060086010BD001002402D
:103830000000FFF8FFFFF6FE08ED00E070B5048C15
:1038400024F001040484058B048C4FF6FF7606EA0D
:103850000313134325F0F3050E4A2B4390420ED079
:103860000D4A90420BD0B0F1804F08D00B4A9042E5
:1038700005D00B4A904202D00A4A904202D124F06D
:10388000020201E024F00A020A4342F0010103832C
:10389000018470BD002C0140003401400004004050
:1038A00000080040000C0040F0B5048C24F0100427
:1038B0000484078B048C4FF6FF7527F4734705EAE1
:1038C00003333B4305EA02221A43114B05EA011672
:1038D00098420ED00F4B98420BD0B0F1804F08D0D9
:1038E0000D4B984205D00D4B984202D00C4B98429C
:1038F00005D124F02001314341F0100104E024F00F
:10390000A0030B4343F0100102830184F0BD0000CB
:10391000002C014000340140000400400008004039
:10392000000C00402DE9FC5F0121E34800F019FA8A
:1039300001287DD1DFF884834FF0804B08F18004AB
:1039400098F802004146401CC0B288F80200A4F179
:103950003C0A04F13C054FF00009322869D30E46B9
:1039600081F802900120FEF7C9FF01F0FBFED44F61
:1039700000223B4601F062FDD24AD34B01F05EFDCE
:103980004FF03332D14B01F059FD01F069FCB062C8
:103990000220FEF7B3FF01F0E5FE00223B4601F0F6
:1039A0004DFDC84AC84B01F049FD4FF03332C74BBB
:1039B00001F044FD01F054FC0746F062B06A39465C
:1039C000009002F079F94FF0FF3102F0D5FC30633E
:1039D0003946009802F0F4FB7063B07900286BD090
:1039E0003078B04630B300F0D1FBB9490746884281
:1039F00030DAD8F81C1021603846D8F8201002F0D0
:103A0000E1FAB449884206D2B349884203DA4FF05A
:103A1000FF3102F0B1FC286000F0A0FB0646C007B1
:103A20000AD0B00708D45946286802F0C9FB02E062
:103A30003FE141E02BE02860300706D5700704D451
:103A40005946286802F038F92860C8F8247088F8C8
:103A500001901CE098F801004246401CC0B288F872
:103A600001000A280DD2D0692060D8F8240010F196
:103A7000FF4F03D34FF04040286008E0C5F800B086
:103A800005E09649D8F81C0002F09CFA2060D8F8AE
:103A900030006060894846468030FFF78FFCA1689F
:103AA000CAF80010706B68608448BC30FFF786FC71
:103AB000A86802F037FAF08198F803004746401CE6
:103AC000C0B288F80300192847D3B87990B3387882
:103AD00080B387F8039000F059FB7D490646884281
:103AE00029DAF86920603046396A02F06BFA7949C0
:103AF000884206D27849884203DA4FF0FF3102F05B
:103B00003BFC286000F02AFB0446C00706D0A00753
:103B100004D45946286802F053FB2860200706D5D4
:103B2000600704D45946286802F0C6F828607E620F
:103B300087F8019011E07878401CC0B278700A28AC
:103B40000BD2F8692060786A10F1FF4F03D34FF071
:103B50004040286001E0C5F800B03879401CC0B290
:103B600038710A287ED3554987F804901A31881E87
:103B7000CDE90001831E021F811F0838FFF762F89C
:103B8000B7F9140001F0EEFD04460D46B7F9100038
:103B900001F0E8FD22462B4600F0A4FE504A514BAE
:103BA00001F04CFC0022504B01F030FE01F058FBBC
:103BB000398B0E310CB23C834C4902F07DF806463D
:103BC000B863204601F0CEFD6FF00E0202F0A6FBB6
:103BD0000022474B01F01AFE464A474B01F016FE01
:103BE00004460D46386C02F03BF822462B4601F0A5
:103BF00069FB01F035FB424A0146F8633F4D104630
:103C000002F0E0F904463146284602F0DBF921468D
:103C100002F052F83B493864884202DC3A49884253
:103C200002D987F806903EE0B979E1B3CAF80400FA
:103C3000224854464430FFF7C1FBA06880F00040A2
:103C400002F070F9B881B7F90E10642301EBD1725C
:103C500000EB6201A0EB620009B2398100B2788109
:103C60005A4200E017E0642901DD3B8102E0914205
:103C700000DA3A81642801DD7B8102E0904200DABB
:103C80007A81387A41B20120FFF780F8B87A41B2E0
:103C90000220FFF77BF8FEF793FFBDE8FC5F0121F0
:103CA000054800F036B800210120FFF76FF8002129
:103CB000EEE7BDE8FC9F0000002C0140140000204E
:103CC000000046409A9999999999A93F3333234026
:103CD0000000C8429A9919C09A9919409A99993E38
:103CE0004AD8124DFB210940008066C000002040E8
:103CF00000409F407B14AE47E17A843F0AD7233CC3
:103D0000A4707D3F00004842000048C2C9430182C0
:103D10007047C943018270470029018802D041F0F1
:103D2000010101E021F001010180704770B50589B2
:103D3000048B068C25F007050D434FF6FC410C4023
:103D400040F201110C434FF6FF7101EA031126F016
:103D500022061143314305810483018470BD808CA8
:103D6000704702460020138A92890B4202EA010240
:103D700002D0002A00D00120704700002DE9F84F42
:103D80000D4604460888434FDFF80CC1DFF80C816C
:103D9000DFF80C914988AA882B894FF0804A48B3F4
:103DA000042830D04FF6FF760828934634D0208C74
:103DB0009E4620F480502084A38B208C06EA01329A
:103DC000009223F4734306EA0B221A4306EA0E33E9
:103DD0001343BC420AD0644508D0544506D044453C
:103DE00004D04C4502D02F4A944245D120F40050D3
:103DF000009943E02046FFF721FDE9882046BDE811
:103E0000F84F00F0F7B82046FFF74EFDE98820464E
:103E1000BDE8F84F00F0F6B8208C20F480702084C4
:103E2000B4F81CE0208C06EA031306EA01222EF007
:103E3000F30E43EA0B0343EA0E030092BC420AD09E
:103E4000644508D0544506D0444504D04C4502D0C2
:103E5000144A944203D120F40070009901E020F448
:103E60002060084340F48070A3832084E9882046C2
:103E7000BDE8F84F00F0D2B820F40240084340F407
:103E80008050A3832084E9882046BDE8F84F00F0E5
:103E9000CDB80000002C0140003401400004004077
:103EA00000080040000C00400021018041800122F8
:103EB0008280C18001817047002A828901D00A4333
:103EC00000E08A4382817047018921F00701018166
:103ED0007047000030B5028C22F001020284028C8F
:103EE0008388048B22F0020224F073050C882C4393
:103EF0000D8915434A882A43114DA8420BD0114D14
:103F0000A84208D0104DA84205D0104DA84202D0BA
:103F10000F4DA8420DD122F008054A8923F44073C1
:103F20002A4322F004058A882A438D891D43CB89C0
:103F30002B4383800483C9888186028430BD0000BE
:103F4000002C014000340140004001400044014089
:103F50000048014070B5028C22F010020284028CED
:103F60008388048B0D8824F4E6464FF6FF7404EA38
:103F7000052535430E8922F0200204EA0616164371
:103F80004A8804EA02123243104EB04202D0104E68
:103F9000B04215D122F080064A8923F4406304EA36
:103FA0000212324322F040068A8804EA02123243A7
:103FB0008E8904EA86061E43CB8904EA83033343D1
:103FC00083800583C9880187028470BD002C01406D
:103FD000003401400021018041808180C180018145
:103FE00041818181C1817047818670470187704717
:103FF00081847047028B22F00C020283028B0A43F9
:1040000002837047028B22F440620283028B4FF6D8
:10401000FF7303EA01210A4302837047828B22F077
:104020000C028283828B0A4382837047828B22F444
:1040300040628283828B4FF6FF7303EA01210A43B9
:104040008283704730B502881B4C1C4DA0420DD0B6
:10405000A8420BD0B0F1804F08D0194B984205D040
:10406000184B984202D0184B984203D122F07003AB
:104070004A881A43154B984206D0154B984203D0F4
:1040800022F44073CA881A4302808A8882850A888B
:104090000285A0420AD0A84208D00E4A904205D01C
:1040A0000D4A904202D00D4A904201D1097A018610
:1040B0000121818230BD0000002C0140003401400C
:1040C0000004004000080040000C004000100040C8
:1040D00000140040004001400044014000480140FD
:1040E0001FB50121C802FFF72DFA1B4C2046FFF730
:1040F000EBFE0021ADF8061040F2E730ADF80210FB
:10410000ADF804004720ADF800008DF808106946AE
:104110002046FFF797FF01212046FFF7F7FD012218
:1041200011462046FFF7C8FE4FF4A060FEF7A8FE38
:1041300019208DF80C0001218DF80F1002208DF848
:104140000D008DF80E1003A8FEF768FE0121204631
:10415000FFF7E2FD1FBD0000002C014010B5002458
:1041600000F05EF800B1012400F066F808B144F0F8
:10417000020400F06DF808B144F0040400F074F893
:1041800008B144F00804204610BD00002DE9F043BA
:1041900085B000F045F88DF8100000F04DF88DF86E
:1041A000110000F055F88DF8120000F05DF88DF860
:1041B000130018484FF0000845460FC88DE80F005F
:1041C000444604AE6F464FF07E59305D50B157F80B
:1041D0002410404601F070FD80464946284601F013
:1041E0006BFD0546641CE4B2042CEED3B5F17C5F94
:1041F00003DA094805B0BDE8F0830848854201DDCF
:104200000020F7E705B029464046BDE8F04301F03D
:10421000C7BD0000306D000800C079440000604058
:1042200010B54FF480410348FEF764FC012800D02C
:10423000002010BD0010014010B54FF4007103487C
:10424000FEF758FC012800D0002010BD00080140F6
:1042500010B54FF480610348FEF74CFC012800D0F4
:10426000002010BD0008014010B54FF40041034884
:10427000FEF740FC012800D0002010BD00100140D6
:1042800008B501210420FFF75DF901211020FFF797
:1042900059F901214FF0C050FFF748F90120FFF70D
:1042A0003DF90020FFF7A4F90020FEF7C5FA002031
:1042B000FEF7B8FA48208DF8030003208DF80200BD
:1042C0004002ADF8000069460548FEF7C5FB4FF413
:1042D0004040ADF8000069460248FEF7BDFB08BD4E
:1042E000000801400010014070B50B4C40F225550C
:1042F0002946204600F05EF801280CD1204600F047
:10430000E7F8064A29461070012050702046BDE8A3
:10431000704000F03FB870BD00380140100100202F
:104320002DE9F041184C40F225552946204600F071
:1043300041F8012825D1204600F0CAF81349C2B23D
:1043400000230878012610B1012806D00CE05B2A72
:104350000AD1887840B90E7005E00D4F5D2A09D06A
:104360004B78FA545B1C4B7029462046BDE8F0415F
:1043700000F010B80B7048783B54401C48708E70A9
:10438000F2E7BDE8F0810000004400401201002087
:104390001C0500200A0A01219140C9430180704791
:1043A0000029818902D041F4005101E021F400513B
:1043B0008181704770B501F01F0501260024C1F30B
:1043C000421306FA05F2012B0FD0022B0FD0838A7D
:1043D0004FEA11210088134206FA01F600EA0600AE
:1043E00001D000B10124204670BD8389F0E7038A23
:1043F000EEE710B5C1F3421301F01F040121A14003
:10440000012B07D0022B07D01430002A026805D0F8
:104410000A4304E00C30F8E71030F6E78A43026004
:1044200010BD000030B50446008A85B00D464CF63C
:10443000FF710840E98801432182A0894EF6F311FB
:104440000840A9882A8911436A8902431143A1813E
:10445000A08A4FF6FF410840A9890143A18268461E
:10446000FFF77CF81948844201D1039800E00298D4
:10447000A189090400EBC00101EB0010296801D5F6
:10448000490000E08900B0FBF1F06422B0FBF2F1DA
:1044900009010B096FF018056B4300EB8300A3893A
:1044A0001D044FF0320306D503EBC000B0FBF2F061
:1044B00000F0070005E003EB0010B0FBF2F000F0A5
:1044C0000F000843208105B030BD000000380140D6
:1044D0008088C0F308007047FEE7490050EAC12019
:1044E00018BF04204A0D18BF40F0010040F2FF72CF
:1044F000B2EB515F08BF40F00200012808BF052061
:1045000070472DE9F0414F1E00EBC7010446D1E989
:10451000000115461E4637F006020DD02A463346E6
:1045200001F074F97F1E04EBC703D3E9002300F008
:10453000C9FE37F00602F1D1022F25D0042F13D087
:10454000062F18BFBDE8F0812A46334601F05EF918
:10455000D4E90A2300F0B6FE2A46334601F056F9A4
:10456000D4E9082300F0AEFE2A46334601F04EF9A6
:10457000D4E9062300F0A6FE2A46334601F046F9A8
:10458000D4E9042300F09EFE2A46334601F03EF9AA
:10459000D4E9022300F096FE2A46334601F036F9AC
:1045A000D4E90023BDE8F04100F08CBE012201F007
:1045B000B5BE00F087BE40F2013200204FF0E0416E
:1045C00001F0ACBE024A0020110701F0A7BE0000B6
:1045D00001FDFFFF10B50446D1E9000100F002F82B
:1045E000206010BDF8B504460D466A4600F050FA4A
:1045F00000987E30009000281EDC002213462046E2
:10460000294601F073F817D0002140F608004FF05A
:10461000000006462046294600F022FE044640F6E9
:10462000080006EA00014FF0000034F0004004BF2B
:104630000220FBF792FE29E00098FF2828DB0021EA
:1046400008464FF0000000F44006002213462046C2
:10465000294601F0D9F98CBF002501250220FBF77E
:104660007CFE4FF0FF4446B1002D0CBF4FF400001C
:104670004FF48000B04218BF084C042108464FF0A8
:104680000000002D04BF84F00040F8BD2046F8BDB6
:1046900020462946BDE8F84000F0E2BDFFFF7F7FDD
:1046A00010B504460A46D4E90003194600F01CFA86
:1046B000C4E9000110BD30380A2801D2012070473A
:1046C000002070472DE9F84F04460D4621F00040C8
:1046D00000917349814211DC7249884201DC06D1A4
:1046E0002CB120462946BDE8F84FFFF75FBF6E4862
:1046F000002DCCBF6D496E49BDE8F88F6D498142F0
:1047000011DD6D498142D8BF4FF0FF366DDD204687
:104710002946FFF7E2FE042808BFFFF753FF2046B3
:104720002946BDE8F88F6549654F25F0004581426F
:1047300033DD6449814219DD002632464FF0804363
:104740002046294600F0BEFD80468A4601222046CA
:10475000294601F0E3FD00223B4601F097F942466D
:10476000534600F06BFE04460D463EE00126002253
:10477000BA463B462046294600F0A4FD80460F4637
:10478000002253462046294601F080F942463B4626
:1047900000F054FE04460D4627E04B4981421BDDE4
:1047A000DFF828A10226002253462046294601F0C0
:1047B0002DF800223B4600F085FD80460F46002282
:1047C00053462046294601F061F942463B4600F037
:1047D00035FE04460D4608E0032622462B460020FF
:1047E0003B4900F02BFE04460D4622462B46104660
:1047F000194601F00BF88B46824602460B4601F043
:1048000005F807460246334888460B460621784499
:10481000FFF777FE52465B4600F0F8FF82462E48CF
:104820008B463A46434605217844FFF76AFE3A46EE
:10483000434600F0EBFF02460B46002E5046594619
:104840000CDA00F03FFD22462B4600F0DFFF01B0FE
:1048500022462B46BDE8F04F01F00CB900F032FDC6
:1048600022462B4600F0D2FF1C4A7A4402EBC603D4
:10487000D3E9002301F00AF922462B4601F006F99C
:10488000174A7A4402EBC603D3E9002301F0F2F899
:10489000009A002AB8BF81F00041BDE8F88F0000FF
:1048A000000010440000F07F182D4454FB21F93F14
:1048B000FB21F9BF0000DC3F0000203E0000F33F79
:1048C0000000F03F0000E63F008003400000F83F9A
:1048D0000000F0BFDE2500009C2500003A25000006
:1048E000022500002DE9F04D9446CCF1000423F0A0
:1048F00000464CEA0404524F46EAD4749A4688466D
:1049000021F00042BC4206D8454240EA050442EA92
:10491000D474BC4204D9BDE8F04D6246FFF749BEED
:10492000AAF14055A5F17F6555EA0C040BD002248D
:1049300004EAAA74434DDFF810E144EAD87452EA5D
:10494000000B04D00CE0BDE8F04DFFF7BBBE002C1F
:1049500014BF012CBDE8F08D022C30D0032C32D0D6
:1049600056EA0C0B0AD0BE4220D1BA4209D126F039
:10497000804622F080423346114617E000291ADBB8
:1049800025E0DFF8C8B0FB44002C04BFDBE90001E0
:10499000BDE8F08D012C02BFDBE9000181F0004190
:1049A000BDE8F08D022C0AD0032C0CD0BA4212D1F3
:1049B000B8F1000F0BDA23482549BDE8F08D2846F1
:1049C0002449BDE8F08D28467146BDE8F08D1D48AC
:1049D0002149BDE8F08D921B12153C2AC4BF19482D
:1049E0001D490EDCBAF1000FBEBF12F13C0F0020D2
:1049F000014606DB624600F021FD21F00041FFF791
:104A000061FE002C08BFBDE8F08D012C04BF81F0D1
:104A10000041BDE8F08D114A114B022C07D001F086
:104A200035F82A46BDE8F04D0A4B01F02FB801F0E9
:104A30002DF82A46BDE8F04D064B01F01BB80000EA
:104A40000000F07F182D4454FB2109C0962400007B
:104A5000FB21F9BFFB210940FB21F93F075C14331F
:104A600026A6A13C30B583B00446FBF771FC054691
:104A70000020CDE90000024621466846FBF744FFCE
:104A80002846FBF76AFCDDE9000103B030BD0000F9
:104A900010B5144600222260114A21F000439342CF
:104AA000A8BF10BD53EA000208BF10BDB3F5801FB8
:104AB000A8BF226807DA362201F030FC6FF0350219
:104AC00021F000432260DFF81CC06FF31E510CEB95
:104AD00023531A4441F0FF5141F00051226010BDB0
:104AE0000000F07F02FCFFFF2DE9F04106460C4676
:104AF00040F2FF75174635EA14502BD000221346BA
:104B0000304600F0F3FD25D03A463046214601F00C
:104B100005FC06460C4635EA145010D00022134618
:104B2000304600F0E3FD15D10220FBF716FCFFF73D
:104B300049FD0A46214662F31E01BDE8F0810220CC
:104B4000FBF70BFCFFF737FD0A46214662F31E0117
:104B5000BDE8F08130462146BDE8F0811FB5FEF783
:104B600057F8FEF73BFAFFF7BBFAFEF703F8FEF73C
:104B700092F8FEF7F3F8FDF7D9FEFFF781FBFDF79A
:104B800061FEFA4E4FF0010A06F13C074FF00008B3
:104B9000DFF8DC93FDF7C0FFF44C803C0128607126
:104BA00013D1A07920B184F8068084F8008028E031
:104BB000EE483C38FEF7F9FBEC48FEF7F6FBEB4815
:104BC0003C30FEF7F2FB84F806A06079022813D18E
:104BD000A079B0B1207810B184F800800EE0E348ED
:104BE0003C38FEF7E2FBE148FEF7DFFBDF483C30F4
:104BF000FEF7DBFB84F800A0A07910B1FEF700F807
:104C000001E0FDF7F5FFFEF745F9206C01F028F80B
:104C1000CDE900010021D7A306220846FEF72CFAB1
:104C2000D24D3C3DE86801F01BF8CDE90001D3A36B
:104C3000062208210020FEF71FFA286901F010F86B
:104C4000CDE90001D0A3062210210020FEF714FABE
:104C5000686901F005F8CDE90001CEA3062218210C
:104C60000020FEF709FA286800F0FAFFCDE90001FC
:104C7000CBA3062220210020FEF7FEF9206C00F0D5
:104C8000EFFFCDE90001C9A3062228210020FEF78D
:104C9000F3F9A86800F0E4FFCDE90001C6A30622FD
:104CA00030210020FEF7E8F9B4F918000090C5A300
:104CB000062238210020FEF7DFF9E86A00F0D0FF75
:104CC000CDE900013821C2A306220846FEF7D4F937
:104CD000206C00F0C5FFCDE90001C1A30622002130
:104CE0003220FEF7C9F9F06800F0BAFFCDE9000103
:104CF000BDA3062208213220FEF7BEF9306900F07C
:104D0000AFFFCDE90001B8A3062210213220FEF743
:104D1000B3F9706900F0A4FFCDE90001B2A3062247
:104D200018213220FEF7A8F9306800F099FFCDE98C
:104D30000001AFA3062220213220FEF79DF9206C4E
:104D400000F08EFFCDE90001A9A306222821322020
:104D5000FEF792F9B06800F083FFCDE90001A4A34B
:104D6000062230213220FEF787F9206C00F078FF10
:104D7000CDE90001A0A3062200215820FEF77CF90E
:104D8000F86800F06DFFCDE9000197A30622082125
:104D90005820FEF771F9386900F062FFCDE9000193
:104DA00091A3062210215820FEF766F9786900F0D9
:104DB00057FFCDE900018CA3062218215820FEF7E9
:104DC0005BF9386800F04CFFCDE9000188A30622AA
:104DD00020215820FEF750F9206C00F041FFCDE96A
:104DE000000183A3062228215820FEF745F9B86860
:104DF00000F036FFCDE900017DA3062230215820C6
:104E0000FEF73AF9207830B37DA3062238214820F6
:104E1000FEF732F9FFF7A2F9C10701D0312100E016
:104E20003021820701D5312200E03022430701D52D
:104E3000312300E03023000701D5312000E030208D
:104E4000CDE90003CDE902216FA3062238215A20C3
:104E5000FEF712F905E06FA3062238214820FEF77D
:104E60000BF9FEF755FA99F8000001287FF492AE8D
:104E70006BA16C48FBF71EFA83466BA1FBF720FA87
:104E800088B16AA15846FBF71BFAA8B169A1584638
:104E9000FBF716FA00285CD068A15846FBF710FA19
:104EA000002859D0A9E15EA10020FBF703FA5CA11C
:104EB0000020FBF7FFF9A0E159A10020FBF7FAF968
:104EC000009057A10020FBF7F5F983465EA10098FA
:104ED000FBF7F6F9002844D05DA10098FBF7F0F944
:104EE00000283FD05CA10098FBF7EAF900283AD0EF
:104EF0005BA10098FBF7E4F9002835D05AA100988F
:104F0000FBF7DEF918B35AA10098FBF7D9F9F8B10D
:104F100059A10098FBF7D4F9E0B159A10098FBF72B
:104F2000CFF9C0B158A10098FBF7CAF9A8B158A1B0
:104F30000098FBF7C5F988B157A10098FBF7C0F9B5
:104F400068B157A10098FBF7BBF948B155E1C9E03A
:104F5000CFE0FFE0D4E0DAE019E1DFE0E5E0EBE00C
:104F6000F1E0A3E0A9E0AFE0B5E00000940000208C
:104F7000140100202020416E676C6500503A2530F6
:104F8000352E326600000000493A2530352E326653
:104F900000000000443A2530352E32660000000043
:104FA000543A252B30352E3166000000413A252B2E
:104FB00030352E31660000004F3A252B30352E312A
:104FC0006600000047593A252B3035640000000088
:104FD0004F66667365743A2530322E3066000000E5
:104FE00053706565640000002530352E3266000080
:104FF000252B30352E3166005475726E000000008E
:1050000054524B3A4F4E00002563256325632563B8
:105010000000000054524B3A4F464620200000004A
:105020002C0000001C0500206B657900736C69641E
:1050300065720000747261636B0000006A6F7973BF
:105040007469636B00000000416E676C654B700013
:10505000416E676C654B6900416E676C654B64001F
:1050600053706565644B700053706565644B6900EF
:1050700053706565644B64005475726E4B7000002C
:105080005475726E4B6900005475726E4B6400006B
:105090004F66667365740000547261636B4B7000F9
:1050A000547261636B537065656400005846FFF786
:1050B000D9FC00F0D5F8E8609FE05846FFF7D2FC35
:1050C00000F0CEF8286198E05846FFF7CBFC00F0DE
:1050D000C7F8686191E05846FFF7C4FC00F0C0F8DB
:1050E000F0608AE05846FFF7BDFC00F0B9F8306187
:1050F00083E05846FFF7B6FC00F0B2F870617CE040
:105100005846FFF7AFFC00F0ABF8F86075E0584682
:10511000FFF7A8FC00F0A4F838616EE05846FFF7EE
:10512000A1FC00F09DF8786167E05846FFF79AFC13
:1051300000F096F8E86260E05846FFF793FC00F054
:105140008FF8206259E05846FFF78CFC00F088F891
:10515000E06152E0AFF238110020FBF7ABF8FBF74B
:105160009BF8C0B2012802D084F8008045E0554683
:1051700084F800A02248FEF718F921483C30FEF7D9
:1051800014F91F487830FEF710F9A57135E0AFF239
:1051900070110020FBF78EF8FBF77EF8AFF280115C
:1051A0000020FBF787F8FBF777F845B2AFF29011D4
:1051B0000020FBF77FF8FBF76FF84FFA80FBAFF2A8
:1051C000A0110020FBF776F8FBF766F82078A0B96D
:1051D000284600F0C7FA0B4C0022234600F02EF9B7
:1051E00000F03EF83060584600F0BCFA002223463A
:1051F00000F024F900F034F8386089F80080C9E440
:10520000580000200000394010B500290AD0087865
:10521000002807D005487844FBF752F8002801D051
:10522000002010BD0248784410BD0000FE1C0000A4
:10523000F61C000010B500290AD00878002807D015
:1052400005487844FBF73CF8002801D0002010BD49
:105250000248784410BD0000EE1C0000E61C00006F
:1052600021F00042A2F16052B2F5801F01F000432C
:1052700028BFD2F17F6C0BD95FEA001C43EAC2025F
:1052800042EB507018BF704728BF20F001007047F4
:10529000B2F5801FBCBF184670474FEA410C1CF5A1
:1052A000001F02D2084600F054BF70B500F058FB52
:1052B00000000089FFF7F6BF4FF00040A0F5800026
:1052C0007047000010B591EA030F48BF83F0004318
:1052D00000F1E483841A71EB030C05D2121943EB3D
:1052E0000C03001B61EB0C01DFF824E14FEA1154C1
:1052F000A4EB135C1EEA430F18BF9EEA445F73D011
:1053000023EA0E03DCF1200E21EA045143F480135A
:1053100032D322FA0CFE10EB0E0023FA0CFE41EB06
:105320000E01CCF1200E03FA0EFE10EB0E0051F12F
:105330000001B1F5801FCCF1200E32D201EB0451F7
:1053400012FA0EF2BDE8104058BF7047401C38BF3B
:105350005FEA420218BF7047002814BF20F0010026
:1053600041F100014FEA410313F5001F38BF7047B8
:10537000A1F1C04100F042BB012A43EB0302ACF1B2
:10538000200CDCF11F0E32BF4FF0000E23FA0CF39D
:1053900010EB030041EB0451B4EB115FD0D0A1EB53
:1053A000045101F5801149085FEA300001EB045116
:1053B0000ED350F1000038BF12FA0EFE08D1BDE83E
:1053C0001040C9E7401C38BF5FEA4202CAD1C3E7B8
:1053D000BDE810404FEA410313F5001F38BF704786
:1053E000A1F1C04100F00ABB9EEA445F08D011EA77
:1053F0005E0FBDE8104004BF01F00041002070477F
:10540000BDE8104070B500F0ABFA00BF64FBBE3ED3
:105410000000E0FF02494FF0000000F04DBF00BF68
:105420000000F87F491058BFC1F140415B1058BFE0
:10543000C3F140438B42EFF3008070472DE9C04138
:1054400030B4DFF8A0C23CEA111418BF3CEA1314D0
:1054500000F0EC8081EA03051CEA111444EAD574DB
:1054600018BF1CEA131500F0C780A4EB05044FF029
:10547000004545EAC12145EAC32341EA505143EAC8
:10548000525304F17F74994204F500344FEAC0206E
:105490004FEAC22208BF904200F09C804FEA136599
:1054A0000FF24016765D4FEA134506FB05F7C7F18C
:1054B000807706FB07F74FEAD737A7FB03687642EA
:1054C000C8F58038A7FB06CE38BFA8F1010807FB56
:1054D00008E64FF0000EA6FB028CE6FB03CEDCF1E3
:1054E000000CCEF1004E38BFAEF1010EA6FB0C58F9
:1054F0004FF000074FF00005E6FB0E87A1FB08C642
:10550000A0FB07CE16EB0E0645F10005E1FB076593
:1055100015F1E04E7EBFA4F580345FEA46066D418A
:1055200016F1800745F100054FEA17274FEA066696
:1055300047EA0567A6F1DE46B6F1805F4FEA15251A
:105540001FD9384624F0010C05EBC471BCF1FE6F85
:1055500001EB0C1102D8F0BCBDE8008124425CBF15
:1055600001F5801E9EEAC47F02D4F0BCBDE8008134
:10557000244238D4F0BCA1F1C041BDE8004100F0A4
:105580003DBA4FEAD22242EA43524FEAD323A7FB65
:1055900002864FEAD02040EA415007FB03661EEA2C
:1055A0000E0F4FEAD12105FB026658BFA6EB00564D
:1055B000B6EB00564FEA520E4EEAC37E18EB0E0EC3
:1055C00056EB530EBDD518EB02085E417F1C55F11A
:1055D0000005B6E74FF480154FF000074FF00006C6
:1055E0004FF00008ADE7F0BC4FF0000001F1C04102
:1055F00001F00041BDE8008111EA0C1F0CEA13150F
:1056000000D00CE013EA0C1F00F025804FF00000E2
:10561000F0BC81EA030101F00041BDE80081F0BC6B
:10562000BDE8004181EA030100F0E8B9F0BCBDE843
:10563000004170B500F094F9097EFC3E00F007B817
:1056400081EA03014FF0000001F00041704781EA58
:10565000030100F0D3B9F0BCBDE800414FF00000F9
:1056600021497047FFFDFBF9F7F5F4F2F0EEEDEBA1
:10567000E9E8E6E4E3E1E0DEDDDBDAD8D7D5D4D350
:10568000D1D0CFCDCCCBCAC8C7C6C5C4C2C1C0BF9C
:10569000BEBDBCBBBAB9B8B7B6B5B4B3B2B1B0AFA2
:1056A000AEADACABAAA9A8A8A7A6A5A4A3A3A2A186
:1056B000A09F9F9E9D9C9C9B9A9999989797969541
:1056C00095949393929191908F8F8E8E8D8C8C8BDD
:1056D0008B8A898988888787868585848483838265
:1056E000828181800000FF070000F87F51EA030CEF
:1056F00017D41CF5801F58BFBCF5801F00F1068031
:10570000994218BF704708BF9042704707D711F5FC
:10571000801F58BF13F5801F19D4994270478942E2
:1057200070471CF5801F08D5BCF5801FF7D58B424C
:1057300018BF704708BF824270474FF4001C1CEB33
:10574000410F38BF1CEB430F01D28B42704770B53D
:1057500000F006F9922449004FF000514FF08053B9
:10576000FFF760BE10F0004248BF4042B0FA80F33D
:1057700010FA03F10AD0C3F11D0303F580634FEA69
:10578000415002EB035202EBD12170474FF0000071
:105790007047000051EA030C17D41CF5801F58BF56
:1057A000BCF5801F00F10680994218BF704708BF02
:1057B0009042704707D711F5801F58BF13F5801F1F
:1057C00019D499427047894270471CF5801F08D54B
:1057D000BCF5801FF7D58B4218BF704708BF8242C7
:1057E00070474FF4001C1CEB410F38BF1CEB430FFC
:1057F00001D28B42704770B500F0B2F89224490094
:105800004FF000514FF08053FFF70CBEDFF848C156
:1058100070B51CEA111E1EBF1CEA13159EEA0C0F80
:1058200095EA0C0F00F06F8081EA030423EA4C1321
:105830004EEAD47E21EA4C1141F4801143F48013E6
:10584000AE44A1FB024CA0FB0365AEF17F7E36198E
:1058500055EB0C05A1FB034C4CF10003A0FB021C13
:1058600016EB0C06654153F10003094218BF46F0E0
:10587000010613F4007F0BD14FEA03314FEA0530E4
:10588000340341EA155140EA16506FF003020AE072
:105890004FEAC3214FEAC520F40241EA555140EADC
:1058A00056506FF0020202EB2E4201EB025585EAE0
:1058B000CE710AD05FEA440C18BF24F0004450F1C6
:1058C000000041F1000120EAD47040F2FE7C624504
:1058D00000D270BDA84214BF4FF080444FF0404446
:1058E000002E08BF0024BEF1806FA8BFA1F1C04107
:1058F000BDE8704080F282804FF0000001F1C041AD
:1059000001F0004170479EEA0C0F0CEA131518BF16
:1059100095EA0C0F06D04FF0000081EA030E0EF05E
:10592000004170BD00F01CF88900013E00F007B88E
:1059300000F009B84FEA430C5FEA5C5C08D081EAEA
:10594000030100F05BB84FEA410C5FEA5C5CF6D102
:105950004FF00000014970470000FF070000F87F8A
:105960000EF1020E2EF0030E5EF8046B364205D4E3
:10597000012A43EB030515F5001F12D8012841EB5E
:10598000010C1CF5001F0CD80ED14FEAD17C15F587
:10599000001F0CEB4C0C0CF1020C08BF4CEBD37C41
:1059A00004E04FF0080C01E04FEAD37C0CEB4C050F
:1059B00026FA05F606F00706B6F1040C06D20EEB41
:1059C000860CBDE870404CF0010C6047DFE80CF03D
:1059D000090B02024FF000414FF00000A1F5002139
:1059E00070BD19461046012851EB010418BFD4F5CB
:1059F000001484BF002001F0004170BD0808A0F52C
:105A000000114FEA3101704753EA010C17D41CF51D
:105A1000801F58BFBCF5801F00F106808B4218BF65
:105A2000704708BF8242704707D713F5801F58BFE1
:105A300011F5801F19D48B4270479B4270471CF5AB
:105A4000801F08D5BCF5801FF7D5994218BF704755
:105A500008BF904270474FF4001C1CEB430F38BF47
:105A60001CEB410F01D2994270470FB40CBC03BC30
:105A7000FFF7C1BE91EA030F10B581F000413FF579
:105A800029AC83F0004300F009B8000010B591EA9A
:105A9000030F48BF83F000433FF51CAC841A71EB41
:105AA000030C07D212198CF0004C43EB0C03001BC3
:105AB00061EB0C01DFF8A4E14FEA1154A4EB135C95
:105AC0001EEA430F18BF9EEA445F00F0B08023EA4D
:105AD0006E03524221EA0451C3EB6E0338BF5B1ED2
