:020000040800F2
:100000005007002091010008FD0A0008D7060008EB
:10001000F90A000869050008D3160008000000006E
:100020000000000000000000000000009D12000819
:100030006D050008000000000D0B00088913000882
:10004000AB010008AB010008AB010008511100082A
:10005000AB010008AB010008AB010008AB010008D0
:10006000AB010008AB010008AB010008AB010008C0
:10007000AB010008AB010008AB010008AB010008B0
:10008000AB010008AB010008AB010008AB010008A0
:10009000AB010008AB010008AB010008AB01000890
:1000A000AB010008AB010008AB010008AB01000880
:1000B000AB010008AB010008AB010008AB01000870
:1000C000AB010008AB010008AB010008AB01000860
:1000D000AB010008E1150008AB010008AB01000806
:1000E000AB010008A90E0008AB01000800F002F8FF
:1000F00000F03FF80AA090E8000C82448344AAF183
:100100000107DA4501D100F034F8AFF2090EBAE880
:100110000F0013F0010F18BFFB1A43F0010318473B
:1001200094220000B4220000103A24BF78C878C19D
:10013000FAD8520724BF30C830C144BF04680C60ED
:10014000704700000023002400250026103A28BF35
:1001500078C1FBD8520728BF30C148BF0B60704739
:10016000632900F08981002070471FB51FBD10B5BD
:1001700010BD00F0A3F91146FFF7F7FF01F0E8FA10
:1001800000F0C1F903B4FFF7F2FF03BC01F0AAFAD3
:100190000948804709480047FEE7FEE7FEE7FEE71B
:1001A000FEE7FEE7FEE7FEE7FEE7FEE70448054957
:1001B000054A064B704700008D130008ED0000084B
:1001C0005001002050070020500300205003002061
:1001D000704700000FB4044910B503AA029800F05C
:1001E00057F910BC5DF814FB2000002070B50C46D8
:1001F0000546012A05D02878800600D5EA69002343
:1002000002E0012305E05B1C934202D2E05C00287F
:10021000F9D1A869E618C01AA861286A18442862AA
:100220002846AFF3008004E0D5E9012114F8010B62
:100230009047B442F8D32846AFF3008070BD000069
:100240002DE9F05F894604464FF0000ADFF874B1EB
:10025000FB44C0F820A02046E1688847002874D0FD
:10026000252806D0D4E901219047206A401C20624D
:10027000F1E700265F462046E168884720280546CA
:1002800007DB312D05D2781910F8200C08B1064390
:10029000F1E7B00701D526F00406C4F81CA000273A
:1002A000C4F818A02A2D09D0284601F014FA38B352
:1002B00004EB8708303DC8F8185019E059F8041BC2
:1002C000204604EB87029161E1688847012F0546CB
:1002D00018D1E069002820DA26F020061DE0D8F8C1
:1002E000180000EB800005EB40003038C8F818001B
:1002F0002046E1688847054601F0EDF90028EED177
:10030000012F0AD02E2D08D12046E16888477F1C96
:100310000546022F46F02006C4DBA069002803DA58
:10032000404246F00106A061F00701D026F0100619
:100330006C2D0BD0682D09D04C2D39D06A2D35D0BD
:10034000742D35D07A2D33D016E038E0E1682F4691
:1003500020468847B842054609D16C2F26D04FF475
:100360008060E168064320468847054604E06C2F1C
:100370001AD04FF4807006430DB3A5F1410019283F
:1003800002D8203546F400664A46294620462660B3
:100390004E46FFF7E5FE80B101280BD0F61D26F092
:1003A000070000F1080956E74020E4E78020D8E77D
:1003B0000020D6E706F104094DE7284652E7206AF7
:1003C000BDE8F09F4C21000010B5203AC0F00B8032
:1003D000B1E81850203AA0E81850B1E81850A0E849
:1003E0001850BFF4F5AF5FEA027C24BFB1E81850A3
:1003F000A0E8185044BF18C918C0BDE810405FEA13
:10040000827C24BF51F8043B40F8043B08BF70478E
:10041000D20728BF31F8023B48BF11F8012B28BF93
:1004200020F8023B48BF00F8012B70477047704727
:100430007047704701694A1C02610878704700B52F
:100440008FB0CDE901310021059105497944CDE90D
:10045000031011466846FFF7F3FE0FB000BD000021
:10046000E5FFFFFF10B5436913B1AFF3008001E072
:10047000FFF7BCFE012010BD127800F124010A70C4
:1004800000224A700122EDE711684FF0FF32E9E7E0
:10049000074B70B50D467B44FFF7D1FF0446284655
:1004A00000F008F810B14FF0FF3070BD204670BD6D
:1004B0009B120000007B00F080007047754600F042
:1004C0002BF8AE4605006946534620F007008546E6
:1004D00018B020B5FFF76AFEBDE820404FF00006D7
:1004E0004FF000074FF000084FF0000B21F007011C
:1004F000AC46ACE8C009ACE8C009ACE8C009ACE85F
:10050000C0098D46704710B50446AFF30080204601
:10051000BDE81040FFF736BE00487047F0000020ED
:1005200010B5012000F014FB002000F011FB10BDFD
:1005300008B5014600200090034800900098084448
:1005400000900098008808BD006C004008B50022AB
:100550000092044A0092009A02440092009A1160AC
:1005600008BD0000006C004000BFFEE770470000BF
:100570000549096821F01001034A11601146096814
:100580000143116070470000002002400146002036
:10059000034A106800F038000843106070470000FC
:1005A000002002402DE9F0410246002500260020EF
:1005B00000230024002791F803C00CF00F0591F8E8
:1005C00003C00CF0100CBCF1000F03D091F802C076
:1005D0004CEA050591F800C0BCF1000F31D0146859
:1005E00000202BE04FF0010C0CFA00F3B1F800C032
:1005F0000CEA03069E4220D183004FF00F0C0CFA48
:1006000003F7BC4305FA03FC4CEA040491F803C069
:10061000BCF1280F06D14FF0010C0CFA00FCC2F817
:1006200014C00AE091F803C0BCF1480F05D14FF0A7
:10063000010C0CFA00FCC2F810C0401C0828D1D3F1
:100640001460B1F800C0BCF1FF0F34DD5468002025
:100650002EE000F1080C4FF0010808FA0CF3B1F895
:1006600000C00CEA03069E4221D183004FF00F0C1C
:100670000CFA03F7BC4305FA03FC4CEA040491F8B6
:1006800003C0BCF1280F05D100F1080C08FA0CF8E2
:10069000C2F8148091F803C0BCF1480F07D100F1F3
:1006A000080C4FF0010808FA0CF8C2F81080401C42
:1006B0000828CED35460BDE8F0810246002093683C
:1006C0000B400BB1012000E0002070470AB101612E
:1006D00000E04161704700BFFEE721B1028842F4AB
:1006E0008062028004E002884FF6FF331A400280E5
:1006F000704770B502460024002500230020958A2B
:10070000138B1B0445EA030626F07F4404EA010626
:100710008E4201D1012000E0002070BD21B102888D
:1007200042F00102028004E002884FF6FE731A4094
:10073000028070471FB500F021F80020ADF80400DA
:100740004BF6FF70ADF80600C020ADF808004FF47E
:100750008060ADF80A000001ADF80C00054800907B
:100760006946054800F05AF801210348FFF7D6FF13
:100770001FBD0000400D03000054004008B50121DA
:100780001C2000F0D5F90121480500F0C1F9C02076
:10079000ADF800001C208DF8030003208DF8020046
:1007A00069460248FFF7FEFE08BD0000000C01404C
:1007B00021B1028842F48072028004E002884FF680
:1007C000FF631A400280704721B1028842F4007230
:1007D000028004E002884FF6FF531A4002807047FF
:1007E0000CB50246002000230193009300920B0FEA
:1007F000019321F07F41019B1BB1009B14330093B7
:1008000003E0090C009B18330093009B1B680B400E
:100810000BB1012000E000200CBD00002DE9F043E9
:1008200085B004460D460026B1460427DFF8CC808B
:10083000A6884FF6C0700640684600F0F7F9DDF86C
:1008400008802F48B8FBF0F01FFA80F946EA090645
:10085000A68020884FF6FE71084020800026294996
:10086000286888420CD828684000B8FBF0F087B2AE
:10087000042F00DA04273E4309F10100208427E019
:10088000E8884BF6FF71884206D1286800EB4000EB
:10089000B8FBF0F087B209E0286800EBC00101EB7B
:1008A0000010B8FBF0F087B247F48047C7F30B00A5
:1008B00008B947F0010747F4004006434FF496702B
:1008C00009FB00F04FF47A7190FBF1F0401C20849A
:1008D000A683208840F00100208026884FF6F5305E
:1008E0000640A8886989084306432680A889298983
:1008F0000843208105B0BDE8F083000000127A00B3
:1009000040420F00A08601002DE9F04106460F4647
:1009100015461C4600BF4FF400313248FFF760FF18
:100920000028F8D101212F48FFF742FF00BF2E49D0
:100930002C48FFF7DEFE0028F9D000223146294876
:1009400000F05AF800BF29492648FFF7D2FE0028D8
:10095000F9D001212348FFF7E1FE3946214800F094
:1009600054F800BF2149891C1E48FFF7C2FE002829
:10097000F8D001211B48FFF71BFF00BF1A49194897
:10098000FFF7B7FE0028F9D001223146154800F0E4
:1009900033F800BF1449491C1248FFF7AAFE00288B
:1009A000F8D016E0012C07D100210E48FFF795FE84
:1009B00001210C48FFF708FF0B493F310948FFF7B9
:1009C00098FE30B1074800F013F828706D1C601EC7
:1009D00084B2002CE6D101210248FFF77EFEBDE87B
:1009E000F081000000540040010003008200070075
:1009F0000146088AC0B2704712B141F0010102E01D
:100A00004FF6FE731940018270470182704701461C
:100A1000CA1701EB92729210A1EB820292B9642084
:100A200091FBF0F200FB121050B94FF4C87091FB2B
:100A3000F0F200FB121008B9012070470020FCE71B
:100A40000120FAE70020F8E7F8B506460024002563
:100A500002236A4600219E20FFF756FF9DF80040C2
:100A60000020307004F0800028B101203070E04395
:100A7000C4B2601CC4B204F0010008B1681CC5B265
:100A800004F0020008B1A81CC5B204F0040008B1CB
:100A9000281DC5B204F0080010B105F10800C5B268
:100AA00004F0100010B105F11000C5B204F02000F0
:100AB00010B105F12000C5B204F0400010B105F1FD
:100AC0004000C5B2761C357000259DF8014004F049
:100AD000200010B105F10C00C5B204F0400010B1C7
:100AE00005F11900C5B204F0800010B105F1320023
:100AF000C5B2761C3570F8BD00BFFEE77047000038
:100B0000014908627047000000000E427047000073
:100B100029B1064AD2690243044BDA6104E0034A70
:100B2000D2698243014BDA61704700000010024035
:100B300029B1064A92690243044B9A6104E0034AD0
:100B400092698243014B9A61704700000010024095
:100B50000149086070470000400442420348406A6F
:100B600040F0807001494862704700000010024068
:100B700010B500F035F84FF4803000F0F3F800F0D5
:100B800077F90446012C24D14FF4E011000400F061
:100B900047F9002000F0DAF8A00200F023F9002065
:100BA00000F02CF90220FFF7F1FC1020FFF7E0FC29
:100BB000012000F02FF900BF392000F0A1F8002833
:100BC000FAD0022000F048F900BF00F0B7F808287A
:100BD000FBD1012144F27C00FFF7AAFF10BD000009
:100BE0000F48006840F001000D4908600846406861
:100BF0000C4908400A494860084600680A4908400C
:100C0000074908600846006820F48020086008460C
:100C1000406820F4FE0048604FF41F008860704771
:100C2000001002400000FFF8FFFFF6FE30B5002183
:100C30000022002400232D4D6D6805F00C0121B128
:100C4000042905D0082923D105E0294D056022E0BB
:100C5000274D05601FE0254D6D6805F47012234D8A
:100C60006D6805F48034022505EB92421CB9214DD4
:100C7000554305600BE01D4D6D6805F400351DB151
:100C80001C4D5543056002E0194D5543056002E0D7
:100C9000174D056000BF00BF144D6D6805F0F001F1
:100CA0000909154D6B5C0568DD4045600F4D6D68A9
:100CB00005F4E061090A104D6B5C4568DD40856014
:100CC0000A4D6D6805F46051C90A0B4D6B5C4568AF
:100CD000DD40C560054D6D6805F44041890B074D49
:100CE0006B5CC568B5FBF3F5056130BD00100240D3
:100CF00000127A0000093D000000002010000020D2
:100D000010B501460022002300204A11012A02D119
:100D1000094C236806E0022A02D1074C236A01E04D
:100D2000054C636A01F01F02012494401C400CB181
:100D3000012000E0002010BD001002400248406881
:100D400000F00C0070470000001002400146002037
:100D5000034A506820F0F0000843506070470000DC
:100D6000001002401149096821F480310F4A1160D6
:100D70001146096821F480211160B0F5803F03D04D
:100D8000B0F5802F0ED106E00849096841F48031A2
:100D9000064A116007E00549096841F4A021034AA9
:100DA000116000E000BF00BF70470000001002406B
:100DB00000210B4A11700A4A203A82F820100128BB
:100DC00002D0042808D103E00121054A117004E093
:100DD0000521034A117000E000BF00BF704700000A
:100DE0002010024001460020034A506820F4E060D1
:100DF0000843506070470000001002400146002088
:100E0000034A506820F4605040EAC10050607047C7
:100E1000001002400149086670470000000042428D
:100E200002460020044B586820F47C1042EA01037B
:100E30001843014B58607047001002400149086098
:100E4000704700003C0442420249096A0143014ADA
:100E5000116270470010024001460020034A5068AA
:100E600020F003000843506070470000001002406B
:100E700038B5002000900024002500BF3120FFF786
:100E80003FFF05460098401C00900098B0F5A06F09
:100E900001D0002DF2D03120FFF732FF08B101243C
:100EA00000E00024204638BD10B5022000F002F911
:100EB000022000F003F800F0D5F910BD02490988BE
:100EC0008143014A118070470428004010B5042076
:100ED000FFF72EFB4AF2A551884207D000F02AF80E
:100EE0004AF2A5510420FFF731FB0DE07B20FFF70C
:100EF00007FF10B97A20FFF703FFFFF72FFE01204D
:100F0000FFF79CFF00F0B8F910BD0000034800880F
:100F100040F010000149088070470000042800409C
:100F2000034800884FF6EF71084001490880704778
:100F30000428004010B501214FF0C050FFF7E8FD34
:100F40000120FFF7DDFDFFF7EBFA0120FFF730FF8F
:100F500000BF4120FFF7D4FE0028FAD04FF4807084
:100F6000FFF772FF0120FFF769FF00F085F900F03D
:100F700079F947F6FF7000F065F900F073F910BDDC
:100F800070B500260024002500F08AF806463A488D
:100F9000B6FBF0F439480088A0423DD037490C80B8
:100FA00040F2B27510E02846FFF731FD40B1B4F5CC
:100FB000B77F02D3A4F5B77404E0681C85B206E0DD
:100FC000A4F26D14681C85B2B4F5B67FEBD800BFEF
:100FD0002B480580002516E029480088FFF717FDFB
:100FE00030B1012D04D11D2C01D31D3C09E00CE0D2
:100FF0002448405DA04203D82248405D241A00E006
:1010000003E0681C85B21C2CE6D200BF681C1E4998
:101010000870601C1D4908701748B6FBF0F100FB12
:1010200011644FF46160B4FBF0F0194908704FF49B
:101030006160B4FBF0F100FB11403C21B0FBF1F02A
:10104000144908704FF46160B4FBF0F100FB1140EB
:101050003C21B0FBF1F201FB12000F4908700B4874
:101060000278094801780648008800F035F80B49F5
:101070000870002070BD0000805101001C0000209D
:101080001400002094230008160000201700002000
:1010900018000020190000201A0000201B0000206A
:1010A000002103480188001F008841EA0040704782
:1010B0001C28004001460020064A12880A40D0B28F
:1010C000044A121F12880A4012B108B1012000E040
:1010D0000020704704280040F0B503460C46154632
:1010E000642093FBF0F0C6B2642093FBF0F700FBA2
:1010F0001730C1B2132E02DD01F16400C1B20846FF
:10110000CF1701EB977701EBA707BAB2072092FB45
:10111000F0F700FB172082B25719601EDFF82CC0D1
:101120001CF80000384482B2CF1701EB9777BF104C
:10113000A1EB87071FB9032C01DA501E82B20720EA
:1011400092FBF0F700FB1720C0B2F0BD8823000827
:1011500010B50120FFF7AEFF0120FFF7AFFE00F052
:1011600081F810BD2DE9F05F06460F46904699467E
:10117000DDE90AAB0024B6F5FA6F03DB40F6330075
:10118000864202DD0120BDE8F09F40F2B2750AE020
:101190002846FFF73CFC10B11F48044401E01F48FB
:1011A0000444681C85B2B542F2DB781EC7B2002544
:1011B00010E01B48405D40F2A321484304EBC014FB
:1011C0003046FFF724FC18B1012D01D11548044425
:1011D000681C85B2BD42ECDBA8F1010040F2A321FE
:1011E000484304EBC014C9EB4910C0EB092004EBE1
:1011F0000014CAEB0A1004EB80045C44FFF79AFE6B
:101200004AF2A5510420FFF7A1F9204600F00CF89E
:1012100000F028F80020B6E70085E2018033E10104
:10122000942300088051010000B50246FFF76EFECE
:10123000100C03490880091D0A80FFF771FE00BDEC
:101240001828004000B50246FFF760FEC2F30340D5
:1012500003490880091D0A80FFF762FE00BD0000F7
:101260000828004000BF0348008800F02000002844
:10127000F9D0704704280040074800884FF6F771FE
:1012800008400549088000BF0348008800F00800B6
:101290000028F9D07047000004280040704710B5BE
:1012A00000F002F810BD00000CB500200190009085
:1012B0003348006840F480303149086000BF30484E
:1012C000006800F4003000900198401C01900098E4
:1012D00018B90198B0F5A06FF1D12948006800F461
:1012E000003010B10120009001E000200090009833
:1012F000012843D12348006840F0100021490860CC
:101300000846006820F0030008600846006840F0C6
:10131000020008601A484068194948600846406859
:1013200048600846406840F480604860084640686D
:1013300020F47C1048600846406840F4E81048609B
:101340000846006840F08070086000BF0C480068E4
:1013500000F000700028F9D00948406820F0030030
:10136000074948600846406840F00200486000BFF6
:101370000348406800F00C000828F9D10CBD0000BB
:1013800000100240002002407047000010B51348D2
:10139000006840F0010011490860084640681049A3
:1013A00008400E494860084600680E4908400B494D
:1013B00008600846006820F48020086008464068FD
:1013C00020F4FE0048604FF41F008860FFF767FFBD
:1013D0004FF000600449086010BD0000001002409A
:1013E0000000FFF8FFFFF6FE08ED00E008B5012160
:1013F0001C20FFF79DFB4FF4C050ADF800001020FB
:101400008DF8030003208DF8020069460D48FFF7B0
:10141000C9F8012211030B48FFF758F90122D10244
:101420000848FFF753F900F043F8442000F07EF835
:1014300000F062F800F03CF88C2000F077F800F043
:101440005BF808BD0008014030B587B004460D4682
:101450001C2209A16846FEF7B7FF00F029F804F145
:10146000C001C8B200F062F81DF8050000F05EF897
:1014700000F042F807B030BD3F065B4F666D7D0758
:101480007F6FBF86DBCFE6EDFD87FFEF0040396D54
:101490007978000010B5044600F00AF8C82000F082
:1014A00045F8204600F042F800F026F810BD000094
:1014B00010B5012211030F48FFF708F90122D102EC
:1014C0000C48FFF703F9012000F01CF900224FF44B
:1014D00080510848FFF7FAF8012000F013F90022C4
:1014E0004FF400610348FFF7F1F8012000F00AF91A
:1014F00010BD00000008014010B500224FF48051DB
:101500000948FFF7E3F80122D1020748FFF7DEF8A8
:10151000012000F0F7F8012211030348FFF7D6F885
:10152000012000F0EFF810BD0008014070B504463E
:10153000254600224FF480512148FFF7C7F80022CA
:101540004FF400611E48FFF7C1F8002628E0002292
:101550004FF400611A48FFF7B9F8012000F0D2F803
:1015600005F0010040B1012211031548FFF7AEF864
:10157000012000F0C7F808E000224FF48051104825
:10158000FFF7A4F8012000F0BDF80122D1020C48B9
:10159000FFF79CF8012000F0B5F86D10701CC6B282
:1015A000082ED4DB00224FF480510548FFF78EF857
:1015B00000224FF400610248FFF788F870BD000078
:1015C0000008014008B50F20ADF8000048208DF854
:1015D000030069460148FEF7E5FF08BD0008014029
:1015E00010B540F225511F4800F044F8002838D0CB
:1015F0001C4800F069F8C4B221461BA0FEF7EAFDC2
:101600001A48008800F4004058BB1848008800F4CD
:10161000804060B10A2C03D000201449088020E0EB
:101620001248008840F400401049088019E00D2C51
:1016300006D10E48008840F480400C49088010E034
:101640000A480088C0F30D0009490C540748008877
:10165000401C0649088008460088C72801DD002094
:10166000088010BD003801402563000024000020E0
:101670002800002070B50246002400230025002029
:1016800040F66A16B14200D100BFC1F3421501F025
:101690001F03012606FA03F3012D02D19689334078
:1016A00006E0022D02D1168A334001E0968A3340CB
:1016B0000C12012606FA04F41688344013B10CB15A
:1016C000012000E0002070BD01468888C0F30800BA
:1016D000704700BFFEE730380A2801D2012070476A
:1016E00000207047014600BF704700B5034603E085
:1016F0004FF47A7000F006F8181EA3F101018BB2C6
:10170000F6D100BD00EBC001C9004FF0E0225161ED
:10171000002191610521116100BF4FF0E0210969AD
:1017200001F480310029F8D004214FF0E02211614A
:101730007047000000BF054A128802F04002002AEC
:10174000F9D0C2B2014B1B1D1A807047003801400E
:101750000EB50025FFF70CFAFFF7B8FBFEF7EAFF1E
:10176000FFF744FE0020FFF795FEFFF72BFFECE3A9
:10177000FD480078FD490978CDE90010FC48037860
:10178000FC480278FC480178FC480088FFF7EAFC36
:10179000FFF7F6FB002D7DD1F8480088642190FB0F
:1017A000F1F201FB12000A2190FBF1F0C6B23146C2
:1017B0000020FFF749FEF1480088642190FBF1F218
:1017C00001FB12000A2190FBF1F201FB1200C6B2EC
:1017D00031460120FFF738FE15210220FFF734FEC5
:1017E000E54800780A2190FBF1F0C6B231460320AB
:1017F000FFF72AFEE04800780A2190FBF1F201FB96
:101800001200C6B231460420FFF71EFE1521052046
:10181000FFF71AFED74800780A2190FBF1F0C6B214
:1018200031460620FFF710FED24800780A2190FBCF
:10183000F1F201FB1200C6B231460720FFF704FEA9
:101840000121CF48FEF739FF38B900BF0121CC484C
:10185000FEF733FF0028F9D000250221C848FEF723
:101860002CFF38B900BF0221C548FEF726FF00282B
:10187000F9D001250421C248FEF71FFF38B900BF87
:101880000421BF48FEF719FF0028F9D002250821DE
:10189000BB4800E00AE0FEF710FF38B900BF08219E
:1018A000B748FEF70AFF0028F9D00325012D7DD1A6
:1018B00014210020FFF7C8FD14210120FFF7C4FD0B
:1018C000AB4800780A2190FBF1F0C6B23146022005
:1018D000FFF7BAFDA64800780A2190FBF1F201FB60
:1018E00012000A30C6B231460320FFF7ADFD9F4813
:1018F00000780A2190FBF1F0C6B231460420FFF7D0
:10190000A3FD9A4800780A2190FBF1F201FB120036
:101910000A30C6B231460520FFF796FD924800789E
:101920000A2190FBF1F0C6B231460620FFF78CFD8C
:101930008D4800780A2190FBF1F201FB1200C6B23B
:1019400031460720FFF780FD01218D48FEF7B5FEE7
:1019500038B900BF01218A48FEF7AFFE0028F9D050
:10196000002502218648FEF7A8FE38B900BF0221F3
:101970008348FEF7A2FE0028F9D001250421804803
:10198000FEF79BFE38B900BF04217D48FEF795FEA7
:101990000028F9D0022508217948FEF78EFE28B9E3
:1019A00000BF08217648FEF788FE00E002E000282C
:1019B000F7D00325022D7DD102A8FFF745F81421A9
:1019C0000020FFF741FD14210120FFF73DFD9DF8A8
:1019D000080020B914210220FFF736FD03E015218D
:1019E0000220FFF731FD9DF80900642190FBF1F220
:1019F00001FB12000A2190FBF1F0C6B23146032030
:101A0000FFF722FD9DF809000A2190FBF1F201FB8E
:101A100012000A30C6B231460420FFF715FD9DF8CA
:101A20000A00642190FBF1F201FB12000A2190FBF5
:101A3000F1F0C6B231460520FFF706FD9DF80A0019
:101A40000A2190FBF1F201FB1200C6B231460620DA
:101A5000FFF7FAFC16210720FFF7F6FC01214848A2
:101A6000FEF72BFE38B900BF01214548FEF725FEE1
:101A70000028F9D0002502214148FEF71EFE38B9A2
:101A800000BF02213E48FEF718FE0028F9D00125CC
:101A900004213B48FEF711FE38B900BF0421384845
:101AA000FEF70BFE0028F9D0022508213448FEF786
:101AB00004FE00E008E038B900BF08213048FEF716
:101AC000FCFD0028F9D00325032D24D11721002087
:101AD000FFF7BAFC18210120FFF7B6FC19210220FC
:101AE000FFF7B2FC14210320FFF7AEFC1421042001
:101AF000FFF7AAFC14210520FFF7A6FC14210620FD
:101B0000FFF7A2FC14210720FFF79EFC4FF4FA70A8
:101B1000FFF7EBFD0425042D7ED1601C84B2B4F5E3
:101B2000967F2FDD15480088642190FBF1F201FBC0
:101B300012000A2190FBF1F0C6B231460020FFF7F7
:101B400083FC0E480088642190FBF1F201FB120037
:101B50000A2190FBF1F201FB1200C6B231460120CE
:101B6000FFF772FC16E000001A00002019000020A8
:101B7000180000201700002016000020140000208C
:101B80000008014014210020FFF75EFC1421012011
:101B9000FFF75AFCB4F5167F00DD00241521022062
:101BA000FFF752FCFE4800780A2190FBF1F0C6B224
:101BB00031460320FFF748FCF94800780A2190FBE2
:101BC000F1F201FB1200C6B231460420FFF73CFCE3
:101BD00015210520FFF738FCF24800780A2190FB18
:101BE000F1F0C6B231460620FFF72EFCED48007832
:101BF0000A2190FBF1F201FB1200C6B23146072028
:101C0000FFF722FC0121E848FEF757FDB8B9E74885
:101C10000088401CE54900E054E008800846008840
:101C200040F63301884203DD4FF4FA60DF49088053
:101C300000BF0121DC48FEF740FD0028F9D0022159
:101C4000D948FEF73AFD98B9D8480088401ED749D0
:101C5000088008460088B0F5FA6F02DA40F63300D3
:101C6000088000BF0221D048FEF727FD0028F9D0E8
:101C70000421CD48FEF721FD38B900BF0421CA4830
:101C8000FEF71BFD0028F9D005250821C648FEF700
:101C900014FDB8B900BF0821C348FEF70EFD0028A7
:101CA000F9D0C3480078C3490978CDE90010C2488B
:101CB0000378BC480278BA480178BC480088FFF72E
:101CC00051FA0025052D7DD1601C84B2B7480088EB
:101CD000642190FBF1F201FB12000A2190FBF1F06C
:101CE000C6B231460020FFF7AFFBB0480088642140
:101CF00090FBF1F201FB12000A2190FBF1F201FBD3
:101D00001200C6B231460120FFF79EFB15210220CA
:101D1000FFF79AFBB4F5967F16DDA14800780A21FB
:101D200090FBF1F0C6B231460320FFF78DFB9C48D3
:101D300000780A2190FBF1F201FB1200C6B2314695
:101D40000420FFF781FB07E014210320FFF77CFB51
:101D500014210420FFF778FBB4F5167F00DD002482
:101D600015210520FFF770FB8E4800780A2190FBB3
:101D7000F1F0C6B231460620FFF766FB89480078CD
:101D80000A2190FBF1F201FB1200C6B23146072096
:101D9000FFF75AFB01218448FEF78FFC88B9804881
:101DA0000078401C7E490870084600780C2801DD48
:101DB0000120087000BF01217B48FEF77EFC00284F
:101DC000F9D000E040E002217748FEF776FC88B9C0
:101DD00073480078401E7249087008460078012850
:101DE00001DA0C20087000BF02216F48FEF765FC85
:101DF0000028F9D004216C48FEF75FFC38B900BF19
:101E000004216948FEF759FC0028F9D0062508216D
:101E10006548FEF752FCB8B900BF08216248FEF7DA
:101E20004CFC0028F9D06248007862490978CDE975
:101E30000010614803785B480278594801785B4894
:101E40000088FFF78FF90025062D7DD1601C84B234
:101E500056480088642190FBF1F201FB12000A2130
:101E600090FBF1F0C6B231460020FFF7EDFA4F4883
:101E70000088642190FBF1F201FB12000A2190FB23
:101E8000F1F201FB1200C6B231460120FFF7DCFA85
:101E900015210220FFF7D8FA414800780A2190FB6B
:101EA000F1F0C6B231460320FFF7CEFA3C48007885
:101EB0000A2190FBF1F201FB1200C6B23146042068
:101EC000FFF7C2FA15210520FFF7BEFAB4F5967F99
:101ED00016DD344800780A2190FBF1F0C6B2314695
:101EE0000620FFF7B1FA2F4800780A2190FBF1F2A3
:101EF00001FB1200C6B231460720FFF7A5FA07E042
:101F000014210620FFF7A0FA14210720FFF79CFAFE
:101F1000B4F5167F00DD002401212348FEF7CDFB38
:101F200088B920480078401C1E490870084600788F
:101F30001F2801DD0120087000BF01211A48FEF7AB
:101F4000BCFB0028F9D001E050E0A9E102211648CD
:101F5000FEF7B3FB88B913480078401E114908709A
:101F600008460078012801DA1F20087000BF02210E
:101F70000D48FEF7A2FB0028F9D004210A48FEF71D
:101F80009CFB38B900BF04210748FEF796FB0028E8
:101F9000F9D0072508210448FEF78FFB30BB0DE080
:101FA0001600002017000020000801401400002047
:101FB0001A000020190000201800002000BF08218E
:101FC000EA48FEF77AFB0028F9D0E9480078E949A9
:101FD0000978CDE90010E8480378E8480278E84835
:101FE0000178E8480088FFF7BDF80025072D7CD16F
:101FF000601C84B214210020FFF726FA142101206E
:10200000FFF722FAB4F5967F17DDDB4800780A2146
:1020100090FBF1F0C6B231460220FFF715FAD64820
:1020200000780A2190FBF1F201FB12000A30C6B2DF
:1020300031460320FFF708FA07E014210220FFF7DA
:1020400003FA14210320FFF7FFF9B4F5167F00DD32
:102050000024C84800780A2190FBF1F0C6B231464E
:102060000420FFF7F1F9C34800780A2190FBF1F250
:1020700001FB12000A30C6B231460520FFF7E4F931
:10208000BB4800780A2190FBF1F0C6B23146062029
:10209000FFF7DAF9B64800780A2190FBF1F201FB6C
:1020A0001200C6B231460720FFF7CEF90121AF4832
:1020B000FEF703FB18BBB0480078401CAE4908701F
:1020C00008460078172801DD00200870A84800782D
:1020D000A8490978CDE90010A7480378A7480278F5
:1020E000A7480178A748008800E059E0FFF73AF8D0
:1020F00000BF01219D48FEF7E0FA0028F9D0022137
:102100009A48FEF7DAFA08BB9B48007810B9182005
:102110009949087098480078401E9749087094487B
:10212000007894490978CDE90010934803789348E2
:1021300002789348017893480088FFF713F800BFAE
:1021400002218A48FEF7B9FA0028F9D0042187480D
:10215000FEF7B3FA38B900BF04218448FEF7ADFAA0
:102160000028F9D0082508218048FEF7A6FAB8B95A
:1021700000BF08217D48FEF7A0FA0028F9D07C486E
:1021800000787C490978CDE900107B4803787B48CA
:1021900002787B4801787B480088FEF7E3FF012541
:1021A000082D7DD1601C84B214210020FFF74CF96A
:1021B00014210120FFF748F96F4800780A2190FBAD
:1021C000F1F0C6B231460220FFF73EF96A480078C6
:1021D0000A2190FBF1F201FB12000A30C6B231462F
:1021E0000320FFF731F9B4F5967F17DD61480078D9
:1021F0000A2190FBF1F0C6B231460420FFF724F922
:102200005C4800780A2190FBF1F201FB12000A30D1
:10221000C6B231460520FFF717F907E01421042064
:10222000FFF712F914210520FFF70EF9B4F5167F18
:1022300000DD00244E4800780A2190FBF1F0C6B280
:1022400031460620FFF700F9494800780A2190FB43
:10225000F1F201FB1200C6B231460720FFF7F4F895
:1022600001214248FEF729FA30BB42480078401C61
:1022700040490870084600783B2801DD00200870BE
:1022800000203B490870084600783A490978CDE9B2
:10229000001039480378394802783948017800E05D
:1022A00061E038480088FEF75DFF00BF01212F483C
:1022B000FEF703FA0028F9D002212C48FEF7FDF9B9
:1022C00020BB2C48007810B93C202A4908702948C6
:1022D0000078401E274908700020254908700846EC
:1022E000007824490978CDE9001023480378234871
:1022F00002782348017823480088FEF733FF00BFA7
:1023000002211A48FEF7D9F90028F9D0042117480C
:10231000FEF7D3F938B900BF04211448FEF7CDF910
:102320000028F9D0042508211048FEF7C6F9D0B9D5
:1023300000BF08210D48FEF7C0F90028F9D00020A1
:102340000B490870084600780A490978CDE9001061
:102350000948037809480278094801780948008843
:10236000FEF700FF0125FFF703BA00000008014057
:102370001A0000201900002018000020170000207B
:1023800016000020140000200003030601040602CA
:10239000050003051F1C1F1E1F1E1F1F1E1F1E1FC3
:1023A000040000080000000000000002000100001E
:1023B00010000000D42300080000002028000000C6
:1023C00028010008FC23000828000020280700003E
:1023D000440100080000000001020304010203049C
:1023E00006070809020406080000000000000000BB
:0C23F000000000000000000000000000E1
:04000005080000ED02
:00000001FF
