:020000040800F2
:100000004808002001010008150D0008B50B000884
:10001000990C00083D0A0008711E0008000000004D
:10002000000000000000000000000000FD140008B7
:100030003F0A0008000000003B130008B11600084A
:100040001B0100081B0100081B0100081B01000820
:100050001B0100081B0100081B0100081B01000810
:100060001B0100081B0100081B0100081B01000800
:100070001B0100081B0100081B0100081B010008F0
:100080001B0100081B0100081B0100081B010008E0
:100090001B0100081B0100081B0100081B010008D0
:1000A0001B010008ED1700081B0100081B010008D8
:1000B0001B0100081B0100081B0100081B010008B0
:1000C0001B0100081B0100081B0100081B010008A0
:1000D0001B010008E11C00081B0100081B010008AF
:1000E0001B0100081B0100081B010008DFF80CD0F1
:1000F00000F0FEFB00480047752700084808002074
:100100000648804706480047FEE7FEE7FEE7FEE7B1
:10011000FEE7FEE7FEE7FEE7FEE7FEE7B5160008AE
:10012000ED00000810B5002200E0521C835C8C5CDE
:10013000A34201D1002BF8D1D8B2E1B2401A10BDD0
:10014000F0B480EA0102D40F4200B2EB410F02D2B8
:100150000246084611464A0042D0C30DDDB2C1F343
:10016000C752AD1A202D35DAC1F3160141F4000251
:1001700004B15242C5F1200602FA06F12A411044A8
:10018000B3EBD05F23D0C4B1012DA0EBC35009DC89
:10019000F0BC4FF0004202EAC352DBB200F50000AF
:1001A00000F003BB400000F1807000EBC350A0F1F1
:1001B000807040EAD170490009E0490841EAC07105
:1001C000A0EBC35000F50000400800EBC350F0BCAA
:1001D00000F0E2BA6142012202EB4101001BF6E7A6
:1001E000F0BC704781F00041AAE780F00040A7E72B
:1001F00080EA010210B502F00043400022D04A001C
:100200001FD0010E01EB1261C0F35600C2F356027B
:1002100040F4000042F40002A0FB022000047F39F9
:10022000140400D0401C50EA124001D44000491E82
:10023000C2B20C0604EBD010401C4008802A02D049
:1002400003E0002010BD20F00100002900DA0020AA
:10025000184310BD2DE9FE4F804681EA0300C00F10
:100260000C46009021F0004123F00045B8EB02005D
:10027000A94105D24046214690461C460B460246FF
:1002800023F00040104347D0270DC7F30A00C3F303
:100290000A510290401A019040286BDAC3F3130010
:1002A00040F4801B0098924620B10023D2EB030A51
:1002B00063EB0B0B01985946C0F14002504600F029
:1002C0003AFA06460D4650465946019A00F052FA4F
:1002D00010EB08006141002487EA115284EAE773B9
:1002E0001A4340D0009A62B3019A012A4FEA07529A
:1002F00015DC001B61EB02014FF0004202EA0752DD
:10030000CDE90042001C41F5801132462B4600F039
:1003100089FA03B0BDE8F08F40462146F9E7001B9B
:1003200061EB0201001C41F5801300185B412018AD
:10033000A2F5001747EB030140EAD570B6196D41ED
:1003400011E06D084FEA360645EAC0754FEA0752DC
:10035000001B61EB0201001C41F5801149084FEAC6
:1003600030000019514132462B4603B0BDE8F04F32
:1003700000F049BA0098012240000023D0EB0202AD
:1003800063EBE073009821464FEAE074B8EB00009D
:1003900061EB0401E9E783F000435BE781F0004192
:1003A00058E72DE9FE4F81EA030404F0004421F0F0
:1003B000004100944FF0000B23F0004350EA010489
:1003C0005ED052EA03045BD0C3F30A54C1F30A556A
:1003D0002C44A4F2F3340194A0FB0254C1F31301A2
:1003E00041F48011C3F3130343F4801301FB02446F
:1003F00000FB034E840A970A44EA815447EA835774
:10040000A4FB076802958D0A05FB07854FEA932C2C
:1004100004FB0C542705029D4FEA065847EA16379D
:10042000B5EB08056EEB070C870E920E47EA8117B5
:1004300042EA8312A7FB0201B6EB0B0164EB000456
:100440002B0D43EA0C335E1844EB1C50DA46514640
:10045000E7FB0201C5F313044FEA0B3343EA1453DD
:100460004FEA0432019C43EA0603A4F10C0402940F
:10047000009CCDE900B400F0D5F903B0BDE8F08FE1
:1004800000200146F9E72DE9F04D81EA030404F06C
:10049000004B21F0004514464FF0000A23F00041C4
:1004A00050EA050220D054EA01021DD0C5F30A57D4
:1004B0000246C5F31303C1F31300C1F30A5640F417
:1004C000801543F48013A7EB0608101BD64608F2EC
:1004D000FD3873EB050002D308F1010801E0921822
:1004E0005B41B8F1000F03DA00200146BDE8F08D52
:1004F00000204FF48011064684460EE0171B73EB74
:10050000050705D3121B63EB050306434CEA010CF8
:1005100049084FEA300092185B4150EA0107EDD1DB
:1005200052EA030012D082EA040083EA050108437C
:1005300005D0101BAB4106D20122002306E00022A9
:100540004FF0004302E06FF0010253101AEB060077
:100550004CEB085110EB0A0041EB0B01BDE8F04DEC
:1005600000F051B970B521F0004303430CD0C1F342
:100570000A550024D5EB040564EB0403D617AD1A25
:10058000B34102DB0020014670BD201841EB02514F
:1005900070BDC10F80EAE0700844CA0796230021AD
:1005A00000F003B90EB540F2334102910021CDE9CC
:1005B00000110A460B4600F035F903B000BD00F00B
:1005C000004220F00040C10DC0F3160040F40000CE
:1005D0007F2901DA00207047962903DCC1F19601DA
:1005E000C84001E096398840002AF4D04042704764
:1005F00000F0004230F000400AD0C10D01F56071FA
:10060000C0F3160042EA0151C20840071143704787
:10061000002001467047000030B5041E71F100044F
:1006200004DB4FF00044404264EB0101141E73F1FF
:10063000000405DB1C464FF00043524263EB040309
:10064000994208BF904230BD01F0004330B421F020
:10065000004150EA010206D00A0DA2F56072C1F312
:100660001301002A02DC30BC00207047440F44EA2A
:10067000C104C100E01830BC00EBC25000F08CB8DF
:10068000002801DBC0F10040002901DBC1F100417D
:1006900081427047002801DBC0F10040002901DBE6
:1006A000C1F100418842704730B50B460146002039
:1006B0002022012409E021FA02F59D4205D303FA24
:1006C00002F5491B04FA02F52844151EA2F10102A5
:1006D000F1DC30BD2DE9F05F0546002092469B46D7
:1006E00088460646814640241BE028464146474648
:1006F000224600F02FF853465A46C01A914110D3B3
:1007000011461846224600F016F82D1A67EB01082C
:100710004F4622460120002100F00DF817EB00099A
:100720004E41201EA4F10104DFDC484631462A4632
:100730004346BDE8F09F202A04DB203A00FA02F18C
:10074000002070479140C2F1200320FA03F31943BF
:1007500090407047202A04DB203A21FA02F0002161
:10076000704721FA02F3D040C2F1200291400843C1
:1007700019467047202A06DBCB17203A41FA02F0CF
:1007800043EAE07306E041FA02F3D040C2F12002EE
:1007900091400843194670470029A8BF7047401C84
:1007A000490008BF20F00100704710B4B0FA80FC87
:1007B00000FA0CF050EA010404BF10BC704749B1C4
:1007C000CCF1200421FA04F411FA0CF118BF012134
:1007D00021430843A3EB0C01CB1D4FEA00614FEA14
:1007E000102042BF002010BC704700EBC3501044E3
:1007F0000029A4BF10BC7047401C490008BF20F06E
:10080000010010BC704710B5141E73F1000408DA23
:10081000401C41F1000192185B411A4301D120F0C4
:10082000010010BD2DE9F04D92469B4611B1B1FA81
:1008300081F202E0B0FA80F220329046FFF77BFFAF
:1008400004460F4640EA0A0041EA0B0153465A4665
:10085000084313D0114653EA010019D0C8F14002F1
:100860005046FFF777FF05460E465046594642462A
:10087000FFF761FF084305D0012004E02046394618
:10088000BDE8F08D0020054346EAE0762C4337436F
:100890000A986305E40AA0EB08000022FD0A44EA76
:1008A00047540A3002D500200146E9E70105101936
:1008B0006941DDE9084500196941BDE8F04DA2E74D
:1008C000C1F30A52C1F3130140F2FF3341F4801126
:1008D0009A4202DA00200146704740F233439A42BE
:1008E000A2F2334202DC5242FFF734BFFFF723BFCC
:1008F000064C074D06E0E06840F0010394E807006D
:1009000098471034AC42F6D3FFF7F4FBC832000826
:10091000E83200080029816802D041F0010101E0BD
:1009200021F0010181607047014600208968490774
:1009300000D501207047C06C80B27047024600208D
:1009400012680A4200D001207047014600208968E1
:10095000090700D50120704710B542680E4B0C798D
:100960001A400B6842EA04221343436082680B4B2F
:100970001A40D1E9024323434C7942EA440213432B
:100980008360C26A097C22F47002491EC9B242EA3D
:100990000151C16210BD0000FFFEF0FFFDF7F1FF45
:1009A00070B5072609290AD9C568A1F10A0404EB24
:1009B0004404A640B543A3401D43C56007E0056954
:1009C00001EB4104A640B543A3401D4305611F232D
:1009D000072A09D2446B521E02EB820293409C43C9
:1009E00091400C43446370BD0D2A09D2046BD21FA1
:1009F00002EB820293409C4391400C43046370BD20
:100A0000C46A0D3A02EB820293409C4391400C432E
:100A1000C46270BD816841F008018160704700299F
:100A2000816802D041F4A00101E021F4A0018160BD
:100A30007047816841F0040181607047FEE77047AC
:100A400070B5054D284600F08EFF04B200212846FF
:100A500001F090F8204670BD0004004030B587B02A
:100A60000121022000F074FC0121042000F07CFC34
:100A700048208DF81B00C020ADF8180003208DF829
:100A80001A0006A91A4800F037F80024ADF8124001
:100A90004FF6FF70174DADF80E40ADF81000ADF8F1
:100AA0000C408DF8144003A9284601F08DF86846E3
:100AB00000F0FEFFADF800400F24ADF80840694695
:100AC000284600F05FFF0420ADF80000ADF80840B4
:100AD0006946284600F056FF0223002203212846DB
:100AE00000F028FF0121284600F01AFF07B030BDB2
:100AF0000008014000040040F0B5CC78002204F06A
:100B00000F03E40601D58C7823430C784FF00F0CCB
:100B100014F0FF0F4FF0010E1BD005680E880EFA7F
:100B200002F42640A64210D196000CFA06F725EAF8
:100B3000070703FA06F5CE783D43282E02D0482E4B
:100B400002D002E0446100E00461521C082AE5D3AF
:100B500005600A88FF2A1CD94468002202F10806B1
:100B60000EFA06F50E882E40AE420ED196000CFA13
:100B700006F7BC4303FA06F7CE783C43282E00D193
:100B80004561CE78482E00D10561521C082AE5D374
:100B90004460F0BD0246002092680A4200D0012065
:100BA000704741617047016170470AB10161704748
:100BB00041617047FEE700000249002208780A7090
:100BC000704700003C00002070B5114C4FF480616C
:100BD0002046FFF7DFFF90B1E51429462046FFF7D6
:100BE000D9FF70B10B4C29462046FFF7D3FF50B117
:100BF000A1142046FFF7CEFF38B1002070BD0120C0
:100C000070BD022070BD032070BD042070BD0000C7
:100C1000000C01400008014038B50121082000F017
:100C2000A3FB0121042000F09FFB48248DF8034022
:100C30004FF44060ADF8000003258DF8025069467E
:100C40000748FFF759FF8DF80340E802ADF80000B0
:100C50008DF8025069460348FFF74EFF38BD00008B
:100C6000000C01400008014010B50A4C6078401C9F
:100C7000C0B2607014280CD300206070A078E070BF
:100C8000FFF7A2FFA070002803D1E078002800D071
:100C9000207010BD3C000020FEE7000008B50121D7
:100CA000082000F061FB10208DF803004FF4405045
:100CB000ADF8000003208DF8020069460248FFF7F6
:100CC0001BFF00F0F1FA08BD000C01402DE9F041D6
:100CD0000F4D04004FF400564FF4805709D43146AD
:100CE0002846FFF760FF39462846FFF75AFFA0B2B3
:100CF00009E039462846FFF756FF31462846FFF7F8
:100D000050FF604280B2BDE8F04100F011BB00002E
:100D1000000C01407047000030B50F23C278017805
:100D20000125F2B1144A126801F1E02102F4E062F7
:100D3000C2F5E062120AC2F10404D3404278A24034
:100D400084781C401443220181F80024007800F0CC
:100D50001F018D404009800000F1E020C0F80051E3
:100D600030BD01F01F0085404809800000F1E020FF
:100D7000C0F8805130BD00000CED00E0024908438E
:100D800002490860704700000000FA050CED00E021
:100D900010B50021074C0A46002004EBC1131A5479
:100DA000401CC0B28028FAD3491CC9B20829F3D329
:100DB00010BD000044000020F0B501EB030C20E062
:100DC0000446871819E07F2C15D8002913DB3F292A
:100DD00011DCCB1701EB5376F5100B4B26F0070611
:100DE00003EBC5132344A1EB060E1D78012606FA7A
:100DF0000EF6B5431D70641C24B2A742E3DC491C07
:100E000009B28C45DCDCF0BD4400002038B500217F
:100E10004FF47A720020401C9042FCD3491C91424E
:100E2000F8D30121082000F09FFA14208DF8030068
:100E300003208DF802004FF480700A4CADF80000DA
:100E400069462046FFF758FE6115ADF80010694667
:100E50002046FFF751FE012000F0ECF9012000F0E0
:100E6000F1F938BD000C014070B50024054680261C
:100E700026FA04F0284000D0012000F0E3F9012018
:100E800000F0D8F9002000F0D5F9641CE4B2082C79
:100E9000EED3012000F0CEF9BDE87040002000F054
:100EA000C9B910B5012000F0CDF9012000F0C2F958
:100EB000002000F0C7F9BDE81040002000F0BAB9EA
:100EC00010B5002000F0BEF9012000F0B3F9BDE834
:100ED0001040012000F0B6B910B5FFF797FFAE2023
:100EE00000F0B8F9D52000F0B5F9802000F0B2F993
:100EF000A82000F0AFF93F2000F0ACF9D32000F0BB
:100F0000A9F9002000F0A6F9402000F0A3F9A120E3
:100F100000F0A0F9C82000F09DF9DA2000F09AF95D
:100F2000122000F097F9812000F094F9CF2000F012
:100F300091F9D92000F08EF9F12000F08BF9DB2037
:100F400000F088F9302000F085F9A42000F082F943
:100F5000A62000F07FF98D2000F07CF9142000F02D
:100F600079F9AF2000F076F9FFF712FFBDE81040E5
:100F700000F04CB90FB470B5C0B014460D4606462B
:100F800048AA6846479900F075FF23466A462946F5
:100F9000304600F08DF840B070BC5DF814FB10B521
:100FA0000C4640F0B00000F055F9102040EA141053
:100FB00000F050F904F00F00BDE8104000F04AB90D
:100FC00008B5082B0DD0062B0AD10A4B02EB4202C2
:100FD00003EB4202C03A00920823062200F00EF80A
:100FE00008BD054B03EB0212A2F50072102300921C
:100FF0000822F3E7882F0008982900082DE9FF4F01
:101000001F4616460D460024DDF834A00098FFF771
:10101000D3FE7F1EF81707EB50700121DFF88CB06C
:1010200001EBE00E3DE0002037E000990B187F2B2C
:1010300031D8E91705EB5171CA1021F00701691A7F
:10104000002D03DA521E083112B209B22244072AD7
:101050000ED804FB06F70AEB00080BEBC21917F8D1
:10106000087019F803C08F404CEA070C09F803C058
:10107000571C072F0FD80BEBC21204FB06F70AEB25
:10108000000C1A4417F80C7012F8803FC1F10801E7
:10109000CF403B431370401CC0B2B042C5D3641C68
:1010A000E4B2A645BFDCBDE8FF8F0000440000208D
:1010B0002DE9FF4F002483B0994616468246254607
:1010C000A34698E0100610D48DF80420641C0AEBA7
:1010D0000500A4B28DF805B000B24B460499FFF7A5
:1010E0006FFF05EB090085B285E00620B0EB521FCB
:1010F0000DD1641CA0B28DF80420315C00297ED093
:101100008DF80510401C84B28DF806B037E00E2033
:10111000B0EB121F14D1641CA0B28DF80420315C16
:1011200000296CD0401C80B28DF80510315C00297C
:1011300065D08DF80610401C84B28DF807B01EE013
:101140001E20B0EBD20F1CD1641CA0B28DF804207D
:10115000315C002953D0401C80B28DF80510315C01
:1011600000294CD0401C80B28DF80610315C00295B
:1011700045D0401C8DF8071084B28DF808B00027C8
:1011800009E0641CA4B236E0404601A9FEF7CAFF9C
:1011900068B17F1CBFB207EB870000EB471119480D
:1011A0000844804618A1FEF7BDFF0028ECD1B9F134
:1011B000080F03D0B9F1060F1DD112E007EB87002D
:1011C00000EB47110F4810230844401D00900AEB24
:1011D000050000B21A460499FFF710FF103509E028
:1011E0000DE00AEB050000B206233F220499FFF749
:1011F000E7FEAD1DADB2325D002A7FF463AF07B0EC
:10120000BDE8F08FC23100080000000070B5084D45
:10121000002400212046FFF7C2FE05EBC410802108
:1012200000F029F8641CE4B2082CF2D370BD000071
:101230004400002002464FF480710148FFF7B5BC1E
:10124000000C014002464FF400710148FFF7ADBCAD
:10125000000C014010B50446FFF723FE7820FFF78D
:1012600003FE0020FFF700FE2046FFF7FDFDBDE86E
:101270001040FFF725BE70B50D460646FFF711FE7C
:101280007820FFF7F1FD4020FFF7EEFD002404E099
:10129000305DFFF7E9FD641CE4B2AC42F8D3BDE871
:1012A0007040FFF70DBE000070B5012188B0084600
:1012B00000F04EF80121042000F056F818208DF8B7
:1012C0001F000125ADF81C5003208DF81E0007A952
:1012D0001648FFF711FCAE07304600F0F9FB00247A
:1012E000ADF816406320ADF81400ADF8124023208D
:1012F000ADF810008DF8184004A9304600F064FCE9
:10130000684600F02BFC6020ADF80000ADF8084006
:10131000ADF80250ADF806406946304600F0DEFBFD
:101320000121304600F0FCFA08B070BD0008014011
:1013300001464FF0804000F01BBC7047034A5168E3
:1013400021F4404101435160704700000010024009
:10135000044A0029D16901D0014300E08143D161F1
:101360007047000000100240044A0029916901D032
:10137000014300E08143916170470000001002408A
:1013800030B5204A5168204B11F00C0103D00429DC
:1013900001D0082901D0036012E05168536801F4BC
:1013A00070114FF0020413F4803F04EB914102D01E
:1013B00053689B0301D5154B00E0134B5943016063
:1013C00051680F2303EA1111114B5C5C0168E14085
:1013D00041605468072505EA14241C5D21FA04F4D1
:1013E0008460546805EAD4241B5DD940C16052680A
:1013F000032303EA9232064B1B1F9A5CB1FBF2F106
:10140000016130BD0010024000127A0000093D0069
:101410000400002010B5154C012806D0022808D081
:1014200003280AD004280CD011E005230122022150
:101430000AE005230122032106E0052301220421FD
:1014400002E00523012219462046FFF7A9FA0121EF
:101450002046FFF7E4FA02212046FFF76FFA002842
:10146000F9D02046BDE81040FFF765BA00280140DA
:1014700010B5012186B08802FFF776FF0121042014
:10148000FFF772FF4FF40040FFF758FF00248DF87C
:1014900017403C20ADF8140003208DF8160005A974
:1014A0001448FFF729FB4FF46020CDE902048DF8C2
:1014B000054000948DF8044001200F4C8DF8100079
:1014C00069462046FFF748FA01212046FFF722FA35
:1014D0002046FFF79FFA2046FFF737FA0128FAD097
:1014E0002046FFF7A6FA2046FFF71EFA0128FAD099
:1014F00006B010BD00080140002801407047000000
:1015000030B5012187B08803FFF72EFF01210420A9
:10151000FFF72AFF18208DF813004FF40070ADF884
:101520001000224D03248DF8124004A92846FFF72D
:10153000E3FA48218DF813102815ADF810008DF846
:10154000124004A92846FFF7D7FA4FF4165000902E
:1015500000200C21ADF80A10ADF80600144CADF8CF
:101560000C00ADF80800ADF804006946204600F014
:1015700021FC012240F22551204600F003FC4FF4EB
:10158000A060FFF7FBFB25208DF8140001218DF8EA
:1015900017108DF815108DF8161005A8FFF7BCFB75
:1015A0000121204600F0BEFB07B030BD000801401D
:1015B000003801400FB400B599B01BAA68461A99CB
:1015C00000F058FC684600F013F819B05DF814FB01
:1015D00010B5064C0146204600F046FC802120460E
:1015E00000F0AAFB0028F9D010BD0000003801402F
:1015F00070B50546002403E0FFF7EAFF641CE4B27F
:10160000285D0028F8D170BD0CB500222648009254
:101610000192016841F4803101604FF4A0630168D8
:1016200001F4003101910099491C0091019911B90F
:1016300000999942F3D10168890333D501210191C1
:101640001A490A6842F010020A600A6822F003028E
:101650000A600A6842F002020A604168416041681B
:101660004160416841F480614160416821F47C112E
:101670004160416841F4E8114160016841F08071C6
:10168000016001688901FCD5416821F003014160D6
:10169000416841F0020141604168C1F381010229C2
:1016A000FAD10CBD01920CBD001002400020024096
:1016B000704700000F4810B5016841F0010101605A
:1016C00041680D4A1140416001680C4A11400160B7
:1016D000016821F480210160416821F4FE0141602C
:1016E0004FF41F018160FFF78FFF05494FF0006045
:1016F000086010BD001002400000FFF8FFFFF6FE7A
:1017000008ED00E070B5048C24F001040484058B1E
:10171000048C4FF6FF7606EA0313134325F0F30516
:101720000E4A2B4390420ED00D4A90420BD0B0F19E
:10173000804F08D00B4A904205D00B4A904202D00D
:101740000A4A904202D124F0020201E024F00A0287
:101750000A4342F001010383018470BD002C014063
:10176000003401400004004000080040000C00402C
:10177000F0B5048C24F010040484078B048C4FF61D
:10178000FF7527F4734705EA03333B4305EA02225A
:101790001A43114B05EA011698420ED00F4B98429E
:1017A0000BD0B0F1804F08D00D4B984205D00D4BB7
:1017B000984202D00C4B984205D124F020013143CD
:1017C00041F0100104E024F0A0030B4343F01001AA
:1017D00002830184F0BD0000002C01400034014070
:1017E0000004004000080040000C00402DE9F047D4
:1017F000DFF800910121484600F0B7F8012876D1C2
:101800003D4C6088401C6080FFF72EFA6088002500
:101810004FF08146282864D96580FFF711F9FEF75B
:10182000B8FE6169FEF78CFC6061E16921620146E6
:101830002069FEF7D7FCE06120F000403146FEF75A
:101840001FFF02D2A561656244E0E069314620F0E5
:101850000040FEF71FFF01D9A06926E0A0682749D4
:1018600020F00040FEF716FF05D2E169606AFEF73E
:1018700067FC606200E06562D4E907018046FEF71C
:10188000B1FCE168FEF7B4FC0646616AA068FEF7A9
:10189000AFFC074641466068FEF7AAFC3946FEF7F2
:1018A0004FFC3146FEF74CFCA061154A15499042A9
:1018B00002DBFEF745FC04E0134A90420AD9FEF72A
:1018C00091FC1249A061884202DC1149884202D988
:1018D000A16100E0A561A069FEF771FE40B2FFF7CB
:1018E000F5F94846BDE8F047012100F016B8BDE81B
:1018F000F0870000002C01401400002017B7D138F9
:10190000CDCCCC3D0000C040CDCCCCBD0000C84209
:101910000000C8C2C94301827047C94301827047B1
:101920000029018802D041F0010101E021F001010C
:101930000180704770B50589048B068C25F007057A
:101940000D434FF6FC410C4040F201110C434FF6A1
:10195000FF7101EA031126F022061143314305818C
:101960000483018470BD808C704702460020138A76
:1019700092890B4202EA010202D0002A00D0012023
:10198000704700002DE9F84F0D4604460888434F84
:10199000DFF80CC1DFF80C81DFF80C914988AA88C8
:1019A0002B894FF0804A48B3042830D04FF6FF7699
:1019B0000828934634D0208C9E4620F48050208402
:1019C000A38B208C06EA0132009223F4734306EACB
:1019D0000B221A4306EA0E331343BC420AD0644575
:1019E00008D0544506D0444504D04C4502D02F4A77
:1019F000944245D120F40050009943E02046FFF77F
:101A000081FEE9882046BDE8F84F00F0B5B82046D1
:101A1000FFF7AEFEE9882046BDE8F84F00F0B4B805
:101A2000208C20F480702084B4F81CE0208C06EA1E
:101A3000031306EA01222EF0F30E43EA0B0343EAF6
:101A40000E030092BC420AD0644508D0544506D02B
:101A5000444504D04C4502D0144A944203D120F4AA
:101A60000070009901E020F42060084340F4807089
:101A7000A3832084E9882046BDE8F84F00F090B8A1
:101A800020F40240084340F48050A3832084E98876
:101A90002046BDE8F84F00F08BB80000002C014054
:101AA000003401400004004000080040000C0040E9
:101AB00000210180418001228280C1800181704724
:101AC000002A828901D00A4300E08A43828170475C
:101AD000018921F0070101817047000030B5028CB7
:101AE00022F001020284028C8388048B22F002021D
:101AF00024F073050C882C430D8915434A882A432A
:101B0000114DA8420BD0114DA84208D0104DA8424B
:101B100005D0104DA84202D00F4DA8420DD122F0A1
:101B200008054A8923F440732A4322F004058A8871
:101B30002A438D891D43CB892B4383800483C98825
:101B40008186028430BD0000002C01400034014039
:101B50000040014000440140004801400021018054
:101B600041808180C180018141818181C181704733
:101B70008186704781847047028B22F00C020283B9
:101B8000028B0A4302837047028B22F44062028375
:101B9000028B4FF6FF7303EA01210A430283704769
:101BA000828B22F00C028283828B0A4382837047ED
:101BB000828B22F440628283828B4FF6FF7303EAAA
:101BC00001210A438283704730B502881B4C1C4DAB
:101BD000A0420DD0A8420BD0B0F1804F08D0194BD5
:101BE000984205D0184B984202D0184B984203D126
:101BF00022F070034A881A43154B984206D0154BC1
:101C0000984203D022F44073CA881A4302808A881B
:101C100082850A880285A0420AD0A84208D00E4ACE
:101C2000904205D00D4A904202D00D4A904201D117
:101C3000097A01860121818230BD0000002C01401B
:101C4000003401400004004000080040000C004047
:101C500000100040001400400040014000440140DA
:101C6000004801401FB50121C802FFF77DFB1B4C56
:101C70002046FFF72DFF0021ADF8061040F2E730B7
:101C8000ADF80210ADF804004720ADF800008DF863
:101C9000081069462046FFF797FF01212046FFF70D
:101CA00039FE012211462046FFF70AFF4FF4A060DB
:101CB000FFF764F819208DF80C0001218DF80F1042
:101CC00002208DF80D008DF80E1003A8FFF724F800
:101CD00001212046FFF724FE1FBD0000002C01401B
:101CE00070B50B4C40F225552946204600F02BF8E4
:101CF00001280CD1204600F0B3F8064A294610709E
:101D0000012050702046BDE8704000F005B870BD5D
:101D100000380140400000200A0A01219140C943D7
:101D2000018070470029818902D041F4005101E00F
:101D300021F40051818170470246002012880A4236
:101D400000D00120704770B501F01F050126002466
:101D5000C1F3421306FA05F2012B0FD0022B0FD06C
:101D6000838A4FEA11210088134206FA01F600EA3D
:101D7000060001D000B10124204670BD8389F0E740
:101D8000038AEEE710B5C1F3421301F01F040121ED
:101D9000A140012B07D0022B07D01430002A026883
:101DA00005D00A4304E00C30F8E71030F6E78A4328
:101DB000026010BD30B50446008A85B00D464CF671
:101DC000FF710840E98801432182A0894EF6F31192
:101DD0000840A9882A8911436A8902431143A181D5
:101DE000A08A4FF6FF410840A9890143A1826846B5
:101DF000FFF7C6FA1948844201D1039800E002981F
:101E0000A189090400EBC00101EB0010296801D58C
:101E1000490000E08900B0FBF1F06422B0FBF2F170
:101E200009010B096FF018056B4300EB8300A389D0
:101E30001D044FF0320306D503EBC000B0FBF2F0F7
:101E400000F0070005E003EB0010B0FBF2F000F03B
:101E50000F000843208105B030BD0000003801406C
:101E60008088C0F308007047C1F308018180704783
:101E7000FEE7000037B514460846064B6A46214681
:101E800000F0DCF804466946002000F06EFC2046B5
:101E90003EBD00006B27000802E008C8121F08C101
:101EA000002AFAD170477047002001E001C1121FDB
:101EB000002AFBD1704700002DE9FF5F82B00021AE
:101EC000DDE90430020DDDF840B0034318D044F6DC
:101ED0001050A2F2FF3242431514119801281FD06E
:101EE000A5EB0B00401C5FEA000A4FF000064E4FC6
:101EF000DFF83891B046504615D5CAF1000413E01A
:101F0000119801244AA3012801D16FEA0B0102981C
:101F1000119AC0E90031C0E9024206B0BDE8F09F65
:101F2000CBF10000DFE704460021404A491842EBAC
:101F30000450CDE9001012E0E00707D032463B46DE
:101F400040464946FEF72DFA8046894632463B46D2
:101F500010461946FEF725FA06460F466410002C77
:101F6000EAD1DDE90401DDE90023BAF1000F06DA68
:101F7000FEF717FA42464B46FEF713FA05E0FEF766
:101F800082FA42464B46FEF77EFA04460E4600228F
:101F9000284BFEF741FB03D84FF0FF30014607E026
:101FA0000022254B20463146FEF754F9FEF788FC07
:101FB000102409E0002C0ADB0A220023FEF78AFB2A
:101FC000039B30321A55641E50EA0102F2D1641CA0
:101FD000039AC4F111031444119A012A03D0012277
:101FE00008430DD10AE0084304D000204FF0110B44
:101FF000119072E7A3EB0B056D1E0DE05B4504DD50
:102000004FF0000205F1010504E003DA4FF0000291
:10201000A5F10105002AECD002981199C0E902311E
:10202000C0E9004579E70000000014400000F03FDF
:10203000300000000000F0430000E03F2DE9FF4FBA
:1020400095B09B468946064600250FE2252877D1A4
:1020500000242746F84A0121059400E0044316F8BD
:10206000013F203B01FA03F01042F7D130782A28D3
:1020700011D06FF02F033078A0F13002092A16D862
:10208000059A44F0020402EB820203EB4202104480
:10209000761C0590EFE759F8042B0592002A03DA25
:1020A000504244F40054059044F00204761C307809
:1020B0002E2816D116F8010F44F004042A280DD05A
:1020C0006FF02F023078A0F13003092B09D807EB0D
:1020D000870302EB4303C718761CF3E759F8047B28
:1020E000761C30786C280FD006DC4C2817D0682876
:1020F0000DD06A2814D104E0742810D07A280FD1AA
:102100000DE044F400140AE044F4801401E044F4C7
:1021100040147278824202D104F58014761C761C39
:10212000307866280BD013DC582877D009DC0028DB
:1021300075D04528F6D04628F4D047281AD19DE11D
:1021400018E0632835D0642879D0652812D195E14C
:10215000702873D008DC6728F1D069286FD06E280A
:102160000DD06F2806D1B5E073282CD0752875D016
:10217000782874D05A46179990476D1C75E1C4F3BE
:102180000250022809D003280DD0D9F800100428E5
:102190000DD00D6009F1040967E1D9F80010EA17C4
:1021A000C1E90052F6E7D9F800100D80F2E70D7092
:1021B000F0E719F8041B8DF8001000208DF80100DD
:1021C000EA46012003E059F804AB4FF0FF30610705
:1021D0004FF0000102D40DE008F101018846B94238
:1021E0000FDA8045F8DB1AF808100029F4D108E06E
:1021F00008F1010188468142FADB1AF8081000292B
:10220000F6D105985B46A0EB080721463846179A99
:1022100000F094FA284400EB080507E04DE029E1BE
:102220000DE01AF8010B5A4617999047B8F10108CA
:10223000F7D25B4621463846179A13E142E00A225C
:102240000092C4F302524FF0000A022A08D059F853
:1022500004CB032A4FEAEC710AD00DE029E02AE012
:1022600009F1070121F00702F2E802C1914609E0F5
:102270000FFA8CFC4FEAEC71042A03D14FFA8CFC64
:102280004FEAEC71002907DA0A460021DCF1000C64
:1022900061EB02012D2202E0220504D52B228DF8EC
:1022A0000420012203E0E20701D02022F7E7904654
:1022B00059E00A2102E010220DE010214FF0000A3F
:1022C00000910BE010224FF0000A44F004040827AC
:1022D000009203E008224FF0000A0092C4F3025279
:1022E000022A05D059F804CB0021032A08D009E0BE
:1022F00009F1070121F00702F2E802C1914605E069
:102300001FFA8CFC042A01D10CF0FF0C4FF00008DE
:10231000220728D5702806D0009B83F0100353EACB
:102320000A0305D00EE040228DF80420012208E0C7
:102330005CEA010206D030228DF804208DF80500F9
:1023400002229046009B83F0080353EA0A030AD155
:102350005CEA010201D1620705D530228DF8042024
:102360004FF001087F1E582804D034A003900EA817
:1023700002900DE036A0F9E753466046009AFEF75A
:10238000A9F984460398825C0298401E029002706C
:102390005CEA0100F0D1029806A9081A00F1200AAF
:1023A000600702D524F4803400E00127574502DDA0
:1023B000A7EB0A0000E0002000EB0A01009005985E
:1023C0004144401A0590E00306D45B462146179A23
:1023D000059800F0B3F90544002706E001A85A4625
:1023E000C05D179990476D1C7F1C4745F6DBE003E5
:1023F0000CD55B462146179A059800F09FF90544D5
:1024000004E030205A46179990476D1C0099481EE9
:1024100000900029F5DC08E0029802995A460078FD
:10242000491C0291179990476D1CBAF10001AAF15D
:10243000010AF1DC65E10000092801003031323386
:1024400034353637383961626364656600000000F0
:1024500030313233343536373839414243444546DA
:102460000000000000F058F90544761C3078002880
:102470007FF4ECAD19B02846BDE8F08F620700D4B8
:10248000062709F1070222F0070CFCE80223E146C7
:1024900003F000485FEA080C02D00FF2702C0DE048
:1024A0005FEA045C02D50FF2682C07E05FEAC47CA7
:1024B00002D00FF2602C01E0AFF2700C4FF0FF3849
:1024C00023F00043CDF850C065280CD006DC452829
:1024D00009D046281DD047283DD13DE0662818D0B8
:1024E00067287ED138E00021112F01DB112000E0A8
:1024F000781CCDE9000106A90EA8FFF7DDFCDDE997
:102500000F010E9A03910021009207F1010A049134
:102510004DE04FF000400097CDE9011006A90EA84C
:10252000FFF7CAFCDDE90F0203920E9B119900220E
:10253000DDF80CA00093049211B9791C00EB010A9C
:10254000B7EB0A0004D4C0F1FF3007F1010A049090
:10255000AAEB0700019044E0012F00DA01270021D7
:10256000112F01DD112000E03846CDE9000106A958
:102570000EA8FFF7A1FCDDE90F010E9A03910021DF
:1025800004910092BA4621070CD40399514500DA10
:102590008A46BAF1010F05DD009AAAF10101515CEA
:1025A000302908D0B84202DA10F1040F06DA01210E
:1025B000CDE9011015E0AAF10101E9E7002805DCE9
:1025C000049901440491AAEB000102E0411C514529
:1025D00000DD8A460499401A401C01904FF00040EB
:1025E0000290200704D40198504501DBCDF8048007
:1025F00000208DF84F0002980DF14F07B0F1004F09
:1026000025D02B200E9002984FF0020800280CDAFB
:10261000404202902D200E9007E00A210298FEF71A
:1026200043F83031029007F8011DB8F10001A8F11C
:102630000108F2DC02980028EFD1791E0E9808708C
:10264000307800F0200040F0450007F8020D12A895
:10265000C01B00F107081498007800B1012000EBBE
:102660000A01019801EBE07105984144401A401EAF
:102670000590E00306D45B462146179A059800F0C2
:102680005DF805441498007818B15A461799904798
:102690006D1CE00324D55B462146179A059800F08F
:1026A0004DF805441CE00498002807DBDDE9030130
:1026B000884203DD0098405C179901E017993020AB
:1026C0005A469047049805F10105401C0490019872
:1026D000401E019004D12E205A46179990476D1C38
:1026E000BAF10001AAF1010ADDDC05E017F8010BDF
:1026F0005A46179990476D1CB8F10001A8F10108DE
:10270000F4DC5B462146179A0598ABE62D000000E5
:102710002B000000200000002DE9F04104460025B8
:102720001E461746880404D405E039462020B047E9
:102730006D1C641EF9D52846BDE8F0812DE9F041F5
:10274000044600251E469046C80301D5302700E008
:102750002027880404D505E041463846B0476D1C63
:10276000641EF9D52846BDE8F0810A68531C0B6049
:10277000107070471FB5FEF7AFFBFEF78FFAFEF73C
:102780004BFAFFF76FFAFEF769F9FEF771FEFEF7F5
:10279000B7FE0021082360A20846FEF789FCFEF779
:1027A00035FDDFF888A1624CDFF88891DFF888B149
:1027B000FEF702FA2070012804D0022807D003286F
:1027C0007CD009E051462069FDF7BAFC03E0514690
:1027D0002069FDF707FD20610120FEF71BFEFDF7D4
:1027E000E1FE00224D464B46FDF74DFE0122FDF76E
:1027F000B9FEFDF729FF60600220FEF70BFEFDF732
:10280000D1FE00222B46FDF73EFE0122FDF7AAFE77
:10281000FDF71AFFA0600320FEF7FCFDFDF7C2FEE6
:1028200000222B46FDF72FFE0122FDF79BFEFDF750
:102830000BFFE0600420FEF7EDFDFDF7B3FE002284
:102840002B46FDF720FE00225B46FDF7AAFD002285
:102850003A4BFDF7A0FDFDF7F7FE20616068FDF73C
:10286000C7FECDE9000136A3082210210020FEF7A3
:1028700081FBA068FDF7BCFECDE9000133A308226F
:1028800020210020FEF776FBE068FDF7B1FECDE9E0
:10289000000131A3082230210020FEF76BFB2069E4
:1028A000FDF7A6FECDE900012EA30822102140204D
:1028B000FEF760FB6069FDF79BFE00E029E0CDE9D3
:1028C00000012BA3082220214020FEF753FBA06922
:1028D000FDF78EFECDE9000128A30822302140201B
:1028E000FEF748FBFEF792FCA069FDF781FE074664
:1028F00088466069FDF77CFE05460E462069FDF7B7
:1029000077FE8DE8E00102460B461FA0FEF752FE5F
:102910004EE700205FE700004C6F636174696F6EE3
:1029200020436F6E74726F6C3A000000000020410B
:102930001400002000FEAF400080894000807940F4
:102940004B703A25342E3266000000004B693A2560
:10295000342E3266000000004B643A25342E326675
:10296000000000005461723A252B30342E3066008E
:102970004163743A252B30342E3066004F75743A1B
:10298000252B30342E30660025662C25662C2566D6
:102990002C25660D0A000000000000000000000069
:1029A0000000000000000000000000F8000000002F
:1029B000000000333000000000160E00160E00006C
:1029C000000000000000000040C07840C0784000D7
:1029D000043F04043F040400007088FC0830000039
:1029E000001820FF211E0000F008F000E018000091
:1029F00000211C031E211E0000F00888700000004A
:102A00001E21232419272110000000160E000000AB
:102A10000000000000000000000000E018040200B8
:102A2000000000071820400000020418E000000029
:102A30000040201807000000404080F08040400027
:102A40000202010F01020200000000F0000000007D
:102A50000101011F01010100000000000000000051
:102A600000B0700000000000000000000000000046
:102A7000000101010101010100000000000000004F
:102A800000303000000000000000000080601804EA
:102A9000006018060100000000E010080810E000C7
:102AA000000F102020100F00001010F80000000090
:102AB0000020203F202000000070080808887000D7
:102AC0000030282422213000003008888848300057
:102AD0000018202020110E000000C02010F8000077
:102AE00000070424243F240000F808888808080010
:102AF0000019212020110E0000E010888818000025
:102B0000000F112020110E0000380808C8380800F6
:102B10000000003F00000000007088080888700076
:102B2000001C222121221C0000E010080810E000F7
:102B30000000312222110F00000000C0C000000080
:102B40000000003030000000000000C0C0000000A5
:102B5000000080B0700000000000804020100800DD
:102B60000001020408102000404040404040400066
:102B70000404040404040400000810204080000041
:102B80000020100804020100007048080808F00046
:102B90000000003036010000C030C828E810E00016
:102BA0000718272423140B000000C038E0000000A1
:102BB000203C23020227382008F88888887000000B
:102BC000203F202020110E00C030080808083800DF
:102BD000071820202010080008F808080810E00056
:102BE000203F202020100F0008F88888E8081000F7
:102BF000203F20202320180008F88888E8081000CB
:102C0000203F200003000000C03008080838000002
:102C100007182020221E020008F808000008F80803
:102C2000203F210101213F20000808F8080800008A
:102C30000020203F2020000000000808F8080800BD
:102C4000C08080807F00000008F888C02818080035
:102C5000203F20012638200008F80800000000006E
:102C6000203F20202020300008F8F800F8F8080065
:102C7000203F003F003F200008F830C00008F8085F
:102C8000203F200007183F00E01008080810E0006F
:102C90000F10202020100F0008F808080808F00086
:102CA000203F210101010000E01008080810E000A9
:102CB0000F18242438504F0008F88888888870003E
:102CC000203F2000030C30200070880808083800DE
:102CD0000038202121221C00180808F808081800D4
:102CE0000000203F2000000008F808000008F80855
:102CF000001F202020201F000878880000C8380806
:102D0000000007380E010000F80800F80008F8007D
:102D1000033C0700073C0300081868808068180817
:102D200020302C03032C30200838C800C838080095
:102D30000000203F2000000010080808C8380800E4
:102D40002038262120201800000000FE0202020088
:102D50000000007F40404000000C30C00000000038
:102D6000000000010638C00000020202FE00000060
:102D7000004040407F0000000020100804081020A0
:102D80000000000000000000000000000000000043
:102D90008080808080808080000204080000000025
:102DA0000000000000000000000080808080000023
:102DB0000019242222223F2008F800808000000011
:102DC000003F112020110E000000008080800000D4
:102DD000000E112020201100000000808088F800E3
:102DE000000E112020103F20000080808080000015
:102DF000001F222222221300008080F08888881879
:102E00000020203F20200000000080808080800083
:102E1000006B94949493600008F800808080000018
:102E2000203F210000203F200080989800000000F3
:102E30000020203F20200000000000809898000023
:102E400000C08080807F000008F800008080800043
:102E5000203F24022D302000000808F80000000068
:102E60000020203F20200000808080808080800023
:102E7000203F20003F20003F008080008080000035
:102E800000203F2100203F20000080808080000043
:102E9000001F202020201F00808000808000000074
:102EA00080FFA12020110E000000008080808000A3
:102EB000000E112020A0FF80808080008080800094
:102EC00020203F21200001000000808080808000C1
:102ED0000033242424241900008080E08080000036
:102EE0000000001F20200000808000000080800083
:102EF000001F202020103F208080800000808080E4
:102F000000010E3008060100808000800080808073
:102F10000F300C030C300F00008080008080800098
:102F20000020312E0E3120008080800000808080C3
:102F300080818E7018060100008080808080800073
:102F40000021302C2221300000000000807C020291
:102F500000000000003F404000000000FF000000B3
:102F600000000000FF0000000002027C8000000062
:102F70000040403F00000000008040408000008092
:102F8000000000000001010000000000000000003F
:102F9000002F000000000700070000147F147F14BA
:102FA00000242A7F2A120023130864620036495540
:102FB000225000000007000000001C224100000019
:102FC00041221C000014083E08140008083E0808AE
:102FD000000000A060000008080808080000606009
:102FE0000000002010080402003E5149453E000048
:102FF000427F4000004261514946002141454B312A
:10300000001814127F10002745454539003C4A49F5
:103010004930000171090503003649494936000667
:103020004949291E000036360000000056360000CF
:10303000000814224100001414141414000041224A
:103040001408000201510906003E4955592E007C22
:103050001211127C007F49494936003E414141220C
:10306000007F4141221C007F49494941007F0909F5
:103070000901003E4149497A007F0808087F0000A5
:10308000417F4100002040413F01007F0814224160
:10309000007F40404040007F020C027F007F040818
:1030A000107F003E4141413E007F09090906003E74
:1030B0004151215E007F091929460046494949319D
:1030C0000001017F0101003F4040403F001F2040C0
:1030D000201F003F4038403F00631408146300077E
:1030E0000870080700615149454300007F414100D5
:1030F000000204081020000041417F00000402018A
:103100000204004040404040000001020400002052
:1031100054545478007F4844443800384444442090
:1031200000384444487F00385454541800087E093D
:1031300001020018A4A4A47C007F08040478000005
:10314000447D4000004080847D00007F10284400C2
:103150000000417F4000007C04180478007C0804D3
:10316000047800384444443800FC2424241800180F
:10317000242418FC007C08040408004854545420FB
:1031800000043F444020003C4040207C001C204084
:10319000201C003C4030403C004428102844001CC7
:1031A000A0A0A07C004464544C440000087F41006F
:1031B0000000007F00000000417F080000080408B4
:1031C0001008EFBC8C0000000000000000000000B0
:1031D000000000000000000000583800000000005F
:1031E00000000000000000E38082000000000000FA
:1031F0000000000000000000000000000000182493
:10320000241800000000000000000000E4BDA00041
:1032100000008060F8074020180F08C80808281828
:1032200000010000FF00100C0340807F0001061821
:1032300000E5A5BD00001010F01F10F00080828294
:10324000E2928A86800040221508166100004080C4
:103250007F0000000000E4B8960000202020FE203F
:1032600020FF202020FF20202020000000007F40A1
:103270004047444444474040400000E7958C0000EC
:10328000000000FE929292FE929292FE00000000D8
:1032900008080484621E010001FE020404080800FC
:1032A0000000000000FF01010131090909098971CD
:1032B00001010101FFFF80808080808096818080F5
:1032C00080808080FF000000E832000800000020BD
:1032D00044000000981E00082C3300084400002021
:1032E00004080000A81E00080204060800000000F0
:1032F000010203040102030406070809000000009C
:103300009A99993E9A99993E0000000000000000A9
:1033100000000000000000000000000000000000AD
:0C332000000000000000000000000000A1
:04000005080000ED02
:00000001FF
