:020000040800F2
:1000000008040020010100089B02000837020008D4
:1000100099020008490100080505000800000000D9
:10002000000000000000000000000000B90200080D
:100030004B010008000000009D020008B104000808
:100040001B0100081B0100081B0100081B01000820
:100050001B0100081B0100081B0100081B01000810
:100060001B0100081B0100081B0100081B01000800
:100070001B0100081B0100081B0100081B010008F0
:100080001B0100081B0100081B0100081B010008E0
:100090001B0100081B0100081B0100081B010008D0
:1000A0001B0100081B0100081B0100081B010008C0
:1000B0001B0100081B0100081B0100081B010008B0
:1000C0001B0100081B0100081B0100081B010008A0
:1000D0001B0100081B0100081B0100081B01000890
:1000E0001B0100081B0100081B010008DFF80CD0F1
:1000F00000F018F800480047250500080804002013
:100100000648804706480047FEE7FEE7FEE7FEE7B1
:10011000FEE7FEE7FEE7FEE7FEE7FEE7B5040008C0
:10012000ED000008064C074D06E0E06840F00103D2
:1001300094E8070098471034AC42F6D3FFF7DAFF93
:100140004805000868050008FEE7704700B502464C
:100150004FF47A7302E0184600F003F8521EFAD208
:1001600000BD00EBC000C1004FF0E0204161002164
:100170008161052101610169C903FCD50421016187
:100180007047F0B5CC78002204F00F03E40601D5E7
:100190008C7823430C784FF00F0C14F0FF0F4FF0C6
:1001A000010E1BD005680E880EFA02F42640A64206
:1001B00010D196000CFA06F725EA070703FA06F5B0
:1001C000CE783D43282E02D0482E02D002E0446172
:1001D00000E00461521C082AE5D305600A88FF2A62
:1001E0001CD94468002202F108060EFA06F50E88B2
:1001F0002E40AE420ED196000CFA06F7BC4303FA2D
:1002000006F7CE783C43282E00D14561CE78482EA3
:1002100000D10561521C082AE5D34460F0BD0246B6
:10022000002092680A4200D0012070470AB10161A3
:10023000704741617047FEE708B50121082000F0D2
:100240002FF848208DF803000220ADF800008DF84B
:10025000020069460148FFF794FF08BD000C014009
:1002600038B50121102000F01BF814208DF8030090
:100270004FF40054ADF800400220064D8DF8020006
:1002800069462846FFF77DFF012221462846FFF7F1
:10029000CDFF38BD00100140FEE7704770470000F9
:1002A000044A0029916901D0014300E08143916132
:1002B0007047000000100240704700000CB500229B
:1002C000264800920192016841F4803101604FF4A8
:1002D000A063016801F4003101910099491C00916B
:1002E000019911B900999942F3D10168890333D575
:1002F000012101911A490A6842F010020A600A6855
:1003000022F003020A600A6842F002020A604168B1
:10031000416041684160416841F4806141604168E9
:1003200021F47C114160416841F4E81141600168A9
:1003300041F08071016001688901FCD5416821F0BC
:1003400003014160416841F0020141604168C1F32D
:1003500081010229FAD10CBD01920CBD00100240AE
:100360000020024008B501210820FFF799FF142062
:100370008DF803004FF44070ADF8000003208DF8B5
:10038000020069460648FFF7FCFE002000F074F802
:10039000012000F07FF8012000F06EF808BD000099
:1003A000000C014010B54FF400710448FFF737FF0F
:1003B00004460A20FFF7D5FE204610BD000C014080
:1003C00010B5002000F058F8012000F063F801207B
:1003D00000F052F8BDE81040FFF7E4BF70B500240C
:1003E00005468026002000F047F826FA04F0284051
:1003F00000D0012000F04EF8012000F03DF8641C10
:10040000E4B2082CEED370BD70B5044615460E4616
:10041000002000F03FF804F0FE00FFF7DFFFFFF7D9
:10042000CFFF20B100F018F84FF0FF3070BD00246E
:100430000CE0305DFFF7D2FFFFF7C2FF20B100F004
:100440000BF86FF0010070BD641CA4B2AC42F0D395
:1004500000F002F8002070BD10B5002000F00CF88C
:10046000002000F017F8012000F006F8BDE8104069
:10047000012000F00FB8000010B502464FF4807163
:100480000348FFF7D3FEBDE810400A20FFF769BE1E
:10049000000C014010B502464FF400710348FFF70D
:1004A000C5FEBDE810400A20FFF75BBE000C01400E
:1004B000704700000F4810B5016841F0010101606C
:1004C00041680D4A1140416001680C4A11400160C9
:1004D000016821F480210160416821F4FE0141603E
:1004E0004FF41F018160FFF7E9FE05494FF00060FE
:1004F000086010BD001002400000FFF8FFFFF6FE8C
:1005000008ED00E0FEE702E008C8121F08C1002A5B
:10051000FAD170477047002001E001C1121F002A84
:10052000FBD17047FFF79CFEFFF786FEFFF71AFF2F
:100530006420FFF70BFE052202497820FFF764FFD5
:10054000FEE7000000000020680500080000002011
:1005500008000000060500087005000808000020DB
:100560000004000016050008008D14AFA50000006F
:04000005080000ED02
:00000001FF
