:020000040800F2
:100000001008002091010008850C00089D070008D9
:10001000810C0008210500085714000800000000AA
:10002000000000000000000000000000DD110008DA
:100030002505000800000000F50D0008C9120008A1
:10004000AB010008AB010008AB010008B5110008C6
:10005000AB010008AB010008AB010008AB010008D0
:10006000AB010008AB01000829050008AB0100083E
:10007000AB010008AB010008AB010008AB010008B0
:10008000AB010008AB010008AB010008AB010008A0
:10009000AB010008AB010008AB01000845050008F2
:1000A000AB010008AB010008AB010008AB01000880
:1000B000AB010008AB010008AB010008AB01000870
:1000C000AB010008AB010008AB010008AB01000860
:1000D000AB0100082D130008AB010008C113000894
:1000E000AB0100086D110008AB01000800F002F838
:1000F00000F03FF80AA090E8000C82448344AAF183
:100100000107DA4501D100F034F8AFF2090EBAE880
:100110000F0013F0010F18BFFB1A43F0010318473B
:10012000BC220000DC220000103A24BF78C878C14D
:10013000FAD8520724BF30C830C144BF04680C60ED
:10014000704700000023002400250026103A28BF35
:1001500078C1FBD8520728BF30C148BF0B60704739
:10016000632900F08981002070471FB51FBD10B5BD
:1001700010BD00F0A3F91146FFF7F7FF01F0AAF94F
:1001800000F0C1F903B4FFF7F2FF03BC01F06CF912
:100190000948804709480047FEE7FEE7FEE7FEE71B
:1001A000FEE7FEE7FEE7FEE7FEE7FEE70448054957
:1001B000054A064B70470000CD120008ED0000080C
:1001C000100200201008002010040020100400205D
:1001D000704700000FB4044910B503AA029800F05C
:1001E00057F910BC5DF814FB1400002070B50C46E4
:1001F0000546012A05D02878800600D5EA69002343
:1002000002E0012305E05B1C934202D2E05C00287F
:10021000F9D1A869E618C01AA861286A18442862AA
:100220002846AFF3008004E0D5E9012114F8010B62
:100230009047B442F8D32846AFF3008070BD000069
:100240002DE9F05F894604464FF0000ADFF874B1EB
:10025000FB44C0F820A02046E1688847002874D0FD
:10026000252806D0D4E901219047206A401C20624D
:10027000F1E700265F462046E168884720280546CA
:1002800007DB312D05D2781910F8200C08B1064390
:10029000F1E7B00701D526F00406C4F81CA000273A
:1002A000C4F818A02A2D09D0284601F0D6F838B392
:1002B00004EB8708303DC8F8185019E059F8041BC2
:1002C000204604EB87029161E1688847012F0546CB
:1002D00018D1E069002820DA26F020061DE0D8F8C1
:1002E000180000EB800005EB40003038C8F818001B
:1002F0002046E1688847054601F0AFF80028EED1B6
:10030000012F0AD02E2D08D12046E16888477F1C96
:100310000546022F46F02006C4DBA069002803DA58
:10032000404246F00106A061F00701D026F0100619
:100330006C2D0BD0682D09D04C2D39D06A2D35D0BD
:10034000742D35D07A2D33D016E038E0E1682F4691
:1003500020468847B842054609D16C2F26D04FF475
:100360008060E168064320468847054604E06C2F1C
:100370001AD04FF4807006430DB3A5F1410019283F
:1003800002D8203546F400664A46294620462660B3
:100390004E46FFF7E5FE80B101280BD0F61D26F092
:1003A000070000F1080956E74020E4E78020D8E77D
:1003B0000020D6E706F104094DE7284652E7206AF7
:1003C000BDE8F09F7421000010B5203AC0F00B800A
:1003D000B1E81850203AA0E81850B1E81850A0E849
:1003E0001850BFF4F5AF5FEA027C24BFB1E81850A3
:1003F000A0E8185044BF18C918C0BDE810405FEA13
:10040000827C24BF51F8043B40F8043B08BF70478E
:10041000D20728BF31F8023B48BF11F8012B28BF93
:1004200020F8023B48BF00F8012B70477047704727
:100430007047704701694A1C02610878704700B52F
:100440008FB0CDE901310021059105497944CDE90D
:10045000031011466846FFF7F3FE0FB000BD000021
:10046000E5FFFFFF10B5436913B1AFF3008001E072
:10047000FFF7BCFE012010BD127800F124010A70C4
:1004800000224A700122EDE711684FF0FF32E9E7E0
:10049000074B70B50D467B44FFF7D1FF0446284655
:1004A00000F008F810B14FF0FF3070BD204670BD6D
:1004B0001F100000007B00F080007047754600F0C0
:1004C0002BF8AE4605006946534620F007008546E6
:1004D00018B020B5FFF76AFEBDE820404FF00006D7
:1004E0004FF000074FF000084FF0000B21F007011C
:1004F000AC46ACE8C009ACE8C009ACE8C009ACE85F
:10050000C0098D46704710B50446AFF30080204601
:10051000BDE81040FFF736BE00487047B00100202C
:1005200000BFFEE77047000010B5102000F032F861
:1005300028B1012002490870102000F025F810BDF4
:100540001C00002010B5202000F024F828B1022063
:100550000C490870202000F017F8402000F01AF82D
:1005600028B1032007490870402000F00DF88020D2
:1005700000F010F828B1042002490870802000F033
:1005800003F810BD1C0000200149086070470000FE
:1005900014040140014600200022074B1B6803EAB7
:1005A0000102054B14331B680B4013B10AB1012043
:1005B00000E0002070470000000401400549096880
:1005C00021F01001034A11601146096801431160CE
:1005D000704700000020024001460020034A1068D6
:1005E00000F038000843106070470000002002400F
:1005F0002DE9F041024600250026002000230024BA
:10060000002791F803C00CF00F0591F803C00CF01F
:10061000100CBCF1000F03D091F802C04CEA0505A4
:1006200091F800C0BCF1000F31D0146800202BE01D
:100630004FF0010C0CFA00F3B1F800C00CEA03060D
:100640009E4220D183004FF00F0C0CFA03F7BC43FD
:1006500005FA03FC4CEA040491F803C0BCF1280F2E
:1006600006D14FF0010C0CFA00FCC2F814C00AE0ED
:1006700091F803C0BCF1480F05D14FF0010C0CFA02
:1006800000FCC2F810C0401C0828D1D31460B1F897
:1006900000C0BCF1FF0F34DD546800202EE000F1F3
:1006A000080C4FF0010808FA0CF3B1F800C00CEA8E
:1006B00003069E4221D183004FF00F0C0CFA03F782
:1006C000BC4305FA03FC4CEA040491F803C0BCF1F6
:1006D000280F05D100F1080C08FA0CF8C2F81480B4
:1006E00091F803C0BCF1480F07D100F1080C4FF09E
:1006F000010808FA0CF8C2F81080401C0828CED374
:100700005460BDE8F0810000F0B50A4600230024E3
:100710000021002500F00046B6F1004F02D11D4E29
:10072000F16901E01B4E7168C0F3034583B200F428
:100730004016B6F5401F08D121F07061154E76685D
:1007400026F07066134F7E6012E000F48016B6F556
:10075000801F06D1032606FA05F4A14341F070611B
:1007600006E0460D360103FA06F6B14341F070612A
:1007700022B1460D360103FA06F6314300F0004679
:10078000B6F1004F02D1034EF16101E0014E7160FC
:10079000F0BD0000000001404161704700BFFEE76E
:1007A00021B1028842F48062028004E002884FF6A0
:1007B000FF331A400280704770B5024600240025BE
:1007C00000230020958A138B1B0445EA030626F0BC
:1007D0007F4404EA01068E4201D1012000E000209E
:1007E00070BD21B1028842F00102028004E002885B
:1007F0004FF6FE731A400280704700001FB500F0EC
:1008000021F80020ADF804004BF6FF70ADF80600AB
:10081000C020ADF808004FF48060ADF80A00000178
:10082000ADF80C00054800906946054800F05AF8FC
:1008300001210348FFF7D5FF1FBD0000400D030055
:100840000054004008B501211C2000F0E5FA012108
:10085000480500F0D1FAC020ADF800001C208DF84A
:10086000030003208DF8020069460248FFF7C0FE2E
:1008700008BD0000000C014021B1028842F48072E2
:10088000028004E002884FF6FF631A40028070473E
:1008900021B1028842F40072028004E002884FF61F
:1008A000FF531A40028070470CB502460020002317
:1008B0000193009300920B0F019321F07F41019B64
:1008C0001BB1009B1433009303E0090C009B183309
:1008D0000093009B1B680B400BB1012000E000203F
:1008E0000CBD00002DE9F04385B004460D460026FE
:1008F000B1460427DFF8CC80A6884FF6C0700640CA
:10090000684600F0F7FADDF808802F48B8FBF0F0F1
:100910001FFA80F946EA0906A68020884FF6FE7184
:100920000840208000262949286888420CD8286879
:100930004000B8FBF0F087B2042F00DA04273E43F2
:1009400009F10100208427E0E8884BF6FF71884216
:1009500006D1286800EB4000B8FBF0F087B209E050
:10096000286800EBC00101EB0010B8FBF0F087B283
:1009700047F48047C7F30B0008B947F0010747F475
:10098000004006434FF4967009FB00F04FF47A7173
:1009900090FBF1F0401C2084A683208840F00100E9
:1009A000208026884FF6F5300640A88869890843DC
:1009B00006432680A88929890843208105B0BDE81F
:1009C000F083000000127A0040420F00A086010070
:1009D0002DE9F04106460F4615461C4600BF4FF470
:1009E00000313248FFF760FF0028F8D101212F487D
:1009F000FFF742FF00BF2E492C48FFF7DDFE00281D
:100A0000F9D000223146294800F0E0F800BF29491A
:100A10002648FFF7D1FE0028F9D001212348FFF72F
:100A2000E0FE3946214800F0DAF800BF2149891C70
:100A30001E48FFF7C1FE0028F8D001211B48FFF730
:100A40001BFF00BF1A491948FFF7B6FE0028F9D06E
:100A500001223146154800F0B9F800BF1449491C7D
:100A60001248FFF7A9FE0028F8D016E0012C07D1A4
:100A700000210E48FFF794FE01210C48FFF708FF04
:100A80000B493F310948FFF797FE30B1074800F0A6
:100A900013F828706D1C601E84B2002CE6D1012171
:100AA0000248FFF77DFEBDE8F081000000540040E1
:100AB00001000300820007000146088AC0B27047A7
:100AC0002DE9F04105460F4614461E4601211D48FA
:100AD000FFF7D2FE00BF1C491A48FFF76DFE002841
:100AE000F9D000222946174800F070F800BF1749D6
:100AF0001448FFF761FE0028F9D03946114800F08C
:100B00006EF800BF1149891C0E48FFF755FE0028FA
:100B1000F8D00CE021780B4800F061F8641C00BFAD
:100B20000A49891C0748FFF747FE0028F8D0301E05
:100B3000A6F101018EB2EDD101210248FFF7A8FE16
:100B4000BDE8F0810054004001000300820007006E
:100B500070B504460E46154601211948FFF78CFE74
:100B600000BF18491648FFF727FE0028F9D00022D9
:100B70002146134800F02AF800BF13491048FFF738
:100B80001BFE0028F9D031460D4800F028F800BFC0
:100B90000D49891C0A48FFF70FFE0028F8D02946A6
:100BA000074800F01CF800BF0749891C0448FFF7FC
:100BB00003FE0028F8D001210148FFF769FE70BD4F
:100BC00000540040010003008200070012B141F010
:100BD000010102E04FF6FE73194001827047018265
:100BE000704710B580226B21D020FFF7B1FF4FF482
:100BF0007A7000F03CFC00226B21D020FFF7A8FFA8
:100C000007221921D020FFF7A3FF06221A21D020A6
:100C1000FFF79EFF00221C21D020FFF799FF18222A
:100C20001B21D020FFF794FF10BD7FB505460E2392
:100C30006A463B21D020FFF7CBFE00240BE060008A
:100C4000401C1DF800001DF8141000EB012025F8D1
:100C50001400601CC4B2032CF1DB04240DE060001E
:100C6000401C1DF800001DF8141000EB012081B29B
:100C7000601E25F81010601CC4B2072CEFDB7FBD8E
:100C800000BFFEE7704710B500F088F800F064F888
:100C900000F092F810BD00002DE9F04705460C4623
:100CA00016464FF0000AA01CC4B2D1463AE005F146
:100CB000B000C2B200217820FFF74AFF2746E017B4
:100CC00004EB107000111030C2B200217820FFF741
:100CD0003FFFE01704EB10700011A4EB0010C2B24C
:100CE00000217820FFF734FF4FF0000811E00AEBF5
:100CF0000610A0F500700E490A5C40217820FFF72D
:100D000027FF0AF1010000F0FF0A08F1010000F0DE
:100D1000FF08B8F1080FEADB681CC5B209F1010051
:100D200000F0FF09B9F1020FC1DBBDE8F087000058
:100D30004819000870B506460C46002508E014F86E
:100D4000012BE806010E3046FFF7A6FF681CC5B26E
:100D500020780028F3D170BD70B5B0241BE0224686
:100D600000217820FFF7F4FE102200217820FFF701
:100D7000EFFE002211467820FFF7EAFE002506E08C
:100D8000002240217820FFF7E3FE681CC5B2842DC5
:100D9000F6DB601CC4B2B82CE1DB70BD08B505A061
:100DA0000068009003236A4600217820FFF788FE40
:100DB00008BD0000AE8D100000B587B01C2206A152
:100DC0006846FFF701FB1C236A4600217820FFF7E5
:100DD00077FE07B000BD0000AE0010D580A83FD35D
:100DE00000B0408D14A1C8DA1281FFD9F1DB3020A8
:100DF00000A4A6AF7047000029B1064AD269024399
:100E0000044BDA6104E0034AD2698243014BDA61A0
:100E1000704700000010024029B1064A926902435F
:100E2000044B9A6104E0034A92698243014B9A6140
:100E3000704700000010024010B500F035F84FF484
:100E4000803000F0F3F800F04FF90446012C24D173
:100E50004FF4E011000400F02DF9002000F0DAF862
:100E6000A00200F009F9002000F012F90220FFF7BB
:100E7000B3FB1020FFF7A2FB012000F015F900BF23
:100E8000392000F0A1F80028FAD0022000F020F963
:100E900000BF00F0B7F80828FBD1012144F27C0024
:100EA000FFF7BAFF10BD00000F48006840F00100D6
:100EB0000D490860084640680C4908400A494860E6
:100EC000084600680A490840074908600846006863
:100ED00020F4802008600846406820F4FE00486046
:100EE0004FF41F0088607047001002400000FFF8B8
:100EF000FFFFF6FE30B500210022002400232D4D17
:100F00006D6805F00C0121B1042905D0082923D111
:100F100005E0294D056022E0274D05601FE0254DC5
:100F20006D6805F47012234D6D6805F48034022558
:100F300005EB92421CB9214D554305600BE01D4D58
:100F40006D6805F400351DB11C4D5543056002E088
:100F5000194D5543056002E0174D056000BF00BF05
:100F6000144D6D6805F0F0010909154D6B5C0568BD
:100F7000DD4045600F4D6D6805F4E061090A104DD4
:100F80006B5C4568DD4085600A4D6D6805F4605115
:100F9000C90A0B4D6B5C4568DD40C560054D6D6849
:100FA00005F44041890B074D6B5CC568B5FBF3F553
:100FB000056130BD0010024000127A0000093D00BA
:100FC000000000201000002010B501460022002380
:100FD00000204A11012A02D1094C236806E0022AA6
:100FE00002D1074C236A01E0054C636A01F01F023D
:100FF000012494401C400CB1012000E0002010BDF1
:10100000001002400248406800F00C0070470000E9
:101010000010024001460020034A506820F0F00012
:1010200008435060704700000010024011490968F1
:1010300021F480310F4A11601146096821F48021A2
:101040001160B0F5803F03D0B0F5802F0ED106E0DF
:101050000849096841F48031064A116007E00549F2
:10106000096841F4A021034A116000E000BF00BFFD
:10107000704700000010024001460020034A5068FB
:1010800020F4E06008435060704700000010024008
:1010900001460020034A506820F4605040EAC10035
:1010A0005060704700100240014908667047000018
:1010B0000000424202460020044B586820F47C1095
:1010C00042EA01031843014B586070470010024088
:1010D00001460020034A506820F003000843506096
:1010E000704700000010024038B500200090002436
:1010F000002500BF3120FFF767FF05460098401C20
:1011000000900098B0F5A06F01D0002DF2D03120F2
:10111000FFF75AFF08B1012400E00024204638BD43
:1011200008B501217C20FFF777FE01210846FFF773
:1011300073FE4FF4C040ADF8000010208DF803009E
:1011400003208DF8020069460648FFF751FA012195
:101150000548FFF7D9FA4FF4C0410248FFF71CFBDE
:1011600008BD0000000801400004300010B5022056
:1011700000F00EF8022000F003F800F025F810BD92
:10118000024909888143014A1180704704280040C0
:1011900001460020064A12880A40D0B2044A121FB3
:1011A00012880A4012B108B1012000E00020704707
:1011B0000428004010B50120FFF7EAFF0120FFF7E7
:1011C000DFFF00F001F810BD00BF0348008800F009
:1011D00020000028F9D0704704280040704710B55F
:1011E00000F002F810BD00000CB500200190009046
:1011F0003348006840F480303149086000BF30480F
:10120000006800F4003000900198401C01900098A4
:1012100018B90198B0F5A06FF1D12948006800F421
:10122000003010B10120009001E0002000900098F3
:10123000012843D12348006840F01000214908608C
:101240000846006820F0030008600846006840F087
:10125000020008601A48406819494860084640681A
:1012600048600846406840F480604860084640682E
:1012700020F47C1048600846406840F4E81048605C
:101280000846006840F08070086000BF0C480068A5
:1012900000F000700028F9D00948406820F00300F1
:1012A000074948600846406840F00200486000BFB7
:1012B0000348406800F00C000828F9D10CBD00007C
:1012C00000100240002002407047000010B5134893
:1012D000006840F001001149086008464068104964
:1012E00008400E494860084600680E4908400B490E
:1012F00008600846006820F48020086008464068BE
:1013000020F4FE0048604FF41F008860FFF767FF7D
:101310004FF000600449086010BD0000001002405A
:101320000000FFF8FFFFF6FE08ED00E010B540F208
:1013300025511F4800F060F8002838D01C4800F004
:1013400085F8C4B221461BA0FEF744FF1A48008866
:1013500000F4004058BB1848008800F4804060B199
:101360000A2C03D000201449088020E0124800888D
:1013700040F400401049088019E00D2C06D10E48B9
:10138000008840F480400C49088010E00A4800883A
:10139000C0F30D0009490C5407480088401C064959
:1013A000088008460088C72801DD0020088010BD9D
:1013B00000380140256300001800002020000020B4
:1013C00010B540F225510A4800F016F870B10848EF
:1013D00000F03CF8C4B2532C03D101200549088029
:1013E00004E04B2C02D102200249088010BD00000D
:1013F000004800401A00002070B502460024002377
:101400000025002040F66A16B14200D100BFC1F3AA
:10141000421501F01F03012606FA03F3012D02D144
:101420009689334006E0022D02D1168A334001E04E
:10143000968A33400C12012606FA04F416883440CA
:1014400013B10CB1012000E0002070BD0146888876
:10145000C0F30800704700BFFEE730380A2801D209
:101460000120704700207047014600BF704700B55B
:10147000034603E04FF47A7000F006F8181EA3F15B
:1014800001018BB2F6D100BD00EBC001C9004FF0E5
:10149000E0225161002191610521116100BF4FF0EF
:1014A000E021096901F480310029F8D004214FF0CE
:1014B000E02211617047000000BF054A128802F067
:1014C0004002002AF9D0C2B2014B1B1D1A8070479E
:1014D000003801400EB500200090019002904FF4BA
:1014E000FA70FFF7C4FFFFF7A7FCFFF719FEFFF73D
:1014F00085F9FFF7C8FBF5A10020FFF71BFCF8A159
:101500000220FFF717FCFBA10420FFF713FCFEA14C
:101510000620FFF70FFCFFF764FB14E26846FFF7B5
:1015200084FBBDF8000042F2107190FBF1F0303006
:1015300084B2224610210220FFF7AEFBBDF8000066
:1015400042F2107190FBF1F201FB12004FF47A713C
:1015500090FBF1F0303084B2224618210220FFF7D0
:101560009BFBBDF800004FF47A7190FBF1F201FB98
:101570001200642190FBF1F0303084B22246202129
:101580000220FFF789FBBDF80000642190FBF1F217
:1015900001FB12000A2190FBF1F0303084B22246A8
:1015A00028210220FFF778FBBDF800000A2190FBFC
:1015B000F1F201FB1200303084B2224630210220C9
:1015C000FFF76AFBBDF8060042F2107190FBF1F0E4
:1015D000303084B2224658210220FFF75DFBBDF86F
:1015E000060042F2107190FBF1F201FB12004FF481
:1015F0007A7190FBF1F0303084B2224660210220F3
:10160000FFF74AFBBDF806004FF47A7190FBF1F248
:1016100001FB1200642190FBF1F0303084B22246CD
:1016200068210220FFF738FBBDF80600642190FB1B
:10163000F1F201FB12000A2190FBF1F0303084B28C
:10164000224670210220FFF727FBBDF806000A2181
:1016500090FBF1F201FB1200303084B22246782177
:101660000220FFF719FBBDF8020042F2107190FB57
:10167000F1F0303084B2224610210420FFF70CFB39
:10168000BDF8020042F2107190FBF1F201FB120072
:101690004FF47A7190FBF1F0303084B22246182179
:1016A0000420FFF7F9FABDF802004FF47A7190FBBD
:1016B000F1F201FB1200642190FBF1F0303084B2B2
:1016C000224620210420FFF7E7FABDF8020064213A
:1016D00090FBF1F201FB12000A2190FBF1F0303097
:1016E00084B2224628210420FFF7D6FABDF8020072
:1016F0000A2190FBF1F201FB1200303084B2224645
:1017000030210420FFF7C8FABDF8080042F210713A
:1017100090FBF1F0303084B2224658210420FFF7CC
:10172000BBFABDF8080042F2107190FBF1F201FB28
:1017300012004FF47A7190FBF1F0303084B22246FF
:1017400060210420FFF7A8FABDF808004FF47A7171
:1017500090FBF1F201FB1200642190FBF1F03030BC
:1017600084B2224668210420FFF796FABDF80800EB
:10177000642190FBF1F201FB12000A2190FBF1F0D1
:10178000303084B2224670210420FFF785FABDF87C
:1017900008000A2190FBF1F201FB1200303084B204
:1017A000224678210420FFF777FABDF8040042F2C0
:1017B000107190FBF1F0303084B2224610210620E7
:1017C000FFF76AFABDF8040042F2107190FBF1F2E3
:1017D00001FB12004FF47A7190FBF1F0303084B2CB
:1017E000224618210620FFF757FABDF804004FF4EF
:1017F0007A7190FBF1F201FB1200642190FBF1F091
:10180000303084B2224620210620FFF745FABDF889
:101810000400642190FBF1F201FB12000A2190FB0D
:10182000F1F0303084B2224628210620FFF734FA46
:10183000BDF804000A2190FBF1F201FB12003030E8
:1018400084B2224630210620FFF726FABDF80A00AE
:1018500042F2107190FBF1F0303084B222465821F0
:101860000620FFF719FABDF80A0042F2107190FB4A
:10187000F1F201FB12004FF47A7190FBF1F030307D
:1018800084B2224660210620FFF706FABDF80A005E
:101890004FF47A7190FBF1F201FB1200642190FB8E
:1018A000F1F0303084B2224668210620FFF7F4F9C7
:1018B000BDF80A00642190FBF1F201FB12000A213D
:1018C00090FBF1F0303084B2224627E020204D50CA
:1018D0005536303530205445535420200000000048
:1018E000583A20202020202047583A20202020202D
:1018F00000000000593A20202020202047593A209B
:1019000020202020000000005A3A20202020202003
:10191000475A3A2020202020000000007021062095
:10192000FFF7BAF9BDF80A000A2190FBF1F201FBBA
:101930001200303084B2224678210620FFF7ACF93D
:10194000C820FFF794FDE9E500000000000000005A
:101950000000000000000000000038FCFC3800001F
:101960000000000D0D000000000E1E00001E0E0005
:10197000000000000000000020F8F820F8F8200027
:10198000020F0F020F0F0200387C444747CC98002B
:101990000306041C1C07030030300080C0603000C8
:1019A0000C060301000C0C0080D87CE4BCD840007D
:1019B000070F0808070F080000101E0E00000000A7
:1019C00000000000000000000000F0F80C0400001F
:1019D000000003070C0800000000040CF8F00000F1
:1019E0000000080C0703000080A0E0C0C0E0A08059
:1019F0000002030101030200008080E0E08080001B
:101A000000000003030000000000000000000000D0
:101A10000000101E0E00000080808080808080000A
:101A200000000000000000000000000000000000B6
:101A30000000000C0C00000000000080C0603000BE
:101A40000C06030100000000F8FC04C424FCF800AC
:101A5000070F0908080F0700001018FCFC00000021
:101A60000008080F0F080800080C84C4643C180024
:101A70000E0F0908080C0C00080C444444FCB80084
:101A8000040C0808080F0700C0E0B098FCFC8000B8
:101A9000000000080F0F08007C7C4444C4C484008C
:101AA000040C0808080F0700F0F84C4444C08000FC
:101AB000070F0808080F07000C0C0484C47C3C00C6
:101AC00000000F0F00000000B8FC444444FCB800C4
:101AD000070F0808080F0700387C444444FCF8004E
:101AE000000808080C070300000000303000000068
:101AF000000000060600000000000030300000007A
:101B00000000080E060000000080C06030180800C9
:101B100000000103060C08004040404040404000E7
:101B200002020202020202000008183060C08000B7
:101B300000080C0603010000181C04C4E43C180053
:101B40000000000D0D000000F0F808C8C8F8F00013
:101B5000070F080B0B0B0100E0F0988C98F0E000E9
:101B60000F0F0000000F0F0004FCFC4444FCB80001
:101B7000080F0F08080F0700F0F80C04040C1800F9
:101B800003070C08080C060004FCFC040CF8F00029
:101B9000080F0F080C07030004FCFC44E40C1C00B5
:101BA000080F0F08080C0E0004FCFC44E40C1C0099
:101BB000080F0F0800000000F0F80C84848C9800D7
:101BC00003070C0808070F00FCFC404040FCFC0029
:101BD0000F0F0000000F0F00000004FCFC040000C9
:101BE0000000080F0F08000000000004FCFC0400C7
:101BF000070F08080F07000004FCFCC0F03C0C00B5
:101C0000080F0F00010F0E0004FCFC040000000090
:101C1000080F0F08080C0E00FCFC387038FCFC00A4
:101C20000F0F0000000F0F00FCFC3870E0FCFC0000
:101C30000F0F0000000F0F00F0F80C040CF8F0007C
:101C400003070C080C07030004FCFC44447C380028
:101C5000080F0F0800000000F8FC040404FCF80062
:101C6000070F080E3C3F270004FCFC44C4FC38006E
:101C7000080F0F00000F0F00183C6444C49C1800AC
:101C8000060E0808080F0700001C0CFCFC0C1C00CA
:101C90000000080F0F080000FCFC000000FCFC0026
:101CA000070F0808080F0700FCFC000000FCFC0000
:101CB0000103060C06030100FCFC008000FCFC0094
:101CC000030F0E030E0F03000C3CF0C0F03C0C00A1
:101CD0000C0F0300030F0C00003C7CC0C07C3C00D8
:101CE0000000080F0F0800001C0C84C4643C1C009A
:101CF0000E0F0908080C0E000000FCFC0404000094
:101D000000000F0F080800003870E0C080000000DD
:101D10000000000103070E0000000404FCFC0000AA
:101D2000000008080F0F0000080C0603060C08004E
:101D300000000000000000000000000000000000A3
:101D40002020202020202020000003070400000085
:101D5000000000000000000000A0A0A0E0C0000003
:101D6000070F0808070F080004FCFC2060C0800073
:101D7000080F0708080F0700C0E02020206040007F
:101D8000070F0808080C040080C06024FCFC000059
:101D9000070F0808070F0800C0E0A0A0A0E0C000DF
:101DA000070F0808080C040040F8FC440C18000059
:101DB000080F0F0800000000C0E02020C0E0200055
:101DC000276F48487F3F000004FCFC4020E0C00033
:101DD000080F0F00000F0F00000020ECEC000000C7
:101DE0000000080F0F0800000000000020ECEC00CD
:101DF00000307040407F3F0004FCFC80C060200049
:101E0000080F0F01030E0C00000004FCFC00000092
:101E10000000080F0F080000E0E060C060E0C000B4
:101E20000F0F000F000F0F0020E0C02020E0C000C7
:101E3000000F0F00000F0F00C0E0202020E0C000C6
:101E4000070F0808080F070020E0C02020E0C000AE
:101E5000407F7F48080F0700C0E02020C0E020003E
:101E6000070F08487F7F400020E0C0602060C0006E
:101E7000080F0F080000000040E0A0202060400094
:101E8000040C09090B0E04002020F8FC202000009F
:101E90000000070F080C0400E0E00000E0E0000094
:101EA000070F0808070F080000E0E00000E0E0006E
:101EB0000003070C0C070300E0E0000000E0E00076
:101EC000070F0C070C0F07002060C080C0602000C7
:101ED000080C0703070C0800E0E0000000E0E00049
:101EE000474F4848683F1F00606020A0E060200026
:101EF0000C0E0B09080C0C00004040F8BC04040058
:101F0000000000070F080800000000BCBC00000033
:101F10000000000F0F000000000404BCF840400067
:101F20000008080F07000000080C040C080C04004F
:101F3000000000000000000080C0603060C0800031
:101F400007070404040707001022640C8008494AAC
:101F50004CF84C4A490800000404FE01040404043F
:101F600004FF0404040604001010D0FF5090204029
:101F7000FF00FF4020300000040300FF80442219CE
:101F800007003F414640700000F848484848FF4875
:101F9000484848FC080000000007020202023F42D5
:101FA000424242474070000080808282828282E208
:101FB000A2928A8680C08000000000000040807FDE
:101FC0000000000000000000000000000000000011
:101FD0000000000000000000000000000000000001
:101FE00000000000000000000000000000000000F1
:101FF00000000000000000000000000000000000E1
:1020000000000000000000000000000000000000D0
:1020100000000000000000000000000000000000C0
:1020200000000000000000000000000000000000B0
:1020300000000000000000000000000000000000A0
:102040000000000000000000000000000000000090
:102050000000000000000000000000000000000080
:1020600000F8FC1C3830381CFCF800F8F800F8F8D0
:10207000000000F8FC8C8C8C0080D050F0E000F068
:10208000F020300000808000808000808000000C04
:102090001224120C0000000000000000800000006C
:1020A00000000000182444884424180000000000A8
:1020B0000000000000000000000000000000000020
:1020C0000000000000000000000000000000000010
:1020D0000000000000000000000000000000000000
:1020E0000003838000808000030300080B0B0F07B0
:1020F00080408040830303030000030303030003C5
:102100008380808080C3C3C0C3C3C0C3C3C0C0C0FA
:10211000C0C0808080C0C0402018040300000000C0
:10212000002050A05020000000000000000000002F
:10213000000000000000000000000000000000009F
:10214000000000000000000000000000000000008F
:10215000000000000000000000000000000000007F
:102160000003040811080403000000000000000040
:10217000010284C2E160301078ECFCF63A1B058560
:1021800097131213131111111111110181FFF9F994
:10219000F2C2822225058D8B93B3E6C68C1C1838BB
:1021A0007070E0C08000000000000018244824186F
:1021B000000000000000000000000000000000001F
:1021C000000000000000000000000000000000000F
:1021D00000000000000000000000000000000000FF
:1021E000000080E0E0703018181C1C1C0C1C161637
:1021F000160627636DAECE0E0E0F0F0F0E060607E6
:10220000070606060606060606060666776767E7F9
:10221000070707060606070787C76723231210006C
:102220000808090B0F0E0E0C3C70F0C08000000077
:10223000000000000000000000000000000000009E
:10224000000000000000000000000000000000008E
:102250000000000000000000000000000000F0F896
:10226000DEFFF63611E0F0F8FCFEDE1E3F3F1EFEFC
:10227000FEFCF8F2E4080107FC000000000000008A
:10228000000000000000000000000000000000FF4F
:1022900000000000003CFFE7311CE6FFFFFFFEFEF0
:1022A0001F3F3F1FFFFEFEFCF8F8F031FBFFFEFC76
:1022B00038000000000000000000000000000000E6
:1022C000000000000000000000000000000000000E
:1022D00000000000000000000000000000000003FB
:1022E000074F4C60607F7F7F7F7D4D4472724079E5
:1022F0007D7F7F7F7F7C7070737370707474747473
:102300007474747474747474767676767676767380
:102310007070727272737070707C7F7F7F7F7D7D52
:1023200062727260687D7F7F7F7F7774676763000A
:10233000000000000000000000000000000000009D
:10234000000000000000000000000000000000008D
:10235000000000000000000000000000000000007D
:10236000000000000000000000000000000000006D
:10237000000000000000000000000000000000005D
:10238000000000000000000000000000000000004D
:10239000000000000000000000000000000000003D
:1023A000000000000000000000000000000000002D
:1023B000000000000000000000000000000000001D
:1023C0000000000000000000040000080000000001
:1023D000000000020001000010000000FC230008C3
:1023E0000000002020000000280100081C24000834
:1023F00020000020F0070000440100080000000059
:102400000102030401020304060708090204060886
:0C241000000000000000000000000000C0
:04000005080000ED02
:00000001FF
