:020000040800F2
:1000000020040020010100081707000883020008EF
:100010001507000849010008E10800080000000079
:10002000000000000000000000000000E1070008E0
:100030004B01000800000000190700088D080008A7
:100040001B0100081B0100081B0100081B01000820
:100050001B0100081B0100081B0100081B01000810
:100060001B0100081B0100081B0100081B01000800
:100070001B0100081B0100081B0100081B010008F0
:100080001B0100081B0100081B0100081B010008E0
:100090001B0100081B0100081B0100081B010008D0
:1000A0001B0100081B0100081B0100081B010008C0
:1000B0001B0100081B0100081B0100081B010008B0
:1000C0001B0100081B0100081B0100081B010008A0
:1000D0001B0100081B0100081B0100081B01000890
:1000E0001B0100081B0100081B010008DFF80CD0F1
:1000F00000F018F80048004701090008200400201B
:100100000648804706480047FEE7FEE7FEE7FEE7B1
:10011000FEE7FEE7FEE7FEE7FEE7FEE791080008E0
:10012000ED000008064C074D06E0E06840F00103D2
:1001300094E8070098471034AC42F6D3FFF7DAFF93
:100140005009000870090008FEE7704700B5024634
:100150004FF47A7302E0184600F003F8521EFAD208
:1001600000BD00EBC000C1004FF0E0204161002164
:100170008161052101610169C903FCD50421016187
:100180007047F0B5CC78002204F00F03E40601D5E7
:100190008C7823430C784FF00F0C14F0FF0F4FF0C6
:1001A000010E1BD005680E880EFA02F42640A64206
:1001B00010D196000CFA06F725EA070703FA06F5B0
:1001C000CE783D43282E02D0482E02D002E0446172
:1001D00000E00461521C082AE5D305600A88FF2A62
:1001E0001CD94468002202F108060EFA06F50E88B2
:1001F0002E40AE420ED196000CFA06F7BC4303FA2D
:1002000006F7CE783C43282E00D14561CE78482EA3
:1002100000D10561521C082AE5D34460F0BD0000FE
:10022000F0B5144C002801DAE36900E06368450D7D
:100230002E0185B2C0F30157B540C0F30342032F2E
:1002400005D0C6020AD503269640B34307E023F043
:100250007062636823F07063636002E0AB4343F055
:10026000706201B12A43002801DAE261F0BD6260E8
:10027000F0BD0000000001400AB10161704741611A
:100280007047FEE72DE9F047574C16460D4680466D
:100290004FF400373946204600F08FF90128F9D095
:1002A0000121204600F075F9504F2046394600F0F4
:1002B00084F90028F9D04E4F2046394600F05CF909
:1002C00048F00101204600F0F3F9DFF8208108F141
:1002D00001083946204600F070F901281FD0414638
:1002E000204600F06AF90128F3D11421204600F0DD
:1002F000D7F91821204600F0D3F9DFF8F090012E4D
:1003000009F13F0913D0022E25D06BD94FF001011E
:10031000A046204600F026F90024771E4AE001217D
:10032000204600F040F94FF0FF30BDE8F087002193
:10033000204600F017F90121204600F034F94E461E
:100340003146204600F039F90028F9D0204600F067
:10035000ACF9287046E00121204600F003F926465A
:100360004C462146304600F028F90028F9D03046A6
:1003700000F09BF928700021304600F0F3F80121CD
:10038000304600F010F92146304600F016F90028FA
:10039000F9D0304600F089F9687023E049464046BC
:1003A00000F00BF90028F9D0404600F07EF92855FE
:1003B000641CA4B2BC42F1DB00214446404600F07C
:1003C000D1F80121204600F0EEF84F46394620468C
:1003D00000F0F3F80028F9D0204600F066F9A919DA
:1003E00001F8010C0020A0E70054004001000010BB
:1003F0000004001010B5012186B0480500F08EF908
:100400004FF48060ADF80A000001ADF80C004CF22A
:10041000503000904BF6FF70ADF806000020124CF3
:10042000ADF80400ADF808006946204600F0DAF89F
:100430000121084600F07EF901210220FFF7F0FEBD
:100440001C218DF813104FF44071ADF810100121EC
:100450008DF8121004A90548FFF793FE01212046EC
:1004600000F08DF806B010BD00540040000C0140B3
:100470002DE9F047384D9046894604464FF4003642
:100480003146284600F099F80128F9D00121284684
:1004900000F07FF8314E2846314600F08EF80028F3
:1004A000F9D02F4E2846314600F066F804F0FE01E0
:1004B000284600F0FDF8294C641C3146284600F01F
:1004C0007CF8012813D02146284600F076F8012850
:1004D000F3D11421284600F0E3F81821284600F053
:1004E000DFF81E4F00246FF0010A7F371AE0012168
:1004F000284600F058F84FF0FF30BDE8F08731464D
:10050000284600F05AF8012820D03946284600F045
:1005100054F80128F3D119F80410284600F0C8F85F
:10052000641CA4B24445EAD33146284600F045F89D
:1005300001280BD03946284600F03FF80128F3D1B6
:100540000121284600F02FF80020D6E70121284697
:1005500000F029F85046D0E7005400400100001098
:10056000000400100029018802D041F4806101E0FC
:1005700021F4806101807047C9438182704700295E
:10058000018802D041F0010101E021F00101018068
:1005900070470029018802D041F4807101E021F404
:1005A0008071018070470029018802D041F40071F8
:1005B00001E021F40071018070470CB50246002073
:1005C00000920A0F21F07F41019202D0009A14326A
:1005D00002E0009A090C1832009212680A4200D018
:1005E00001200CBD70B50446808886B00D4620F011
:1005F0003F06684600F0AAF827490298B0FBF1F1DF
:1006000089B20E43A680228822F001022280234B69
:100610002A689A421CD85200B0FBF2F080B204283B
:1006200000D20420491C2184A083208840F00100CE
:10063000208020884FF6F5310840A9886A89114347
:1006400001432180A88929890843208106B070BD13
:10065000EB88A3F53F46FF3E0BD002EBC20303EB52
:100660000212B0FBF2F080B240F48040020506D0E6
:1006700007E002EB4202B0FBF2F080B2F6E740F096
:1006800001004FF4967251434FF47A72B1FBF2F1CC
:1006900040F40040C6E7000040420F00A086010081
:1006A00008B508440090008808BD008AC0B27047B1
:1006B0000182704708B50121082000F03BF848206E
:1006C0008DF803000220ADF800008DF802006946A5
:1006D0000148FFF756FD08BD000C014038B5012167
:1006E000102000F027F814208DF803004FF4005478
:1006F000ADF800400220064D8DF8020069462846FC
:10070000FFF73FFD012221462846FFF7B5FD38BD22
:1007100000100140FEE7704770470000044A0029BE
:10072000D16901D0014300E08143D16170470000ED
:1007300000100240044A0029916901D0014300E001
:1007400081439161704700000010024030B5204A9B
:100750005168204B11F00C0103D0042901D0082965
:1007600001D0036012E05168536801F470114FF03A
:10077000020413F4803F04EB914102D053689B03C1
:1007800001D5154B00E0134B5943016051680F230D
:1007900003EA1111114B5C5C0168E140416054684F
:1007A000072505EA14241C5D21FA04F484605468CA
:1007B00005EAD4241B5DD940C1605268032303EAD3
:1007C0009232064B1B1F9A5CB1FBF2F1016130BD06
:1007D0000010024000127A0000093D0004000020D1
:1007E000704700000CB50022264800920192016873
:1007F00041F4803101604FF4A063016801F40031DD
:1008000001910099491C0091019911B900999942EF
:10081000F3D10168890333D5012101911A490A688E
:1008200042F010020A600A6822F003020A600A68B5
:1008300042F002020A6041684160416841604168DB
:1008400041F480614160416821F47C11416041685C
:1008500041F4E8114160016841F080710160016874
:100860008901FCD5416821F003014160416841F0F4
:10087000020141604168C1F381010229FAD10CBD36
:1008800001920CBD001002400020024070470000A1
:100890000F4810B5016841F00101016041680D4A3F
:1008A0001140416001680C4A11400160016821F467
:1008B00080210160416821F4FE0141604FF41F0175
:1008C0008160FFF78FFF05494FF00060086010BDA1
:1008D000001002400000FFF8FFFFF6FE08ED00E008
:1008E000FEE702E008C8121F08C1002AFAD17047CB
:1008F0007047002001E001C1121F002AFBD17047A0
:10090000FFF7ECFEFFF7D6FEFFF774FD6420FFF75C
:100910001DFC05220C497820FFF7AAFD6420FFF793
:1009200015FC09490122491E7820FFF7ABFC064857
:100930004FF40051401E00788009C207034800D0E0
:100940000122FFF799FCFEE715000020001001408E
:1009500070090008000000201C000000E2080008E8
:100960008C0900081C00002004040000F2080008A4
:10097000020406080000000001020304010203044F
:0C0980000607080900008D14AFA5000058
:04000005080000ED02
:00000001FF
